{"abi":[{"anonymous":false,"inputs":[{"indexed":false,"internalType":"string","name":"","type":"string"},{"indexed":false,"internalType":"uint256","name":"","type":"uint256"}],"name":"MyLog","type":"event"},{"inputs":[{"internalType":"uint256","name":"amount","type":"uint256"},{"internalType":"bool","name":"redeemType","type":"bool"},{"internalType":"address","name":"_cErc20Contract","type":"address"}],"name":"redeemCErc20Tokens","outputs":[{"internalType":"bool","name":"","type":"bool"}],"stateMutability":"nonpayable","type":"function"},{"inputs":[{"internalType":"uint256","name":"amount","type":"uint256"},{"internalType":"bool","name":"redeemType","type":"bool"},{"internalType":"address","name":"_cEtherContract","type":"address"}],"name":"redeemCEth","outputs":[{"internalType":"bool","name":"","type":"bool"}],"stateMutability":"nonpayable","type":"function"},{"inputs":[{"internalType":"address","name":"_erc20Contract","type":"address"},{"internalType":"address","name":"_cErc20Contract","type":"address"},{"internalType":"uint256","name":"_numTokensToSupply","type":"uint256"}],"name":"supplyErc20ToCompound","outputs":[{"internalType":"uint256","name":"","type":"uint256"}],"stateMutability":"nonpayable","type":"function"},{"inputs":[{"internalType":"address payable","name":"_cEtherContract","type":"address"}],"name":"supplyEthToCompound","outputs":[{"internalType":"bool","name":"","type":"bool"}],"stateMutability":"payable","type":"function"},{"stateMutability":"payable","type":"receive"}],"bytecode":"608060405234801561001057600080fd5b506107ff806100206000396000f3fe6080604052600436106100435760003560e01c80633b7ba25f1461004f578063a82ffd8814610082578063c6fb5014146100a5578063d0ace48e146100a557600080fd5b3661004a57005b600080fd5b34801561005b57600080fd5b5061006f61006a3660046106be565b6100c5565b6040519081526020015b60405180910390f35b6100956100903660046106ff565b61034d565b6040519015158152602001610079565b3480156100b157600080fd5b506100956100c0366004610731565b61054a565b60008084905060008490506000816001600160a01b031663bd6d894d6040518163ffffffff1660e01b81526004016020604051808303816000875af1158015610112573d6000803e3d6000fd5b505050506040513d601f19601f820116820180604052508101906101369190610773565b90506000805160206107aa8339815191528160405161018f91906040808252601b908201527f45786368616e6765205261746520287363616c6564207570293a2000000000006060820152602081019190915260800190565b60405180910390a16000826001600160a01b031663ae9d70b06040518163ffffffff1660e01b81526004016020604051808303816000875af11580156101d9573d6000803e3d6000fd5b505050506040513d601f19601f820116820180604052508101906101fd9190610773565b90506000805160206107aa83398151915281604051610256919060408082526018908201527f537570706c7920526174653a20287363616c65642075702900000000000000006060820152602081019190915260800190565b60405180910390a160405163095ea7b360e01b81526001600160a01b0388811660048301526024820188905285169063095ea7b3906044016020604051808303816000875af11580156102ad573d6000803e3d6000fd5b505050506040513d601f19601f820116820180604052508101906102d1919061078c565b5060405163140e25ad60e31b8152600481018790526000906001600160a01b0385169063a0712d68906024016020604051808303816000875af115801561031c573d6000803e3d6000fd5b505050506040513d601f19601f820116820180604052508101906103409190610773565b9998505050505050505050565b6000808290506000816001600160a01b031663bd6d894d6040518163ffffffff1660e01b81526004016020604051808303816000875af1158015610395573d6000803e3d6000fd5b505050506040513d601f19601f820116820180604052508101906103b99190610773565b90506000805160206107aa8339815191528160405161041e919060408082526023908201527f45786368616e6765205261746520287363616c656420757020627920316531386060820152620149d160ed1b6080820152602081019190915260a00190565b60405180910390a16000826001600160a01b031663ae9d70b06040518163ffffffff1660e01b81526004016020604051808303816000875af1158015610468573d6000803e3d6000fd5b505050506040513d601f19601f8201168201806040525081019061048c9190610773565b6040805181815260209181018290527f537570706c7920526174653a20287363616c656420757020627920316531382960608201529081018290529091506000805160206107aa8339815191529060800160405180910390a1826001600160a01b0316631249c58b346203d090906040518363ffffffff1660e01b81526004016000604051808303818589803b15801561052557600080fd5b5088f1158015610539573d6000803e3d6000fd5b5060019a9950505050505050505050565b60008181600185151514156105cb5760405163db006a7560e01b8152600481018790526001600160a01b0383169063db006a75906024016020604051808303816000875af11580156105a0573d6000803e3d6000fd5b505050506040513d601f19601f820116820180604052508101906105c49190610773565b9050610639565b60405163852a12e360e01b8152600481018790526001600160a01b0383169063852a12e3906024016020604051808303816000875af1158015610612573d6000803e3d6000fd5b505050506040513d601f19601f820116820180604052508101906106369190610773565b90505b604080518181526024818301527f49662074686973206973206e6f7420302c2074686572652077617320616e2065606082015263393937b960e11b60808201526020810183905290516000805160206107aa8339815191529181900360a00190a150600195945050505050565b6001600160a01b03811681146106bb57600080fd5b50565b6000806000606084860312156106d357600080fd5b83356106de816106a6565b925060208401356106ee816106a6565b929592945050506040919091013590565b60006020828403121561071157600080fd5b813561071c816106a6565b9392505050565b80151581146106bb57600080fd5b60008060006060848603121561074657600080fd5b83359250602084013561075881610723565b91506040840135610768816106a6565b809150509250925092565b60006020828403121561078557600080fd5b5051919050565b60006020828403121561079e57600080fd5b815161071c8161072356fe8d1cced004452bd270777a8c670f9f7e7c4fdde56f2db331fe289d39dc2624ada2646970667358221220a2c66d678f97574a033878987b980758941d8da3a76bc41049b285a2d51df7f564736f6c634300080b0033","bytecodeSha1":"51462d572f3895cb620fb92967c068fa89e7aeb0","compiler":{"evm_version":"istanbul","optimizer":{"enabled":true,"runs":200},"version":"0.8.11+commit.d7f03943"},"contractName":"CompoundInteractionContract","language":"Solidity","natspec":{"kind":"dev","methods":{},"version":1},"opcodes":"PUSH1 0x80 PUSH1 0x40 MSTORE PUSH1 0x4 CALLDATASIZE LT PUSH2 0x43 JUMPI PUSH1 0x0 CALLDATALOAD PUSH1 0xE0 SHR DUP1 PUSH4 0x3B7BA25F EQ PUSH2 0x4F JUMPI DUP1 PUSH4 0xA82FFD88 EQ PUSH2 0x82 JUMPI DUP1 PUSH4 0xC6FB5014 EQ PUSH2 0xA5 JUMPI DUP1 PUSH4 0xD0ACE48E EQ PUSH2 0xA5 JUMPI PUSH1 0x0 DUP1 REVERT JUMPDEST CALLDATASIZE PUSH2 0x4A JUMPI STOP JUMPDEST PUSH1 0x0 DUP1 REVERT JUMPDEST CALLVALUE DUP1 ISZERO PUSH2 0x5B JUMPI PUSH1 0x0 DUP1 REVERT JUMPDEST POP PUSH2 0x6F PUSH2 0x6A CALLDATASIZE PUSH1 0x4 PUSH2 0x6BE JUMP JUMPDEST PUSH2 0xC5 JUMP JUMPDEST PUSH1 0x40 MLOAD SWAP1 DUP2 MSTORE PUSH1 0x20 ADD JUMPDEST PUSH1 0x40 MLOAD DUP1 SWAP2 SUB SWAP1 RETURN JUMPDEST PUSH2 0x95 PUSH2 0x90 CALLDATASIZE PUSH1 0x4 PUSH2 0x6FF JUMP JUMPDEST PUSH2 0x34D JUMP JUMPDEST PUSH1 0x40 MLOAD SWAP1 ISZERO ISZERO DUP2 MSTORE PUSH1 0x20 ADD PUSH2 0x79 JUMP JUMPDEST CALLVALUE DUP1 ISZERO PUSH2 0xB1 JUMPI PUSH1 0x0 DUP1 REVERT JUMPDEST POP PUSH2 0x95 PUSH2 0xC0 CALLDATASIZE PUSH1 0x4 PUSH2 0x731 JUMP JUMPDEST PUSH2 0x54A JUMP JUMPDEST PUSH1 0x0 DUP1 DUP5 SWAP1 POP PUSH1 0x0 DUP5 SWAP1 POP PUSH1 0x0 DUP2 PUSH1 0x1 PUSH1 0x1 PUSH1 0xA0 SHL SUB AND PUSH4 0xBD6D894D PUSH1 0x40 MLOAD DUP2 PUSH4 0xFFFFFFFF AND PUSH1 0xE0 SHL DUP2 MSTORE PUSH1 0x4 ADD PUSH1 0x20 PUSH1 0x40 MLOAD DUP1 DUP4 SUB DUP2 PUSH1 0x0 DUP8 GAS CALL ISZERO DUP1 ISZERO PUSH2 0x112 JUMPI RETURNDATASIZE PUSH1 0x0 DUP1 RETURNDATACOPY RETURNDATASIZE PUSH1 0x0 REVERT JUMPDEST POP POP POP POP PUSH1 0x40 MLOAD RETURNDATASIZE PUSH1 0x1F NOT PUSH1 0x1F DUP3 ADD AND DUP3 ADD DUP1 PUSH1 0x40 MSTORE POP DUP2 ADD SWAP1 PUSH2 0x136 SWAP2 SWAP1 PUSH2 0x773 JUMP JUMPDEST SWAP1 POP PUSH1 0x0 DUP1 MLOAD PUSH1 0x20 PUSH2 0x7AA DUP4 CODECOPY DUP2 MLOAD SWAP2 MSTORE DUP2 PUSH1 0x40 MLOAD PUSH2 0x18F SWAP2 SWAP1 PUSH1 0x40 DUP1 DUP3 MSTORE PUSH1 0x1B SWAP1 DUP3 ADD MSTORE PUSH32 0x45786368616E6765205261746520287363616C6564207570293A200000000000 PUSH1 0x60 DUP3 ADD MSTORE PUSH1 0x20 DUP2 ADD SWAP2 SWAP1 SWAP2 MSTORE PUSH1 0x80 ADD SWAP1 JUMP JUMPDEST PUSH1 0x40 MLOAD DUP1 SWAP2 SUB SWAP1 LOG1 PUSH1 0x0 DUP3 PUSH1 0x1 PUSH1 0x1 PUSH1 0xA0 SHL SUB AND PUSH4 0xAE9D70B0 PUSH1 0x40 MLOAD DUP2 PUSH4 0xFFFFFFFF AND PUSH1 0xE0 SHL DUP2 MSTORE PUSH1 0x4 ADD PUSH1 0x20 PUSH1 0x40 MLOAD DUP1 DUP4 SUB DUP2 PUSH1 0x0 DUP8 GAS CALL ISZERO DUP1 ISZERO PUSH2 0x1D9 JUMPI RETURNDATASIZE PUSH1 0x0 DUP1 RETURNDATACOPY RETURNDATASIZE PUSH1 0x0 REVERT JUMPDEST POP POP POP POP PUSH1 0x40 MLOAD RETURNDATASIZE PUSH1 0x1F NOT PUSH1 0x1F DUP3 ADD AND DUP3 ADD DUP1 PUSH1 0x40 MSTORE POP DUP2 ADD SWAP1 PUSH2 0x1FD SWAP2 SWAP1 PUSH2 0x773 JUMP JUMPDEST SWAP1 POP PUSH1 0x0 DUP1 MLOAD PUSH1 0x20 PUSH2 0x7AA DUP4 CODECOPY DUP2 MLOAD SWAP2 MSTORE DUP2 PUSH1 0x40 MLOAD PUSH2 0x256 SWAP2 SWAP1 PUSH1 0x40 DUP1 DUP3 MSTORE PUSH1 0x18 SWAP1 DUP3 ADD MSTORE PUSH32 0x537570706C7920526174653A20287363616C6564207570290000000000000000 PUSH1 0x60 DUP3 ADD MSTORE PUSH1 0x20 DUP2 ADD SWAP2 SWAP1 SWAP2 MSTORE PUSH1 0x80 ADD SWAP1 JUMP JUMPDEST PUSH1 0x40 MLOAD DUP1 SWAP2 SUB SWAP1 LOG1 PUSH1 0x40 MLOAD PUSH4 0x95EA7B3 PUSH1 0xE0 SHL DUP2 MSTORE PUSH1 0x1 PUSH1 0x1 PUSH1 0xA0 SHL SUB DUP9 DUP2 AND PUSH1 0x4 DUP4 ADD MSTORE PUSH1 0x24 DUP3 ADD DUP9 SWAP1 MSTORE DUP6 AND SWAP1 PUSH4 0x95EA7B3 SWAP1 PUSH1 0x44 ADD PUSH1 0x20 PUSH1 0x40 MLOAD DUP1 DUP4 SUB DUP2 PUSH1 0x0 DUP8 GAS CALL ISZERO DUP1 ISZERO PUSH2 0x2AD JUMPI RETURNDATASIZE PUSH1 0x0 DUP1 RETURNDATACOPY RETURNDATASIZE PUSH1 0x0 REVERT JUMPDEST POP POP POP POP PUSH1 0x40 MLOAD RETURNDATASIZE PUSH1 0x1F NOT PUSH1 0x1F DUP3 ADD AND DUP3 ADD DUP1 PUSH1 0x40 MSTORE POP DUP2 ADD SWAP1 PUSH2 0x2D1 SWAP2 SWAP1 PUSH2 0x78C JUMP JUMPDEST POP PUSH1 0x40 MLOAD PUSH4 0x140E25AD PUSH1 0xE3 SHL DUP2 MSTORE PUSH1 0x4 DUP2 ADD DUP8 SWAP1 MSTORE PUSH1 0x0 SWAP1 PUSH1 0x1 PUSH1 0x1 PUSH1 0xA0 SHL SUB DUP6 AND SWAP1 PUSH4 0xA0712D68 SWAP1 PUSH1 0x24 ADD PUSH1 0x20 PUSH1 0x40 MLOAD DUP1 DUP4 SUB DUP2 PUSH1 0x0 DUP8 GAS CALL ISZERO DUP1 ISZERO PUSH2 0x31C JUMPI RETURNDATASIZE PUSH1 0x0 DUP1 RETURNDATACOPY RETURNDATASIZE PUSH1 0x0 REVERT JUMPDEST POP POP POP POP PUSH1 0x40 MLOAD RETURNDATASIZE PUSH1 0x1F NOT PUSH1 0x1F DUP3 ADD AND DUP3 ADD DUP1 PUSH1 0x40 MSTORE POP DUP2 ADD SWAP1 PUSH2 0x340 SWAP2 SWAP1 PUSH2 0x773 JUMP JUMPDEST SWAP10 SWAP9 POP POP POP POP POP POP POP POP POP JUMP JUMPDEST PUSH1 0x0 DUP1 DUP3 SWAP1 POP PUSH1 0x0 DUP2 PUSH1 0x1 PUSH1 0x1 PUSH1 0xA0 SHL SUB AND PUSH4 0xBD6D894D PUSH1 0x40 MLOAD DUP2 PUSH4 0xFFFFFFFF AND PUSH1 0xE0 SHL DUP2 MSTORE PUSH1 0x4 ADD PUSH1 0x20 PUSH1 0x40 MLOAD DUP1 DUP4 SUB DUP2 PUSH1 0x0 DUP8 GAS CALL ISZERO DUP1 ISZERO PUSH2 0x395 JUMPI RETURNDATASIZE PUSH1 0x0 DUP1 RETURNDATACOPY RETURNDATASIZE PUSH1 0x0 REVERT JUMPDEST POP POP POP POP PUSH1 0x40 MLOAD RETURNDATASIZE PUSH1 0x1F NOT PUSH1 0x1F DUP3 ADD AND DUP3 ADD DUP1 PUSH1 0x40 MSTORE POP DUP2 ADD SWAP1 PUSH2 0x3B9 SWAP2 SWAP1 PUSH2 0x773 JUMP JUMPDEST SWAP1 POP PUSH1 0x0 DUP1 MLOAD PUSH1 0x20 PUSH2 0x7AA DUP4 CODECOPY DUP2 MLOAD SWAP2 MSTORE DUP2 PUSH1 0x40 MLOAD PUSH2 0x41E SWAP2 SWAP1 PUSH1 0x40 DUP1 DUP3 MSTORE PUSH1 0x23 SWAP1 DUP3 ADD MSTORE PUSH32 0x45786368616E6765205261746520287363616C65642075702062792031653138 PUSH1 0x60 DUP3 ADD MSTORE PUSH3 0x149D1 PUSH1 0xED SHL PUSH1 0x80 DUP3 ADD MSTORE PUSH1 0x20 DUP2 ADD SWAP2 SWAP1 SWAP2 MSTORE PUSH1 0xA0 ADD SWAP1 JUMP JUMPDEST PUSH1 0x40 MLOAD DUP1 SWAP2 SUB SWAP1 LOG1 PUSH1 0x0 DUP3 PUSH1 0x1 PUSH1 0x1 PUSH1 0xA0 SHL SUB AND PUSH4 0xAE9D70B0 PUSH1 0x40 MLOAD DUP2 PUSH4 0xFFFFFFFF AND PUSH1 0xE0 SHL DUP2 MSTORE PUSH1 0x4 ADD PUSH1 0x20 PUSH1 0x40 MLOAD DUP1 DUP4 SUB DUP2 PUSH1 0x0 DUP8 GAS CALL ISZERO DUP1 ISZERO PUSH2 0x468 JUMPI RETURNDATASIZE PUSH1 0x0 DUP1 RETURNDATACOPY RETURNDATASIZE PUSH1 0x0 REVERT JUMPDEST POP POP POP POP PUSH1 0x40 MLOAD RETURNDATASIZE PUSH1 0x1F NOT PUSH1 0x1F DUP3 ADD AND DUP3 ADD DUP1 PUSH1 0x40 MSTORE POP DUP2 ADD SWAP1 PUSH2 0x48C SWAP2 SWAP1 PUSH2 0x773 JUMP JUMPDEST PUSH1 0x40 DUP1 MLOAD DUP2 DUP2 MSTORE PUSH1 0x20 SWAP2 DUP2 ADD DUP3 SWAP1 MSTORE PUSH32 0x537570706C7920526174653A20287363616C6564207570206279203165313829 PUSH1 0x60 DUP3 ADD MSTORE SWAP1 DUP2 ADD DUP3 SWAP1 MSTORE SWAP1 SWAP2 POP PUSH1 0x0 DUP1 MLOAD PUSH1 0x20 PUSH2 0x7AA DUP4 CODECOPY DUP2 MLOAD SWAP2 MSTORE SWAP1 PUSH1 0x80 ADD PUSH1 0x40 MLOAD DUP1 SWAP2 SUB SWAP1 LOG1 DUP3 PUSH1 0x1 PUSH1 0x1 PUSH1 0xA0 SHL SUB AND PUSH4 0x1249C58B CALLVALUE PUSH3 0x3D090 SWAP1 PUSH1 0x40 MLOAD DUP4 PUSH4 0xFFFFFFFF AND PUSH1 0xE0 SHL DUP2 MSTORE PUSH1 0x4 ADD PUSH1 0x0 PUSH1 0x40 MLOAD DUP1 DUP4 SUB DUP2 DUP6 DUP10 DUP1 EXTCODESIZE ISZERO DUP1 ISZERO PUSH2 0x525 JUMPI PUSH1 0x0 DUP1 REVERT JUMPDEST POP DUP9 CALL ISZERO DUP1 ISZERO PUSH2 0x539 JUMPI RETURNDATASIZE PUSH1 0x0 DUP1 RETURNDATACOPY RETURNDATASIZE PUSH1 0x0 REVERT JUMPDEST POP PUSH1 0x1 SWAP11 SWAP10 POP POP POP POP POP POP POP POP POP POP JUMP JUMPDEST PUSH1 0x0 DUP2 DUP2 PUSH1 0x1 DUP6 ISZERO ISZERO EQ ISZERO PUSH2 0x5CB JUMPI PUSH1 0x40 MLOAD PUSH4 0xDB006A75 PUSH1 0xE0 SHL DUP2 MSTORE PUSH1 0x4 DUP2 ADD DUP8 SWAP1 MSTORE PUSH1 0x1 PUSH1 0x1 PUSH1 0xA0 SHL SUB DUP4 AND SWAP1 PUSH4 0xDB006A75 SWAP1 PUSH1 0x24 ADD PUSH1 0x20 PUSH1 0x40 MLOAD DUP1 DUP4 SUB DUP2 PUSH1 0x0 DUP8 GAS CALL ISZERO DUP1 ISZERO PUSH2 0x5A0 JUMPI RETURNDATASIZE PUSH1 0x0 DUP1 RETURNDATACOPY RETURNDATASIZE PUSH1 0x0 REVERT JUMPDEST POP POP POP POP PUSH1 0x40 MLOAD RETURNDATASIZE PUSH1 0x1F NOT PUSH1 0x1F DUP3 ADD AND DUP3 ADD DUP1 PUSH1 0x40 MSTORE POP DUP2 ADD SWAP1 PUSH2 0x5C4 SWAP2 SWAP1 PUSH2 0x773 JUMP JUMPDEST SWAP1 POP PUSH2 0x639 JUMP JUMPDEST PUSH1 0x40 MLOAD PUSH4 0x852A12E3 PUSH1 0xE0 SHL DUP2 MSTORE PUSH1 0x4 DUP2 ADD DUP8 SWAP1 MSTORE PUSH1 0x1 PUSH1 0x1 PUSH1 0xA0 SHL SUB DUP4 AND SWAP1 PUSH4 0x852A12E3 SWAP1 PUSH1 0x24 ADD PUSH1 0x20 PUSH1 0x40 MLOAD DUP1 DUP4 SUB DUP2 PUSH1 0x0 DUP8 GAS CALL ISZERO DUP1 ISZERO PUSH2 0x612 JUMPI RETURNDATASIZE PUSH1 0x0 DUP1 RETURNDATACOPY RETURNDATASIZE PUSH1 0x0 REVERT JUMPDEST POP POP POP POP PUSH1 0x40 MLOAD RETURNDATASIZE PUSH1 0x1F NOT PUSH1 0x1F DUP3 ADD AND DUP3 ADD DUP1 PUSH1 0x40 MSTORE POP DUP2 ADD SWAP1 PUSH2 0x636 SWAP2 SWAP1 PUSH2 0x773 JUMP JUMPDEST SWAP1 POP JUMPDEST PUSH1 0x40 DUP1 MLOAD DUP2 DUP2 MSTORE PUSH1 0x24 DUP2 DUP4 ADD MSTORE PUSH32 0x49662074686973206973206E6F7420302C2074686572652077617320616E2065 PUSH1 0x60 DUP3 ADD MSTORE PUSH4 0x393937B9 PUSH1 0xE1 SHL PUSH1 0x80 DUP3 ADD MSTORE PUSH1 0x20 DUP2 ADD DUP4 SWAP1 MSTORE SWAP1 MLOAD PUSH1 0x0 DUP1 MLOAD PUSH1 0x20 PUSH2 0x7AA DUP4 CODECOPY DUP2 MLOAD SWAP2 MSTORE SWAP2 DUP2 SWAP1 SUB PUSH1 0xA0 ADD SWAP1 LOG1 POP PUSH1 0x1 SWAP6 SWAP5 POP POP POP POP POP JUMP JUMPDEST PUSH1 0x1 PUSH1 0x1 PUSH1 0xA0 SHL SUB DUP2 AND DUP2 EQ PUSH2 0x6BB JUMPI PUSH1 0x0 DUP1 REVERT JUMPDEST POP JUMP JUMPDEST PUSH1 0x0 DUP1 PUSH1 0x0 PUSH1 0x60 DUP5 DUP7 SUB SLT ISZERO PUSH2 0x6D3 JUMPI PUSH1 0x0 DUP1 REVERT JUMPDEST DUP4 CALLDATALOAD PUSH2 0x6DE DUP2 PUSH2 0x6A6 JUMP JUMPDEST SWAP3 POP PUSH1 0x20 DUP5 ADD CALLDATALOAD PUSH2 0x6EE DUP2 PUSH2 0x6A6 JUMP JUMPDEST SWAP3 SWAP6 SWAP3 SWAP5 POP POP POP PUSH1 0x40 SWAP2 SWAP1 SWAP2 ADD CALLDATALOAD SWAP1 JUMP JUMPDEST PUSH1 0x0 PUSH1 0x20 DUP3 DUP5 SUB SLT ISZERO PUSH2 0x711 JUMPI PUSH1 0x0 DUP1 REVERT JUMPDEST DUP2 CALLDATALOAD PUSH2 0x71C DUP2 PUSH2 0x6A6 JUMP JUMPDEST SWAP4 SWAP3 POP POP POP JUMP JUMPDEST DUP1 ISZERO ISZERO DUP2 EQ PUSH2 0x6BB JUMPI PUSH1 0x0 DUP1 REVERT JUMPDEST PUSH1 0x0 DUP1 PUSH1 0x0 PUSH1 0x60 DUP5 DUP7 SUB SLT ISZERO PUSH2 0x746 JUMPI PUSH1 0x0 DUP1 REVERT JUMPDEST DUP4 CALLDATALOAD SWAP3 POP PUSH1 0x20 DUP5 ADD CALLDATALOAD PUSH2 0x758 DUP2 PUSH2 0x723 JUMP JUMPDEST SWAP2 POP PUSH1 0x40 DUP5 ADD CALLDATALOAD PUSH2 0x768 DUP2 PUSH2 0x6A6 JUMP JUMPDEST DUP1 SWAP2 POP POP SWAP3 POP SWAP3 POP SWAP3 JUMP JUMPDEST PUSH1 0x0 PUSH1 0x20 DUP3 DUP5 SUB SLT ISZERO PUSH2 0x785 JUMPI PUSH1 0x0 DUP1 REVERT JUMPDEST POP MLOAD SWAP2 SWAP1 POP JUMP JUMPDEST PUSH1 0x0 PUSH1 0x20 DUP3 DUP5 SUB SLT ISZERO PUSH2 0x79E JUMPI PUSH1 0x0 DUP1 REVERT JUMPDEST DUP2 MLOAD PUSH2 0x71C DUP2 PUSH2 0x723 JUMP INVALID DUP14 SHR 0xCE 0xD0 DIV GASLIMIT 0x2B 0xD2 PUSH17 0x777A8C670F9F7E7C4FDDE56F2DB331FE28 SWAP14 CODECOPY 0xDC 0x26 0x24 0xAD LOG2 PUSH5 0x6970667358 0x22 SLT KECCAK256 LOG2 0xC6 PUSH14 0x678F97574A033878987B98075894 SAR DUP14 LOG3 0xA7 PUSH12 0xC41049B285A2D51DF7F56473 PUSH16 0x6C634300080B00330000000000000000 ","sha1":"e59234b4b493ff1ac35ba0a58b2f9411887abf72","source":"// SPDX-License-Identifier: MIT\n\npragma solidity ^0.8.6;\n\ninterface Erc20 {\n    function approve(address, uint256) external returns (bool);\n\n    function transfer(address, uint256) external returns (bool);\n}\n\ninterface CErc20 {\n    function mint(uint256) external returns (uint256);\n\n    function exchangeRateCurrent() external returns (uint256);\n\n    function supplyRatePerBlock() external returns (uint256);\n\n    function redeem(uint256) external returns (uint256);\n\n    function redeemUnderlying(uint256) external returns (uint256);\n}\n\ninterface CEth {\n    function mint() external payable;\n\n    function exchangeRateCurrent() external returns (uint256);\n\n    function supplyRatePerBlock() external returns (uint256);\n\n    function redeem(uint256) external returns (uint256);\n\n    function redeemUnderlying(uint256) external returns (uint256);\n}\n\ncontract CompoundInteractionContract {\n    event MyLog(string, uint256);\n\n    function supplyEthToCompound(address payable _cEtherContract)\n        public\n        payable\n        returns (bool)\n    {\n        // Create a reference to the corresponding cToken contract\n        CEth cToken = CEth(_cEtherContract);\n\n        // Amount of current exchange rate from cToken to underlying\n        uint256 exchangeRateMantissa = cToken.exchangeRateCurrent();\n        emit MyLog(\"Exchange Rate (scaled up by 1e18): \", exchangeRateMantissa);\n\n        // Amount added to you supply balance this block\n        uint256 supplyRateMantissa = cToken.supplyRatePerBlock();\n        emit MyLog(\"Supply Rate: (scaled up by 1e18)\", supplyRateMantissa);\n\n        cToken.mint{value: msg.value, gas: 250000}();\n        return true;\n    }\n\n    function supplyErc20ToCompound(\n        address _erc20Contract,\n        address _cErc20Contract,\n        uint256 _numTokensToSupply\n    ) public returns (uint256) {\n        // Create a reference to the underlying asset contract, like DAI.\n        Erc20 underlying = Erc20(_erc20Contract);\n\n        // Create a reference to the corresponding cToken contract, like cDAI\n        CErc20 cToken = CErc20(_cErc20Contract);\n\n        // Amount of current exchange rate from cToken to underlying\n        uint256 exchangeRateMantissa = cToken.exchangeRateCurrent();\n        emit MyLog(\"Exchange Rate (scaled up): \", exchangeRateMantissa);\n\n        // Amount added to you supply balance this block\n        uint256 supplyRateMantissa = cToken.supplyRatePerBlock();\n        emit MyLog(\"Supply Rate: (scaled up)\", supplyRateMantissa);\n\n        // Approve transfer on the ERC20 contract\n        underlying.approve(_cErc20Contract, _numTokensToSupply);\n\n        // Mint cTokens\n        uint256 mintResult = cToken.mint(_numTokensToSupply);\n        return mintResult;\n    }\n\n    function redeemCErc20Tokens(\n        uint256 amount,\n        bool redeemType,\n        address _cErc20Contract\n    ) public returns (bool) {\n        // Create a reference to the corresponding cToken contract, like cDAI\n        CErc20 cToken = CErc20(_cErc20Contract);\n\n        // `amount` is scaled up, see decimal table here:\n        // https://compound.finance/docs#protocol-math\n\n        uint256 redeemResult;\n\n        if (redeemType == true) {\n            // Retrieve your asset based on a cToken amount\n            redeemResult = cToken.redeem(amount);\n        } else {\n            // Retrieve your asset based on an amount of the asset\n            redeemResult = cToken.redeemUnderlying(amount);\n        }\n\n        // Error codes are listed here:\n        // https://compound.finance/docs/ctokens#error-codes\n        emit MyLog(\"If this is not 0, there was an error\", redeemResult);\n\n        return true;\n    }\n\n    function redeemCEth(\n        uint256 amount,\n        bool redeemType,\n        address _cEtherContract\n    ) public returns (bool) {\n        // Create a reference to the corresponding cToken contract\n        CEth cToken = CEth(_cEtherContract);\n\n        // `amount` is scaled up by 1e18 to avoid decimals\n\n        uint256 redeemResult;\n\n        if (redeemType == true) {\n            // Retrieve your asset based on a cToken amount\n            redeemResult = cToken.redeem(amount);\n        } else {\n            // Retrieve your asset based on an amount of the asset\n            redeemResult = cToken.redeemUnderlying(amount);\n        }\n\n        // Error codes are listed here:\n        // https://compound.finance/docs/ctokens#error-codes\n        emit MyLog(\"If this is not 0, there was an error\", redeemResult);\n\n        return true;\n    }\n\n    // This is needed to receive ETH when calling `redeemCEth`\n    receive() external payable {}\n}\n","sourcePath":"contracts/CompoundInteractionContract.sol","type":"contract","deployment":{"address":"0x94aa48D347036207294B805f9acC91AA4809d63c","chainid":"42","blockHeight":29722109}}