{
  "abi": [
    {
      "inputs": [],
      "stateMutability": "nonpayable",
      "type": "constructor"
    },
    {
      "inputs": [],
      "name": "aToken",
      "outputs": [
        {
          "internalType": "contract IaToken",
          "name": "",
          "type": "address"
        }
      ],
      "stateMutability": "view",
      "type": "function"
    },
    {
      "inputs": [],
      "name": "aaveLendingPool",
      "outputs": [
        {
          "internalType": "contract IAaveLendingPool",
          "name": "",
          "type": "address"
        }
      ],
      "stateMutability": "view",
      "type": "function"
    },
    {
      "inputs": [],
      "name": "dai",
      "outputs": [
        {
          "internalType": "contract IERC20",
          "name": "",
          "type": "address"
        }
      ],
      "stateMutability": "view",
      "type": "function"
    },
    {
      "inputs": [
        {
          "internalType": "uint256",
          "name": "_amountInDai",
          "type": "uint256"
        }
      ],
      "name": "userDepositDai",
      "outputs": [],
      "stateMutability": "nonpayable",
      "type": "function"
    },
    {
      "inputs": [
        {
          "internalType": "address",
          "name": "",
          "type": "address"
        }
      ],
      "name": "userDepositedDai",
      "outputs": [
        {
          "internalType": "uint256",
          "name": "",
          "type": "uint256"
        }
      ],
      "stateMutability": "view",
      "type": "function"
    },
    {
      "inputs": [
        {
          "internalType": "uint256",
          "name": "_amountInDai",
          "type": "uint256"
        }
      ],
      "name": "userWithdrawDai",
      "outputs": [],
      "stateMutability": "nonpayable",
      "type": "function"
    }
  ],
  "bytecode": "6080604052600080546001600160a01b031990811673ff795577d9ac8bd7d90ee22b6c1703490b6512fd179091556001805482167358ad4cb396411b691a9aab6f74545b2c5217fe6a1790556002805490911673580d4fdc4bf8f9b5ae2fb9225d584fed4ad5375c17905534801561007657600080fd5b5060005460025460405163095ea7b360e01b81526001600160a01b039182166004820152600019602482015291169063095ea7b3906044016020604051808303816000875af11580156100cd573d6000803e3d6000fd5b505050506040513d601f19601f820116820180604052508101906100f191906100f7565b50610120565b60006020828403121561010957600080fd5b8151801515811461011957600080fd5b9392505050565b6104dc8061012f6000396000f3fe608060405234801561001057600080fd5b50600436106100625760003560e01c80635a47bb3f14610067578063a0a1d6351461007c578063a0c1f15e1461008f578063bad9e092146100bf578063e9d337b8146100ed578063f4b9fa7514610100575b600080fd5b61007a610075366004610416565b610113565b005b61007a61008a366004610416565b6102d2565b6001546100a2906001600160a01b031681565b6040516001600160a01b0390911681526020015b60405180910390f35b6100df6100cd36600461042f565b60036020526000908152604090205481565b6040519081526020016100b6565b6002546100a2906001600160a01b031681565b6000546100a2906001600160a01b031681565b336000908152600360205260409020548111156101885760405162461bcd60e51b815260206004820152602860248201527f596f752063616e6e6f74207769746864726177206d6f7265207468616e206465604482015267706f73697465642160c01b60648201526084015b60405180910390fd5b60015460405163db006a7560e01b8152600481018390526001600160a01b039091169063db006a7590602401600060405180830381600087803b1580156101ce57600080fd5b505af11580156101e2573d6000803e3d6000fd5b50506000546040516323b872dd60e01b8152306004820152336024820152604481018590526001600160a01b0390911692506323b872dd91506064016020604051808303816000875af115801561023d573d6000803e3d6000fd5b505050506040513d601f19601f82011682018060405250810190610261919061045f565b6102a45760405162461bcd60e51b8152602060048201526014602482015273444149205472616e73666572206661696c65642160601b604482015260640161017f565b336000908152600360205260409020546102bf908290610481565b3360009081526003602052604090205550565b33600081815260036020526040808220849055905490516323b872dd60e01b81526004810192909252306024830152604482018390526001600160a01b0316906323b872dd906064016020604051808303816000875af115801561033a573d6000803e3d6000fd5b505050506040513d601f19601f8201168201806040525081019061035e919061045f565b6103a15760405162461bcd60e51b8152602060048201526014602482015273444149205472616e73666572206661696c65642160601b604482015260640161017f565b60025460008054604051636968703360e11b81526001600160a01b0391821660048201526024810185905260448101929092529091169063d2d0e06690606401600060405180830381600087803b1580156103fb57600080fd5b505af115801561040f573d6000803e3d6000fd5b5050505050565b60006020828403121561042857600080fd5b5035919050565b60006020828403121561044157600080fd5b81356001600160a01b038116811461045857600080fd5b9392505050565b60006020828403121561047157600080fd5b8151801515811461045857600080fd5b6000828210156104a157634e487b7160e01b600052601160045260246000fd5b50039056fea26469706673582212200321241f7fe6b21def7ce25ed8ccc421e3a141a7085af2f00852f9d7e08ce8f964736f6c634300080b0033",
  "bytecodeSha1": "a697e8fa9b4011ab0eb982a5bbb8415830a12236",
  "compiler": {
    "evm_version": "istanbul",
    "optimizer": {
      "enabled": true,
      "runs": 200
    },
    "version": "0.8.11+commit.d7f03943"
  },
  "contractName": "AaveExample",
  "language": "Solidity",
  "natspec": {
    "kind": "dev",
    "methods": {},
    "version": 1
  },
  "opcodes": "PUSH1 0x80 PUSH1 0x40 MSTORE CALLVALUE DUP1 ISZERO PUSH2 0x10 JUMPI PUSH1 0x0 DUP1 REVERT JUMPDEST POP PUSH1 0x4 CALLDATASIZE LT PUSH2 0x62 JUMPI PUSH1 0x0 CALLDATALOAD PUSH1 0xE0 SHR DUP1 PUSH4 0x5A47BB3F EQ PUSH2 0x67 JUMPI DUP1 PUSH4 0xA0A1D635 EQ PUSH2 0x7C JUMPI DUP1 PUSH4 0xA0C1F15E EQ PUSH2 0x8F JUMPI DUP1 PUSH4 0xBAD9E092 EQ PUSH2 0xBF JUMPI DUP1 PUSH4 0xE9D337B8 EQ PUSH2 0xED JUMPI DUP1 PUSH4 0xF4B9FA75 EQ PUSH2 0x100 JUMPI JUMPDEST PUSH1 0x0 DUP1 REVERT JUMPDEST PUSH2 0x7A PUSH2 0x75 CALLDATASIZE PUSH1 0x4 PUSH2 0x416 JUMP JUMPDEST PUSH2 0x113 JUMP JUMPDEST STOP JUMPDEST PUSH2 0x7A PUSH2 0x8A CALLDATASIZE PUSH1 0x4 PUSH2 0x416 JUMP JUMPDEST PUSH2 0x2D2 JUMP JUMPDEST PUSH1 0x1 SLOAD PUSH2 0xA2 SWAP1 PUSH1 0x1 PUSH1 0x1 PUSH1 0xA0 SHL SUB AND DUP2 JUMP JUMPDEST PUSH1 0x40 MLOAD PUSH1 0x1 PUSH1 0x1 PUSH1 0xA0 SHL SUB SWAP1 SWAP2 AND DUP2 MSTORE PUSH1 0x20 ADD JUMPDEST PUSH1 0x40 MLOAD DUP1 SWAP2 SUB SWAP1 RETURN JUMPDEST PUSH2 0xDF PUSH2 0xCD CALLDATASIZE PUSH1 0x4 PUSH2 0x42F JUMP JUMPDEST PUSH1 0x3 PUSH1 0x20 MSTORE PUSH1 0x0 SWAP1 DUP2 MSTORE PUSH1 0x40 SWAP1 KECCAK256 SLOAD DUP2 JUMP JUMPDEST PUSH1 0x40 MLOAD SWAP1 DUP2 MSTORE PUSH1 0x20 ADD PUSH2 0xB6 JUMP JUMPDEST PUSH1 0x2 SLOAD PUSH2 0xA2 SWAP1 PUSH1 0x1 PUSH1 0x1 PUSH1 0xA0 SHL SUB AND DUP2 JUMP JUMPDEST PUSH1 0x0 SLOAD PUSH2 0xA2 SWAP1 PUSH1 0x1 PUSH1 0x1 PUSH1 0xA0 SHL SUB AND DUP2 JUMP JUMPDEST CALLER PUSH1 0x0 SWAP1 DUP2 MSTORE PUSH1 0x3 PUSH1 0x20 MSTORE PUSH1 0x40 SWAP1 KECCAK256 SLOAD DUP2 GT ISZERO PUSH2 0x188 JUMPI PUSH1 0x40 MLOAD PUSH3 0x461BCD PUSH1 0xE5 SHL DUP2 MSTORE PUSH1 0x20 PUSH1 0x4 DUP3 ADD MSTORE PUSH1 0x28 PUSH1 0x24 DUP3 ADD MSTORE PUSH32 0x596F752063616E6E6F74207769746864726177206D6F7265207468616E206465 PUSH1 0x44 DUP3 ADD MSTORE PUSH8 0x706F736974656421 PUSH1 0xC0 SHL PUSH1 0x64 DUP3 ADD MSTORE PUSH1 0x84 ADD JUMPDEST PUSH1 0x40 MLOAD DUP1 SWAP2 SUB SWAP1 REVERT JUMPDEST PUSH1 0x1 SLOAD PUSH1 0x40 MLOAD PUSH4 0xDB006A75 PUSH1 0xE0 SHL DUP2 MSTORE PUSH1 0x4 DUP2 ADD DUP4 SWAP1 MSTORE PUSH1 0x1 PUSH1 0x1 PUSH1 0xA0 SHL SUB SWAP1 SWAP2 AND SWAP1 PUSH4 0xDB006A75 SWAP1 PUSH1 0x24 ADD PUSH1 0x0 PUSH1 0x40 MLOAD DUP1 DUP4 SUB DUP2 PUSH1 0x0 DUP8 DUP1 EXTCODESIZE ISZERO DUP1 ISZERO PUSH2 0x1CE JUMPI PUSH1 0x0 DUP1 REVERT JUMPDEST POP GAS CALL ISZERO DUP1 ISZERO PUSH2 0x1E2 JUMPI RETURNDATASIZE PUSH1 0x0 DUP1 RETURNDATACOPY RETURNDATASIZE PUSH1 0x0 REVERT JUMPDEST POP POP PUSH1 0x0 SLOAD PUSH1 0x40 MLOAD PUSH4 0x23B872DD PUSH1 0xE0 SHL DUP2 MSTORE ADDRESS PUSH1 0x4 DUP3 ADD MSTORE CALLER PUSH1 0x24 DUP3 ADD MSTORE PUSH1 0x44 DUP2 ADD DUP6 SWAP1 MSTORE PUSH1 0x1 PUSH1 0x1 PUSH1 0xA0 SHL SUB SWAP1 SWAP2 AND SWAP3 POP PUSH4 0x23B872DD SWAP2 POP PUSH1 0x64 ADD PUSH1 0x20 PUSH1 0x40 MLOAD DUP1 DUP4 SUB DUP2 PUSH1 0x0 DUP8 GAS CALL ISZERO DUP1 ISZERO PUSH2 0x23D JUMPI RETURNDATASIZE PUSH1 0x0 DUP1 RETURNDATACOPY RETURNDATASIZE PUSH1 0x0 REVERT JUMPDEST POP POP POP POP PUSH1 0x40 MLOAD RETURNDATASIZE PUSH1 0x1F NOT PUSH1 0x1F DUP3 ADD AND DUP3 ADD DUP1 PUSH1 0x40 MSTORE POP DUP2 ADD SWAP1 PUSH2 0x261 SWAP2 SWAP1 PUSH2 0x45F JUMP JUMPDEST PUSH2 0x2A4 JUMPI PUSH1 0x40 MLOAD PUSH3 0x461BCD PUSH1 0xE5 SHL DUP2 MSTORE PUSH1 0x20 PUSH1 0x4 DUP3 ADD MSTORE PUSH1 0x14 PUSH1 0x24 DUP3 ADD MSTORE PUSH20 0x444149205472616E73666572206661696C656421 PUSH1 0x60 SHL PUSH1 0x44 DUP3 ADD MSTORE PUSH1 0x64 ADD PUSH2 0x17F JUMP JUMPDEST CALLER PUSH1 0x0 SWAP1 DUP2 MSTORE PUSH1 0x3 PUSH1 0x20 MSTORE PUSH1 0x40 SWAP1 KECCAK256 SLOAD PUSH2 0x2BF SWAP1 DUP3 SWAP1 PUSH2 0x481 JUMP JUMPDEST CALLER PUSH1 0x0 SWAP1 DUP2 MSTORE PUSH1 0x3 PUSH1 0x20 MSTORE PUSH1 0x40 SWAP1 KECCAK256 SSTORE POP JUMP JUMPDEST CALLER PUSH1 0x0 DUP2 DUP2 MSTORE PUSH1 0x3 PUSH1 0x20 MSTORE PUSH1 0x40 DUP1 DUP3 KECCAK256 DUP5 SWAP1 SSTORE SWAP1 SLOAD SWAP1 MLOAD PUSH4 0x23B872DD PUSH1 0xE0 SHL DUP2 MSTORE PUSH1 0x4 DUP2 ADD SWAP3 SWAP1 SWAP3 MSTORE ADDRESS PUSH1 0x24 DUP4 ADD MSTORE PUSH1 0x44 DUP3 ADD DUP4 SWAP1 MSTORE PUSH1 0x1 PUSH1 0x1 PUSH1 0xA0 SHL SUB AND SWAP1 PUSH4 0x23B872DD SWAP1 PUSH1 0x64 ADD PUSH1 0x20 PUSH1 0x40 MLOAD DUP1 DUP4 SUB DUP2 PUSH1 0x0 DUP8 GAS CALL ISZERO DUP1 ISZERO PUSH2 0x33A JUMPI RETURNDATASIZE PUSH1 0x0 DUP1 RETURNDATACOPY RETURNDATASIZE PUSH1 0x0 REVERT JUMPDEST POP POP POP POP PUSH1 0x40 MLOAD RETURNDATASIZE PUSH1 0x1F NOT PUSH1 0x1F DUP3 ADD AND DUP3 ADD DUP1 PUSH1 0x40 MSTORE POP DUP2 ADD SWAP1 PUSH2 0x35E SWAP2 SWAP1 PUSH2 0x45F JUMP JUMPDEST PUSH2 0x3A1 JUMPI PUSH1 0x40 MLOAD PUSH3 0x461BCD PUSH1 0xE5 SHL DUP2 MSTORE PUSH1 0x20 PUSH1 0x4 DUP3 ADD MSTORE PUSH1 0x14 PUSH1 0x24 DUP3 ADD MSTORE PUSH20 0x444149205472616E73666572206661696C656421 PUSH1 0x60 SHL PUSH1 0x44 DUP3 ADD MSTORE PUSH1 0x64 ADD PUSH2 0x17F JUMP JUMPDEST PUSH1 0x2 SLOAD PUSH1 0x0 DUP1 SLOAD PUSH1 0x40 MLOAD PUSH4 0x69687033 PUSH1 0xE1 SHL DUP2 MSTORE PUSH1 0x1 PUSH1 0x1 PUSH1 0xA0 SHL SUB SWAP2 DUP3 AND PUSH1 0x4 DUP3 ADD MSTORE PUSH1 0x24 DUP2 ADD DUP6 SWAP1 MSTORE PUSH1 0x44 DUP2 ADD SWAP3 SWAP1 SWAP3 MSTORE SWAP1 SWAP2 AND SWAP1 PUSH4 0xD2D0E066 SWAP1 PUSH1 0x64 ADD PUSH1 0x0 PUSH1 0x40 MLOAD DUP1 DUP4 SUB DUP2 PUSH1 0x0 DUP8 DUP1 EXTCODESIZE ISZERO DUP1 ISZERO PUSH2 0x3FB JUMPI PUSH1 0x0 DUP1 REVERT JUMPDEST POP GAS CALL ISZERO DUP1 ISZERO PUSH2 0x40F JUMPI RETURNDATASIZE PUSH1 0x0 DUP1 RETURNDATACOPY RETURNDATASIZE PUSH1 0x0 REVERT JUMPDEST POP POP POP POP POP JUMP JUMPDEST PUSH1 0x0 PUSH1 0x20 DUP3 DUP5 SUB SLT ISZERO PUSH2 0x428 JUMPI PUSH1 0x0 DUP1 REVERT JUMPDEST POP CALLDATALOAD SWAP2 SWAP1 POP JUMP JUMPDEST PUSH1 0x0 PUSH1 0x20 DUP3 DUP5 SUB SLT ISZERO PUSH2 0x441 JUMPI PUSH1 0x0 DUP1 REVERT JUMPDEST DUP2 CALLDATALOAD PUSH1 0x1 PUSH1 0x1 PUSH1 0xA0 SHL SUB DUP2 AND DUP2 EQ PUSH2 0x458 JUMPI PUSH1 0x0 DUP1 REVERT JUMPDEST SWAP4 SWAP3 POP POP POP JUMP JUMPDEST PUSH1 0x0 PUSH1 0x20 DUP3 DUP5 SUB SLT ISZERO PUSH2 0x471 JUMPI PUSH1 0x0 DUP1 REVERT JUMPDEST DUP2 MLOAD DUP1 ISZERO ISZERO DUP2 EQ PUSH2 0x458 JUMPI PUSH1 0x0 DUP1 REVERT JUMPDEST PUSH1 0x0 DUP3 DUP3 LT ISZERO PUSH2 0x4A1 JUMPI PUSH4 0x4E487B71 PUSH1 0xE0 SHL PUSH1 0x0 MSTORE PUSH1 0x11 PUSH1 0x4 MSTORE PUSH1 0x24 PUSH1 0x0 REVERT JUMPDEST POP SUB SWAP1 JUMP INVALID LOG2 PUSH5 0x6970667358 0x22 SLT KECCAK256 SUB 0x21 0x24 0x1F PUSH32 0xE6B21DEF7CE25ED8CCC421E3A141A7085AF2F00852F9D7E08CE8F964736F6C63 NUMBER STOP ADDMOD SIGNEXTEND STOP CALLER ",
  "sha1": "a11c621c7ad3ec5e44d9a92589a1b2a328b3770a",
  "source": "pragma solidity ^0.8.0;\n\nimport \"@openzeppelin/contracts/token/ERC20/IERC20.sol\";\n\ninterface IaToken {\n    function balanceOf(address _user) external view returns (uint256);\n\n    function redeem(uint256 _amount) external;\n}\n\ninterface IAaveLendingPool {\n    function deposit(\n        address _reserve,\n        uint256 _amount,\n        uint16 _referralCode\n    ) external;\n}\n\ncontract AaveExample {\n    IERC20 public dai = IERC20(0xFf795577d9AC8bD7D90Ee22b6C1703490b6512FD);\n    IaToken public aToken = IaToken(0x58AD4cB396411B691A9AAb6F74545b2C5217FE6a);\n    IAaveLendingPool public aaveLendingPool =\n        IAaveLendingPool(0x580D4Fdc4BF8f9b5ae2fb9225D584fED4AD5375c);\n\n    mapping(address => uint256) public userDepositedDai;\n\n    constructor() public {\n        dai.approve(address(aaveLendingPool), type(uint256).max);\n    }\n\n    function userDepositDai(uint256 _amountInDai) external {\n        userDepositedDai[msg.sender] = _amountInDai;\n        require(\n            dai.transferFrom(msg.sender, address(this), _amountInDai),\n            \"DAI Transfer failed!\"\n        );\n        aaveLendingPool.deposit(address(dai), _amountInDai, 0);\n    }\n\n    function userWithdrawDai(uint256 _amountInDai) external {\n        require(\n            userDepositedDai[msg.sender] >= _amountInDai,\n            \"You cannot withdraw more than deposited!\"\n        );\n\n        aToken.redeem(_amountInDai);\n        require(\n            dai.transferFrom(address(this), msg.sender, _amountInDai),\n            \"DAI Transfer failed!\"\n        );\n\n        userDepositedDai[msg.sender] =\n            userDepositedDai[msg.sender] -\n            _amountInDai;\n    }\n}\n",
  "sourcePath": "contracts/AaveExample.sol",
  "type": "contract"
}