{
  "abi": [
    {
      "anonymous": false,
      "inputs": [
        {
          "indexed": false,
          "internalType": "string",
          "name": "",
          "type": "string"
        },
        {
          "indexed": false,
          "internalType": "uint256",
          "name": "",
          "type": "uint256"
        }
      ],
      "name": "MyLog",
      "type": "event"
    },
    {
      "anonymous": false,
      "inputs": [
        {
          "indexed": true,
          "internalType": "address",
          "name": "previousOwner",
          "type": "address"
        },
        {
          "indexed": true,
          "internalType": "address",
          "name": "newOwner",
          "type": "address"
        }
      ],
      "name": "OwnershipTransferred",
      "type": "event"
    },
    {
      "inputs": [],
      "name": "drainAllFundsETH",
      "outputs": [],
      "stateMutability": "nonpayable",
      "type": "function"
    },
    {
      "inputs": [
        {
          "internalType": "address",
          "name": "_token_address",
          "type": "address"
        }
      ],
      "name": "drainAllFundscETH",
      "outputs": [],
      "stateMutability": "nonpayable",
      "type": "function"
    },
    {
      "inputs": [],
      "name": "owner",
      "outputs": [
        {
          "internalType": "address",
          "name": "",
          "type": "address"
        }
      ],
      "stateMutability": "view",
      "type": "function"
    },
    {
      "inputs": [
        {
          "internalType": "uint256",
          "name": "amount",
          "type": "uint256"
        },
        {
          "internalType": "bool",
          "name": "redeemType",
          "type": "bool"
        },
        {
          "internalType": "address",
          "name": "_cErc20Contract",
          "type": "address"
        }
      ],
      "name": "redeemCErc20Tokens",
      "outputs": [
        {
          "internalType": "bool",
          "name": "",
          "type": "bool"
        }
      ],
      "stateMutability": "nonpayable",
      "type": "function"
    },
    {
      "inputs": [
        {
          "internalType": "uint256",
          "name": "amount",
          "type": "uint256"
        },
        {
          "internalType": "bool",
          "name": "redeemType",
          "type": "bool"
        },
        {
          "internalType": "address",
          "name": "_cEtherContract",
          "type": "address"
        }
      ],
      "name": "redeemCEth",
      "outputs": [
        {
          "internalType": "bool",
          "name": "",
          "type": "bool"
        }
      ],
      "stateMutability": "nonpayable",
      "type": "function"
    },
    {
      "inputs": [],
      "name": "renounceOwnership",
      "outputs": [],
      "stateMutability": "nonpayable",
      "type": "function"
    },
    {
      "inputs": [
        {
          "internalType": "address",
          "name": "_erc20Contract",
          "type": "address"
        },
        {
          "internalType": "address",
          "name": "_cErc20Contract",
          "type": "address"
        },
        {
          "internalType": "uint256",
          "name": "_numTokensToSupply",
          "type": "uint256"
        }
      ],
      "name": "supplyErc20ToCompound",
      "outputs": [
        {
          "internalType": "uint256",
          "name": "",
          "type": "uint256"
        }
      ],
      "stateMutability": "nonpayable",
      "type": "function"
    },
    {
      "inputs": [
        {
          "internalType": "address payable",
          "name": "_cEtherContract",
          "type": "address"
        }
      ],
      "name": "supplyEthToCompound",
      "outputs": [
        {
          "internalType": "bool",
          "name": "",
          "type": "bool"
        }
      ],
      "stateMutability": "payable",
      "type": "function"
    },
    {
      "inputs": [
        {
          "internalType": "address",
          "name": "newOwner",
          "type": "address"
        }
      ],
      "name": "transferOwnership",
      "outputs": [],
      "stateMutability": "nonpayable",
      "type": "function"
    },
    {
      "stateMutability": "payable",
      "type": "receive"
    }
  ],
  "bytecode": "608060405234801561001057600080fd5b5061001a3361001f565b61006f565b600080546001600160a01b038381166001600160a01b0319831681178455604051919092169283917f8be0079c531659141344cd1fd0a4f28419497f9722a3daafe3b4186f6b6457e09190a35050565b610c088061007e6000396000f3fe60806040526004361061008a5760003560e01c80638da5cb5b116100595780638da5cb5b14610115578063a82ffd881461013d578063c6fb501414610160578063d0ace48e14610160578063f2fde38b1461018057600080fd5b80633616e3b5146100965780633b7ba25f146100ad578063715018a6146100e057806372e14d5c146100f557600080fd5b3661009157005b600080fd5b3480156100a257600080fd5b506100ab6101a0565b005b3480156100b957600080fd5b506100cd6100c8366004610a92565b610269565b6040519081526020015b60405180910390f35b3480156100ec57600080fd5b506100ab6104f1565b34801561010157600080fd5b506100ab610110366004610ad3565b610527565b34801561012157600080fd5b506000546040516001600160a01b0390911681526020016100d7565b61015061014b366004610ad3565b610639565b60405190151581526020016100d7565b34801561016c57600080fd5b5061015061017b366004610b05565b610836565b34801561018c57600080fd5b506100ab61019b366004610ad3565b610992565b6000546001600160a01b031633146101d35760405162461bcd60e51b81526004016101ca90610b47565b60405180910390fd5b6040516000908190339047908381818185875af1925050503d8060008114610217576040519150601f19603f3d011682016040523d82523d6000602084013e61021c565b606091505b5091509150816102655760405162461bcd60e51b81526020600482015260146024820152732330b4b632b2103a379039b2b7321022ba3432b960611b60448201526064016101ca565b5050565b60008084905060008490506000816001600160a01b031663bd6d894d6040518163ffffffff1660e01b81526004016020604051808303816000875af11580156102b6573d6000803e3d6000fd5b505050506040513d601f19601f820116820180604052508101906102da9190610b7c565b9050600080516020610bb38339815191528160405161033391906040808252601b908201527f45786368616e6765205261746520287363616c6564207570293a2000000000006060820152602081019190915260800190565b60405180910390a16000826001600160a01b031663ae9d70b06040518163ffffffff1660e01b81526004016020604051808303816000875af115801561037d573d6000803e3d6000fd5b505050506040513d601f19601f820116820180604052508101906103a19190610b7c565b9050600080516020610bb3833981519152816040516103fa919060408082526018908201527f537570706c7920526174653a20287363616c65642075702900000000000000006060820152602081019190915260800190565b60405180910390a160405163095ea7b360e01b81526001600160a01b0388811660048301526024820188905285169063095ea7b3906044016020604051808303816000875af1158015610451573d6000803e3d6000fd5b505050506040513d601f19601f820116820180604052508101906104759190610b95565b5060405163140e25ad60e31b8152600481018790526000906001600160a01b0385169063a0712d68906024016020604051808303816000875af11580156104c0573d6000803e3d6000fd5b505050506040513d601f19601f820116820180604052508101906104e49190610b7c565b9998505050505050505050565b6000546001600160a01b0316331461051b5760405162461bcd60e51b81526004016101ca90610b47565b6105256000610a2d565b565b6000546001600160a01b031633146105515760405162461bcd60e51b81526004016101ca90610b47565b6040516370a0823160e01b815230600482015281906001600160a01b0382169063a9059cbb90339083906370a0823190602401602060405180830381865afa1580156105a1573d6000803e3d6000fd5b505050506040513d601f19601f820116820180604052508101906105c59190610b7c565b6040516001600160e01b031960e085901b1681526001600160a01b03909216600483015260248201526044016020604051808303816000875af1158015610610573d6000803e3d6000fd5b505050506040513d601f19601f820116820180604052508101906106349190610b95565b505050565b6000808290506000816001600160a01b031663bd6d894d6040518163ffffffff1660e01b81526004016020604051808303816000875af1158015610681573d6000803e3d6000fd5b505050506040513d601f19601f820116820180604052508101906106a59190610b7c565b9050600080516020610bb38339815191528160405161070a919060408082526023908201527f45786368616e6765205261746520287363616c656420757020627920316531386060820152620149d160ed1b6080820152602081019190915260a00190565b60405180910390a16000826001600160a01b031663ae9d70b06040518163ffffffff1660e01b81526004016020604051808303816000875af1158015610754573d6000803e3d6000fd5b505050506040513d601f19601f820116820180604052508101906107789190610b7c565b6040805181815260209181018290527f537570706c7920526174653a20287363616c65642075702062792031653138296060820152908101829052909150600080516020610bb38339815191529060800160405180910390a1826001600160a01b0316631249c58b346203d090906040518363ffffffff1660e01b81526004016000604051808303818589803b15801561081157600080fd5b5088f1158015610825573d6000803e3d6000fd5b5060019a9950505050505050505050565b60008181600185151514156108b75760405163db006a7560e01b8152600481018790526001600160a01b0383169063db006a75906024016020604051808303816000875af115801561088c573d6000803e3d6000fd5b505050506040513d601f19601f820116820180604052508101906108b09190610b7c565b9050610925565b60405163852a12e360e01b8152600481018790526001600160a01b0383169063852a12e3906024016020604051808303816000875af11580156108fe573d6000803e3d6000fd5b505050506040513d601f19601f820116820180604052508101906109229190610b7c565b90505b604080518181526024818301527f49662074686973206973206e6f7420302c2074686572652077617320616e2065606082015263393937b960e11b6080820152602081018390529051600080516020610bb38339815191529181900360a00190a150600195945050505050565b6000546001600160a01b031633146109bc5760405162461bcd60e51b81526004016101ca90610b47565b6001600160a01b038116610a215760405162461bcd60e51b815260206004820152602660248201527f4f776e61626c653a206e6577206f776e657220697320746865207a65726f206160448201526564647265737360d01b60648201526084016101ca565b610a2a81610a2d565b50565b600080546001600160a01b038381166001600160a01b0319831681178455604051919092169283917f8be0079c531659141344cd1fd0a4f28419497f9722a3daafe3b4186f6b6457e09190a35050565b6001600160a01b0381168114610a2a57600080fd5b600080600060608486031215610aa757600080fd5b8335610ab281610a7d565b92506020840135610ac281610a7d565b929592945050506040919091013590565b600060208284031215610ae557600080fd5b8135610af081610a7d565b9392505050565b8015158114610a2a57600080fd5b600080600060608486031215610b1a57600080fd5b833592506020840135610b2c81610af7565b91506040840135610b3c81610a7d565b809150509250925092565b6020808252818101527f4f776e61626c653a2063616c6c6572206973206e6f7420746865206f776e6572604082015260600190565b600060208284031215610b8e57600080fd5b5051919050565b600060208284031215610ba757600080fd5b8151610af081610af756fe8d1cced004452bd270777a8c670f9f7e7c4fdde56f2db331fe289d39dc2624ada264697066735822122045b6d3d152a33becd7108e6071adb72a563ce16a3179489bde2a026ae06bb27264736f6c634300080b0033",
  "bytecodeSha1": "c5425ae46615412373f6e7cd3997d0b25a721445",
  "compiler": {
    "evm_version": "istanbul",
    "optimizer": {
      "enabled": true,
      "runs": 200
    },
    "version": "0.8.11+commit.d7f03943"
  },
  "contractName": "CompoundInteractionContract",
  "language": "Solidity",
  "natspec": {
    "kind": "dev",
    "methods": {
      "owner()": {
        "details": "Returns the address of the current owner."
      },
      "renounceOwnership()": {
        "details": "Leaves the contract without owner. It will not be possible to call `onlyOwner` functions anymore. Can only be called by the current owner. NOTE: Renouncing ownership will leave the contract without an owner, thereby removing any functionality that is only available to the owner."
      },
      "transferOwnership(address)": {
        "details": "Transfers ownership of the contract to a new account (`newOwner`). Can only be called by the current owner."
      }
    },
    "version": 1
  },
  "opcodes": "PUSH1 0x80 PUSH1 0x40 MSTORE PUSH1 0x4 CALLDATASIZE LT PUSH2 0x8A JUMPI PUSH1 0x0 CALLDATALOAD PUSH1 0xE0 SHR DUP1 PUSH4 0x8DA5CB5B GT PUSH2 0x59 JUMPI DUP1 PUSH4 0x8DA5CB5B EQ PUSH2 0x115 JUMPI DUP1 PUSH4 0xA82FFD88 EQ PUSH2 0x13D JUMPI DUP1 PUSH4 0xC6FB5014 EQ PUSH2 0x160 JUMPI DUP1 PUSH4 0xD0ACE48E EQ PUSH2 0x160 JUMPI DUP1 PUSH4 0xF2FDE38B EQ PUSH2 0x180 JUMPI PUSH1 0x0 DUP1 REVERT JUMPDEST DUP1 PUSH4 0x3616E3B5 EQ PUSH2 0x96 JUMPI DUP1 PUSH4 0x3B7BA25F EQ PUSH2 0xAD JUMPI DUP1 PUSH4 0x715018A6 EQ PUSH2 0xE0 JUMPI DUP1 PUSH4 0x72E14D5C EQ PUSH2 0xF5 JUMPI PUSH1 0x0 DUP1 REVERT JUMPDEST CALLDATASIZE PUSH2 0x91 JUMPI STOP JUMPDEST PUSH1 0x0 DUP1 REVERT JUMPDEST CALLVALUE DUP1 ISZERO PUSH2 0xA2 JUMPI PUSH1 0x0 DUP1 REVERT JUMPDEST POP PUSH2 0xAB PUSH2 0x1A0 JUMP JUMPDEST STOP JUMPDEST CALLVALUE DUP1 ISZERO PUSH2 0xB9 JUMPI PUSH1 0x0 DUP1 REVERT JUMPDEST POP PUSH2 0xCD PUSH2 0xC8 CALLDATASIZE PUSH1 0x4 PUSH2 0xA92 JUMP JUMPDEST PUSH2 0x269 JUMP JUMPDEST PUSH1 0x40 MLOAD SWAP1 DUP2 MSTORE PUSH1 0x20 ADD JUMPDEST PUSH1 0x40 MLOAD DUP1 SWAP2 SUB SWAP1 RETURN JUMPDEST CALLVALUE DUP1 ISZERO PUSH2 0xEC JUMPI PUSH1 0x0 DUP1 REVERT JUMPDEST POP PUSH2 0xAB PUSH2 0x4F1 JUMP JUMPDEST CALLVALUE DUP1 ISZERO PUSH2 0x101 JUMPI PUSH1 0x0 DUP1 REVERT JUMPDEST POP PUSH2 0xAB PUSH2 0x110 CALLDATASIZE PUSH1 0x4 PUSH2 0xAD3 JUMP JUMPDEST PUSH2 0x527 JUMP JUMPDEST CALLVALUE DUP1 ISZERO PUSH2 0x121 JUMPI PUSH1 0x0 DUP1 REVERT JUMPDEST POP PUSH1 0x0 SLOAD PUSH1 0x40 MLOAD PUSH1 0x1 PUSH1 0x1 PUSH1 0xA0 SHL SUB SWAP1 SWAP2 AND DUP2 MSTORE PUSH1 0x20 ADD PUSH2 0xD7 JUMP JUMPDEST PUSH2 0x150 PUSH2 0x14B CALLDATASIZE PUSH1 0x4 PUSH2 0xAD3 JUMP JUMPDEST PUSH2 0x639 JUMP JUMPDEST PUSH1 0x40 MLOAD SWAP1 ISZERO ISZERO DUP2 MSTORE PUSH1 0x20 ADD PUSH2 0xD7 JUMP JUMPDEST CALLVALUE DUP1 ISZERO PUSH2 0x16C JUMPI PUSH1 0x0 DUP1 REVERT JUMPDEST POP PUSH2 0x150 PUSH2 0x17B CALLDATASIZE PUSH1 0x4 PUSH2 0xB05 JUMP JUMPDEST PUSH2 0x836 JUMP JUMPDEST CALLVALUE DUP1 ISZERO PUSH2 0x18C JUMPI PUSH1 0x0 DUP1 REVERT JUMPDEST POP PUSH2 0xAB PUSH2 0x19B CALLDATASIZE PUSH1 0x4 PUSH2 0xAD3 JUMP JUMPDEST PUSH2 0x992 JUMP JUMPDEST PUSH1 0x0 SLOAD PUSH1 0x1 PUSH1 0x1 PUSH1 0xA0 SHL SUB AND CALLER EQ PUSH2 0x1D3 JUMPI PUSH1 0x40 MLOAD PUSH3 0x461BCD PUSH1 0xE5 SHL DUP2 MSTORE PUSH1 0x4 ADD PUSH2 0x1CA SWAP1 PUSH2 0xB47 JUMP JUMPDEST PUSH1 0x40 MLOAD DUP1 SWAP2 SUB SWAP1 REVERT JUMPDEST PUSH1 0x40 MLOAD PUSH1 0x0 SWAP1 DUP2 SWAP1 CALLER SWAP1 SELFBALANCE SWAP1 DUP4 DUP2 DUP2 DUP2 DUP6 DUP8 GAS CALL SWAP3 POP POP POP RETURNDATASIZE DUP1 PUSH1 0x0 DUP2 EQ PUSH2 0x217 JUMPI PUSH1 0x40 MLOAD SWAP2 POP PUSH1 0x1F NOT PUSH1 0x3F RETURNDATASIZE ADD AND DUP3 ADD PUSH1 0x40 MSTORE RETURNDATASIZE DUP3 MSTORE RETURNDATASIZE PUSH1 0x0 PUSH1 0x20 DUP5 ADD RETURNDATACOPY PUSH2 0x21C JUMP JUMPDEST PUSH1 0x60 SWAP2 POP JUMPDEST POP SWAP2 POP SWAP2 POP DUP2 PUSH2 0x265 JUMPI PUSH1 0x40 MLOAD PUSH3 0x461BCD PUSH1 0xE5 SHL DUP2 MSTORE PUSH1 0x20 PUSH1 0x4 DUP3 ADD MSTORE PUSH1 0x14 PUSH1 0x24 DUP3 ADD MSTORE PUSH20 0x2330B4B632B2103A379039B2B7321022BA3432B9 PUSH1 0x61 SHL PUSH1 0x44 DUP3 ADD MSTORE PUSH1 0x64 ADD PUSH2 0x1CA JUMP JUMPDEST POP POP JUMP JUMPDEST PUSH1 0x0 DUP1 DUP5 SWAP1 POP PUSH1 0x0 DUP5 SWAP1 POP PUSH1 0x0 DUP2 PUSH1 0x1 PUSH1 0x1 PUSH1 0xA0 SHL SUB AND PUSH4 0xBD6D894D PUSH1 0x40 MLOAD DUP2 PUSH4 0xFFFFFFFF AND PUSH1 0xE0 SHL DUP2 MSTORE PUSH1 0x4 ADD PUSH1 0x20 PUSH1 0x40 MLOAD DUP1 DUP4 SUB DUP2 PUSH1 0x0 DUP8 GAS CALL ISZERO DUP1 ISZERO PUSH2 0x2B6 JUMPI RETURNDATASIZE PUSH1 0x0 DUP1 RETURNDATACOPY RETURNDATASIZE PUSH1 0x0 REVERT JUMPDEST POP POP POP POP PUSH1 0x40 MLOAD RETURNDATASIZE PUSH1 0x1F NOT PUSH1 0x1F DUP3 ADD AND DUP3 ADD DUP1 PUSH1 0x40 MSTORE POP DUP2 ADD SWAP1 PUSH2 0x2DA SWAP2 SWAP1 PUSH2 0xB7C JUMP JUMPDEST SWAP1 POP PUSH1 0x0 DUP1 MLOAD PUSH1 0x20 PUSH2 0xBB3 DUP4 CODECOPY DUP2 MLOAD SWAP2 MSTORE DUP2 PUSH1 0x40 MLOAD PUSH2 0x333 SWAP2 SWAP1 PUSH1 0x40 DUP1 DUP3 MSTORE PUSH1 0x1B SWAP1 DUP3 ADD MSTORE PUSH32 0x45786368616E6765205261746520287363616C6564207570293A200000000000 PUSH1 0x60 DUP3 ADD MSTORE PUSH1 0x20 DUP2 ADD SWAP2 SWAP1 SWAP2 MSTORE PUSH1 0x80 ADD SWAP1 JUMP JUMPDEST PUSH1 0x40 MLOAD DUP1 SWAP2 SUB SWAP1 LOG1 PUSH1 0x0 DUP3 PUSH1 0x1 PUSH1 0x1 PUSH1 0xA0 SHL SUB AND PUSH4 0xAE9D70B0 PUSH1 0x40 MLOAD DUP2 PUSH4 0xFFFFFFFF AND PUSH1 0xE0 SHL DUP2 MSTORE PUSH1 0x4 ADD PUSH1 0x20 PUSH1 0x40 MLOAD DUP1 DUP4 SUB DUP2 PUSH1 0x0 DUP8 GAS CALL ISZERO DUP1 ISZERO PUSH2 0x37D JUMPI RETURNDATASIZE PUSH1 0x0 DUP1 RETURNDATACOPY RETURNDATASIZE PUSH1 0x0 REVERT JUMPDEST POP POP POP POP PUSH1 0x40 MLOAD RETURNDATASIZE PUSH1 0x1F NOT PUSH1 0x1F DUP3 ADD AND DUP3 ADD DUP1 PUSH1 0x40 MSTORE POP DUP2 ADD SWAP1 PUSH2 0x3A1 SWAP2 SWAP1 PUSH2 0xB7C JUMP JUMPDEST SWAP1 POP PUSH1 0x0 DUP1 MLOAD PUSH1 0x20 PUSH2 0xBB3 DUP4 CODECOPY DUP2 MLOAD SWAP2 MSTORE DUP2 PUSH1 0x40 MLOAD PUSH2 0x3FA SWAP2 SWAP1 PUSH1 0x40 DUP1 DUP3 MSTORE PUSH1 0x18 SWAP1 DUP3 ADD MSTORE PUSH32 0x537570706C7920526174653A20287363616C6564207570290000000000000000 PUSH1 0x60 DUP3 ADD MSTORE PUSH1 0x20 DUP2 ADD SWAP2 SWAP1 SWAP2 MSTORE PUSH1 0x80 ADD SWAP1 JUMP JUMPDEST PUSH1 0x40 MLOAD DUP1 SWAP2 SUB SWAP1 LOG1 PUSH1 0x40 MLOAD PUSH4 0x95EA7B3 PUSH1 0xE0 SHL DUP2 MSTORE PUSH1 0x1 PUSH1 0x1 PUSH1 0xA0 SHL SUB DUP9 DUP2 AND PUSH1 0x4 DUP4 ADD MSTORE PUSH1 0x24 DUP3 ADD DUP9 SWAP1 MSTORE DUP6 AND SWAP1 PUSH4 0x95EA7B3 SWAP1 PUSH1 0x44 ADD PUSH1 0x20 PUSH1 0x40 MLOAD DUP1 DUP4 SUB DUP2 PUSH1 0x0 DUP8 GAS CALL ISZERO DUP1 ISZERO PUSH2 0x451 JUMPI RETURNDATASIZE PUSH1 0x0 DUP1 RETURNDATACOPY RETURNDATASIZE PUSH1 0x0 REVERT JUMPDEST POP POP POP POP PUSH1 0x40 MLOAD RETURNDATASIZE PUSH1 0x1F NOT PUSH1 0x1F DUP3 ADD AND DUP3 ADD DUP1 PUSH1 0x40 MSTORE POP DUP2 ADD SWAP1 PUSH2 0x475 SWAP2 SWAP1 PUSH2 0xB95 JUMP JUMPDEST POP PUSH1 0x40 MLOAD PUSH4 0x140E25AD PUSH1 0xE3 SHL DUP2 MSTORE PUSH1 0x4 DUP2 ADD DUP8 SWAP1 MSTORE PUSH1 0x0 SWAP1 PUSH1 0x1 PUSH1 0x1 PUSH1 0xA0 SHL SUB DUP6 AND SWAP1 PUSH4 0xA0712D68 SWAP1 PUSH1 0x24 ADD PUSH1 0x20 PUSH1 0x40 MLOAD DUP1 DUP4 SUB DUP2 PUSH1 0x0 DUP8 GAS CALL ISZERO DUP1 ISZERO PUSH2 0x4C0 JUMPI RETURNDATASIZE PUSH1 0x0 DUP1 RETURNDATACOPY RETURNDATASIZE PUSH1 0x0 REVERT JUMPDEST POP POP POP POP PUSH1 0x40 MLOAD RETURNDATASIZE PUSH1 0x1F NOT PUSH1 0x1F DUP3 ADD AND DUP3 ADD DUP1 PUSH1 0x40 MSTORE POP DUP2 ADD SWAP1 PUSH2 0x4E4 SWAP2 SWAP1 PUSH2 0xB7C JUMP JUMPDEST SWAP10 SWAP9 POP POP POP POP POP POP POP POP POP JUMP JUMPDEST PUSH1 0x0 SLOAD PUSH1 0x1 PUSH1 0x1 PUSH1 0xA0 SHL SUB AND CALLER EQ PUSH2 0x51B JUMPI PUSH1 0x40 MLOAD PUSH3 0x461BCD PUSH1 0xE5 SHL DUP2 MSTORE PUSH1 0x4 ADD PUSH2 0x1CA SWAP1 PUSH2 0xB47 JUMP JUMPDEST PUSH2 0x525 PUSH1 0x0 PUSH2 0xA2D JUMP JUMPDEST JUMP JUMPDEST PUSH1 0x0 SLOAD PUSH1 0x1 PUSH1 0x1 PUSH1 0xA0 SHL SUB AND CALLER EQ PUSH2 0x551 JUMPI PUSH1 0x40 MLOAD PUSH3 0x461BCD PUSH1 0xE5 SHL DUP2 MSTORE PUSH1 0x4 ADD PUSH2 0x1CA SWAP1 PUSH2 0xB47 JUMP JUMPDEST PUSH1 0x40 MLOAD PUSH4 0x70A08231 PUSH1 0xE0 SHL DUP2 MSTORE ADDRESS PUSH1 0x4 DUP3 ADD MSTORE DUP2 SWAP1 PUSH1 0x1 PUSH1 0x1 PUSH1 0xA0 SHL SUB DUP3 AND SWAP1 PUSH4 0xA9059CBB SWAP1 CALLER SWAP1 DUP4 SWAP1 PUSH4 0x70A08231 SWAP1 PUSH1 0x24 ADD PUSH1 0x20 PUSH1 0x40 MLOAD DUP1 DUP4 SUB DUP2 DUP7 GAS STATICCALL ISZERO DUP1 ISZERO PUSH2 0x5A1 JUMPI RETURNDATASIZE PUSH1 0x0 DUP1 RETURNDATACOPY RETURNDATASIZE PUSH1 0x0 REVERT JUMPDEST POP POP POP POP PUSH1 0x40 MLOAD RETURNDATASIZE PUSH1 0x1F NOT PUSH1 0x1F DUP3 ADD AND DUP3 ADD DUP1 PUSH1 0x40 MSTORE POP DUP2 ADD SWAP1 PUSH2 0x5C5 SWAP2 SWAP1 PUSH2 0xB7C JUMP JUMPDEST PUSH1 0x40 MLOAD PUSH1 0x1 PUSH1 0x1 PUSH1 0xE0 SHL SUB NOT PUSH1 0xE0 DUP6 SWAP1 SHL AND DUP2 MSTORE PUSH1 0x1 PUSH1 0x1 PUSH1 0xA0 SHL SUB SWAP1 SWAP3 AND PUSH1 0x4 DUP4 ADD MSTORE PUSH1 0x24 DUP3 ADD MSTORE PUSH1 0x44 ADD PUSH1 0x20 PUSH1 0x40 MLOAD DUP1 DUP4 SUB DUP2 PUSH1 0x0 DUP8 GAS CALL ISZERO DUP1 ISZERO PUSH2 0x610 JUMPI RETURNDATASIZE PUSH1 0x0 DUP1 RETURNDATACOPY RETURNDATASIZE PUSH1 0x0 REVERT JUMPDEST POP POP POP POP PUSH1 0x40 MLOAD RETURNDATASIZE PUSH1 0x1F NOT PUSH1 0x1F DUP3 ADD AND DUP3 ADD DUP1 PUSH1 0x40 MSTORE POP DUP2 ADD SWAP1 PUSH2 0x634 SWAP2 SWAP1 PUSH2 0xB95 JUMP JUMPDEST POP POP POP JUMP JUMPDEST PUSH1 0x0 DUP1 DUP3 SWAP1 POP PUSH1 0x0 DUP2 PUSH1 0x1 PUSH1 0x1 PUSH1 0xA0 SHL SUB AND PUSH4 0xBD6D894D PUSH1 0x40 MLOAD DUP2 PUSH4 0xFFFFFFFF AND PUSH1 0xE0 SHL DUP2 MSTORE PUSH1 0x4 ADD PUSH1 0x20 PUSH1 0x40 MLOAD DUP1 DUP4 SUB DUP2 PUSH1 0x0 DUP8 GAS CALL ISZERO DUP1 ISZERO PUSH2 0x681 JUMPI RETURNDATASIZE PUSH1 0x0 DUP1 RETURNDATACOPY RETURNDATASIZE PUSH1 0x0 REVERT JUMPDEST POP POP POP POP PUSH1 0x40 MLOAD RETURNDATASIZE PUSH1 0x1F NOT PUSH1 0x1F DUP3 ADD AND DUP3 ADD DUP1 PUSH1 0x40 MSTORE POP DUP2 ADD SWAP1 PUSH2 0x6A5 SWAP2 SWAP1 PUSH2 0xB7C JUMP JUMPDEST SWAP1 POP PUSH1 0x0 DUP1 MLOAD PUSH1 0x20 PUSH2 0xBB3 DUP4 CODECOPY DUP2 MLOAD SWAP2 MSTORE DUP2 PUSH1 0x40 MLOAD PUSH2 0x70A SWAP2 SWAP1 PUSH1 0x40 DUP1 DUP3 MSTORE PUSH1 0x23 SWAP1 DUP3 ADD MSTORE PUSH32 0x45786368616E6765205261746520287363616C65642075702062792031653138 PUSH1 0x60 DUP3 ADD MSTORE PUSH3 0x149D1 PUSH1 0xED SHL PUSH1 0x80 DUP3 ADD MSTORE PUSH1 0x20 DUP2 ADD SWAP2 SWAP1 SWAP2 MSTORE PUSH1 0xA0 ADD SWAP1 JUMP JUMPDEST PUSH1 0x40 MLOAD DUP1 SWAP2 SUB SWAP1 LOG1 PUSH1 0x0 DUP3 PUSH1 0x1 PUSH1 0x1 PUSH1 0xA0 SHL SUB AND PUSH4 0xAE9D70B0 PUSH1 0x40 MLOAD DUP2 PUSH4 0xFFFFFFFF AND PUSH1 0xE0 SHL DUP2 MSTORE PUSH1 0x4 ADD PUSH1 0x20 PUSH1 0x40 MLOAD DUP1 DUP4 SUB DUP2 PUSH1 0x0 DUP8 GAS CALL ISZERO DUP1 ISZERO PUSH2 0x754 JUMPI RETURNDATASIZE PUSH1 0x0 DUP1 RETURNDATACOPY RETURNDATASIZE PUSH1 0x0 REVERT JUMPDEST POP POP POP POP PUSH1 0x40 MLOAD RETURNDATASIZE PUSH1 0x1F NOT PUSH1 0x1F DUP3 ADD AND DUP3 ADD DUP1 PUSH1 0x40 MSTORE POP DUP2 ADD SWAP1 PUSH2 0x778 SWAP2 SWAP1 PUSH2 0xB7C JUMP JUMPDEST PUSH1 0x40 DUP1 MLOAD DUP2 DUP2 MSTORE PUSH1 0x20 SWAP2 DUP2 ADD DUP3 SWAP1 MSTORE PUSH32 0x537570706C7920526174653A20287363616C6564207570206279203165313829 PUSH1 0x60 DUP3 ADD MSTORE SWAP1 DUP2 ADD DUP3 SWAP1 MSTORE SWAP1 SWAP2 POP PUSH1 0x0 DUP1 MLOAD PUSH1 0x20 PUSH2 0xBB3 DUP4 CODECOPY DUP2 MLOAD SWAP2 MSTORE SWAP1 PUSH1 0x80 ADD PUSH1 0x40 MLOAD DUP1 SWAP2 SUB SWAP1 LOG1 DUP3 PUSH1 0x1 PUSH1 0x1 PUSH1 0xA0 SHL SUB AND PUSH4 0x1249C58B CALLVALUE PUSH3 0x3D090 SWAP1 PUSH1 0x40 MLOAD DUP4 PUSH4 0xFFFFFFFF AND PUSH1 0xE0 SHL DUP2 MSTORE PUSH1 0x4 ADD PUSH1 0x0 PUSH1 0x40 MLOAD DUP1 DUP4 SUB DUP2 DUP6 DUP10 DUP1 EXTCODESIZE ISZERO DUP1 ISZERO PUSH2 0x811 JUMPI PUSH1 0x0 DUP1 REVERT JUMPDEST POP DUP9 CALL ISZERO DUP1 ISZERO PUSH2 0x825 JUMPI RETURNDATASIZE PUSH1 0x0 DUP1 RETURNDATACOPY RETURNDATASIZE PUSH1 0x0 REVERT JUMPDEST POP PUSH1 0x1 SWAP11 SWAP10 POP POP POP POP POP POP POP POP POP POP JUMP JUMPDEST PUSH1 0x0 DUP2 DUP2 PUSH1 0x1 DUP6 ISZERO ISZERO EQ ISZERO PUSH2 0x8B7 JUMPI PUSH1 0x40 MLOAD PUSH4 0xDB006A75 PUSH1 0xE0 SHL DUP2 MSTORE PUSH1 0x4 DUP2 ADD DUP8 SWAP1 MSTORE PUSH1 0x1 PUSH1 0x1 PUSH1 0xA0 SHL SUB DUP4 AND SWAP1 PUSH4 0xDB006A75 SWAP1 PUSH1 0x24 ADD PUSH1 0x20 PUSH1 0x40 MLOAD DUP1 DUP4 SUB DUP2 PUSH1 0x0 DUP8 GAS CALL ISZERO DUP1 ISZERO PUSH2 0x88C JUMPI RETURNDATASIZE PUSH1 0x0 DUP1 RETURNDATACOPY RETURNDATASIZE PUSH1 0x0 REVERT JUMPDEST POP POP POP POP PUSH1 0x40 MLOAD RETURNDATASIZE PUSH1 0x1F NOT PUSH1 0x1F DUP3 ADD AND DUP3 ADD DUP1 PUSH1 0x40 MSTORE POP DUP2 ADD SWAP1 PUSH2 0x8B0 SWAP2 SWAP1 PUSH2 0xB7C JUMP JUMPDEST SWAP1 POP PUSH2 0x925 JUMP JUMPDEST PUSH1 0x40 MLOAD PUSH4 0x852A12E3 PUSH1 0xE0 SHL DUP2 MSTORE PUSH1 0x4 DUP2 ADD DUP8 SWAP1 MSTORE PUSH1 0x1 PUSH1 0x1 PUSH1 0xA0 SHL SUB DUP4 AND SWAP1 PUSH4 0x852A12E3 SWAP1 PUSH1 0x24 ADD PUSH1 0x20 PUSH1 0x40 MLOAD DUP1 DUP4 SUB DUP2 PUSH1 0x0 DUP8 GAS CALL ISZERO DUP1 ISZERO PUSH2 0x8FE JUMPI RETURNDATASIZE PUSH1 0x0 DUP1 RETURNDATACOPY RETURNDATASIZE PUSH1 0x0 REVERT JUMPDEST POP POP POP POP PUSH1 0x40 MLOAD RETURNDATASIZE PUSH1 0x1F NOT PUSH1 0x1F DUP3 ADD AND DUP3 ADD DUP1 PUSH1 0x40 MSTORE POP DUP2 ADD SWAP1 PUSH2 0x922 SWAP2 SWAP1 PUSH2 0xB7C JUMP JUMPDEST SWAP1 POP JUMPDEST PUSH1 0x40 DUP1 MLOAD DUP2 DUP2 MSTORE PUSH1 0x24 DUP2 DUP4 ADD MSTORE PUSH32 0x49662074686973206973206E6F7420302C2074686572652077617320616E2065 PUSH1 0x60 DUP3 ADD MSTORE PUSH4 0x393937B9 PUSH1 0xE1 SHL PUSH1 0x80 DUP3 ADD MSTORE PUSH1 0x20 DUP2 ADD DUP4 SWAP1 MSTORE SWAP1 MLOAD PUSH1 0x0 DUP1 MLOAD PUSH1 0x20 PUSH2 0xBB3 DUP4 CODECOPY DUP2 MLOAD SWAP2 MSTORE SWAP2 DUP2 SWAP1 SUB PUSH1 0xA0 ADD SWAP1 LOG1 POP PUSH1 0x1 SWAP6 SWAP5 POP POP POP POP POP JUMP JUMPDEST PUSH1 0x0 SLOAD PUSH1 0x1 PUSH1 0x1 PUSH1 0xA0 SHL SUB AND CALLER EQ PUSH2 0x9BC JUMPI PUSH1 0x40 MLOAD PUSH3 0x461BCD PUSH1 0xE5 SHL DUP2 MSTORE PUSH1 0x4 ADD PUSH2 0x1CA SWAP1 PUSH2 0xB47 JUMP JUMPDEST PUSH1 0x1 PUSH1 0x1 PUSH1 0xA0 SHL SUB DUP2 AND PUSH2 0xA21 JUMPI PUSH1 0x40 MLOAD PUSH3 0x461BCD PUSH1 0xE5 SHL DUP2 MSTORE PUSH1 0x20 PUSH1 0x4 DUP3 ADD MSTORE PUSH1 0x26 PUSH1 0x24 DUP3 ADD MSTORE PUSH32 0x4F776E61626C653A206E6577206F776E657220697320746865207A65726F2061 PUSH1 0x44 DUP3 ADD MSTORE PUSH6 0x646472657373 PUSH1 0xD0 SHL PUSH1 0x64 DUP3 ADD MSTORE PUSH1 0x84 ADD PUSH2 0x1CA JUMP JUMPDEST PUSH2 0xA2A DUP2 PUSH2 0xA2D JUMP JUMPDEST POP JUMP JUMPDEST PUSH1 0x0 DUP1 SLOAD PUSH1 0x1 PUSH1 0x1 PUSH1 0xA0 SHL SUB DUP4 DUP2 AND PUSH1 0x1 PUSH1 0x1 PUSH1 0xA0 SHL SUB NOT DUP4 AND DUP2 OR DUP5 SSTORE PUSH1 0x40 MLOAD SWAP2 SWAP1 SWAP3 AND SWAP3 DUP4 SWAP2 PUSH32 0x8BE0079C531659141344CD1FD0A4F28419497F9722A3DAAFE3B4186F6B6457E0 SWAP2 SWAP1 LOG3 POP POP JUMP JUMPDEST PUSH1 0x1 PUSH1 0x1 PUSH1 0xA0 SHL SUB DUP2 AND DUP2 EQ PUSH2 0xA2A JUMPI PUSH1 0x0 DUP1 REVERT JUMPDEST PUSH1 0x0 DUP1 PUSH1 0x0 PUSH1 0x60 DUP5 DUP7 SUB SLT ISZERO PUSH2 0xAA7 JUMPI PUSH1 0x0 DUP1 REVERT JUMPDEST DUP4 CALLDATALOAD PUSH2 0xAB2 DUP2 PUSH2 0xA7D JUMP JUMPDEST SWAP3 POP PUSH1 0x20 DUP5 ADD CALLDATALOAD PUSH2 0xAC2 DUP2 PUSH2 0xA7D JUMP JUMPDEST SWAP3 SWAP6 SWAP3 SWAP5 POP POP POP PUSH1 0x40 SWAP2 SWAP1 SWAP2 ADD CALLDATALOAD SWAP1 JUMP JUMPDEST PUSH1 0x0 PUSH1 0x20 DUP3 DUP5 SUB SLT ISZERO PUSH2 0xAE5 JUMPI PUSH1 0x0 DUP1 REVERT JUMPDEST DUP2 CALLDATALOAD PUSH2 0xAF0 DUP2 PUSH2 0xA7D JUMP JUMPDEST SWAP4 SWAP3 POP POP POP JUMP JUMPDEST DUP1 ISZERO ISZERO DUP2 EQ PUSH2 0xA2A JUMPI PUSH1 0x0 DUP1 REVERT JUMPDEST PUSH1 0x0 DUP1 PUSH1 0x0 PUSH1 0x60 DUP5 DUP7 SUB SLT ISZERO PUSH2 0xB1A JUMPI PUSH1 0x0 DUP1 REVERT JUMPDEST DUP4 CALLDATALOAD SWAP3 POP PUSH1 0x20 DUP5 ADD CALLDATALOAD PUSH2 0xB2C DUP2 PUSH2 0xAF7 JUMP JUMPDEST SWAP2 POP PUSH1 0x40 DUP5 ADD CALLDATALOAD PUSH2 0xB3C DUP2 PUSH2 0xA7D JUMP JUMPDEST DUP1 SWAP2 POP POP SWAP3 POP SWAP3 POP SWAP3 JUMP JUMPDEST PUSH1 0x20 DUP1 DUP3 MSTORE DUP2 DUP2 ADD MSTORE PUSH32 0x4F776E61626C653A2063616C6C6572206973206E6F7420746865206F776E6572 PUSH1 0x40 DUP3 ADD MSTORE PUSH1 0x60 ADD SWAP1 JUMP JUMPDEST PUSH1 0x0 PUSH1 0x20 DUP3 DUP5 SUB SLT ISZERO PUSH2 0xB8E JUMPI PUSH1 0x0 DUP1 REVERT JUMPDEST POP MLOAD SWAP2 SWAP1 POP JUMP JUMPDEST PUSH1 0x0 PUSH1 0x20 DUP3 DUP5 SUB SLT ISZERO PUSH2 0xBA7 JUMPI PUSH1 0x0 DUP1 REVERT JUMPDEST DUP2 MLOAD PUSH2 0xAF0 DUP2 PUSH2 0xAF7 JUMP INVALID DUP14 SHR 0xCE 0xD0 DIV GASLIMIT 0x2B 0xD2 PUSH17 0x777A8C670F9F7E7C4FDDE56F2DB331FE28 SWAP14 CODECOPY 0xDC 0x26 0x24 0xAD LOG2 PUSH5 0x6970667358 0x22 SLT KECCAK256 GASLIMIT 0xB6 0xD3 0xD1 MSTORE LOG3 EXTCODESIZE 0xEC 0xD7 LT DUP15 PUSH1 0x71 0xAD 0xB7 0x2A JUMP EXTCODECOPY 0xE1 PUSH11 0x3179489BDE2A026AE06BB2 PUSH19 0x64736F6C634300080B00330000000000000000 ",
  "sha1": "9e97f75631b4da0e6f8b9345cb28166e43745ea7",
  "source": "// SPDX-License-Identifier: MIT\n\npragma solidity ^0.8.6;\n\nimport \"@openzeppelin/contracts/token/ERC20/utils/SafeERC20.sol\";\nimport \"@openzeppelin/contracts/access/Ownable.sol\";\n\ninterface Erc20 {\n    function approve(address, uint256) external returns (bool);\n\n    function transfer(address, uint256) external returns (bool);\n}\n\ninterface CErc20 {\n    function mint(uint256) external returns (uint256);\n\n    function exchangeRateCurrent() external returns (uint256);\n\n    function supplyRatePerBlock() external returns (uint256);\n\n    function redeem(uint256) external returns (uint256);\n\n    function redeemUnderlying(uint256) external returns (uint256);\n}\n\ninterface CEth {\n    function mint() external payable;\n\n    function exchangeRateCurrent() external returns (uint256);\n\n    function supplyRatePerBlock() external returns (uint256);\n\n    function redeem(uint256) external returns (uint256);\n\n    function redeemUnderlying(uint256) external returns (uint256);\n}\n\ncontract CompoundInteractionContract is Ownable {\n    event MyLog(string, uint256);\n\n    function supplyEthToCompound(address payable _cEtherContract)\n        public\n        payable\n        returns (bool)\n    {\n        // Create a reference to the corresponding cToken contract\n        CEth cToken = CEth(_cEtherContract);\n\n        // Amount of current exchange rate from cToken to underlying\n        uint256 exchangeRateMantissa = cToken.exchangeRateCurrent();\n        emit MyLog(\"Exchange Rate (scaled up by 1e18): \", exchangeRateMantissa);\n\n        // Amount added to you supply balance this block\n        uint256 supplyRateMantissa = cToken.supplyRatePerBlock();\n        emit MyLog(\"Supply Rate: (scaled up by 1e18)\", supplyRateMantissa);\n\n        cToken.mint{value: msg.value, gas: 250000}();\n        return true;\n    }\n\n    function supplyErc20ToCompound(\n        address _erc20Contract,\n        address _cErc20Contract,\n        uint256 _numTokensToSupply\n    ) public returns (uint256) {\n        // Create a reference to the underlying asset contract, like DAI.\n        Erc20 underlying = Erc20(_erc20Contract);\n\n        // Create a reference to the corresponding cToken contract, like cDAI\n        CErc20 cToken = CErc20(_cErc20Contract);\n\n        // Amount of current exchange rate from cToken to underlying\n        uint256 exchangeRateMantissa = cToken.exchangeRateCurrent();\n        emit MyLog(\"Exchange Rate (scaled up): \", exchangeRateMantissa);\n\n        // Amount added to you supply balance this block\n        uint256 supplyRateMantissa = cToken.supplyRatePerBlock();\n        emit MyLog(\"Supply Rate: (scaled up)\", supplyRateMantissa);\n\n        // Approve transfer on the ERC20 contract\n        underlying.approve(_cErc20Contract, _numTokensToSupply);\n\n        // Mint cTokens\n        uint256 mintResult = cToken.mint(_numTokensToSupply);\n        return mintResult;\n    }\n\n    function redeemCErc20Tokens(\n        uint256 amount,\n        bool redeemType,\n        address _cErc20Contract\n    ) public returns (bool) {\n        // Create a reference to the corresponding cToken contract, like cDAI\n        CErc20 cToken = CErc20(_cErc20Contract);\n\n        // `amount` is scaled up, see decimal table here:\n        // https://compound.finance/docs#protocol-math\n\n        uint256 redeemResult;\n\n        if (redeemType == true) {\n            // Retrieve your asset based on a cToken amount\n            redeemResult = cToken.redeem(amount);\n        } else {\n            // Retrieve your asset based on an amount of the asset\n            redeemResult = cToken.redeemUnderlying(amount);\n        }\n\n        // Error codes are listed here:\n        // https://compound.finance/docs/ctokens#error-codes\n        emit MyLog(\"If this is not 0, there was an error\", redeemResult);\n\n        return true;\n    }\n\n    function redeemCEth(\n        uint256 amount,\n        bool redeemType,\n        address _cEtherContract\n    ) public returns (bool) {\n        // Create a reference to the corresponding cToken contract\n        CEth cToken = CEth(_cEtherContract);\n\n        // `amount` is scaled up by 1e18 to avoid decimals\n\n        uint256 redeemResult;\n\n        if (redeemType == true) {\n            // Retrieve your asset based on a cToken amount\n            redeemResult = cToken.redeem(amount);\n        } else {\n            // Retrieve your asset based on an amount of the asset\n            redeemResult = cToken.redeemUnderlying(amount);\n        }\n\n        // Error codes are listed here:\n        // https://compound.finance/docs/ctokens#error-codes\n        emit MyLog(\"If this is not 0, there was an error\", redeemResult);\n\n        return true;\n    }\n\n    function drainAllFundsETH() public onlyOwner {\n        (bool sent, bytes memory data) = msg.sender.call{\n            value: address(this).balance\n        }(\"\");\n        require(sent, \"Failed to send Ether\");\n    }\n\n    function drainAllFundscETH(address _token_address) public onlyOwner {\n        IERC20 token = IERC20(_token_address);\n        token.transfer(msg.sender, token.balanceOf(address(this)));\n    }\n\n    // This is needed to receive ETH when calling `redeemCEth`\n    receive() external payable {}\n}\n",
  "sourcePath": "contracts/CompoundInteractionContract.sol",
  "type": "contract"
}