{
  "abi": [
    {
      "inputs": [
        {
          "internalType": "address[]",
          "name": "supportedTokens_",
          "type": "address[]"
        },
        {
          "internalType": "uint256",
          "name": "fee_",
          "type": "uint256"
        }
      ],
      "stateMutability": "nonpayable",
      "type": "constructor"
    },
    {
      "inputs": [],
      "name": "CALLBACK_SUCCESS",
      "outputs": [
        {
          "internalType": "bytes32",
          "name": "",
          "type": "bytes32"
        }
      ],
      "stateMutability": "view",
      "type": "function"
    },
    {
      "inputs": [],
      "name": "fee",
      "outputs": [
        {
          "internalType": "uint256",
          "name": "",
          "type": "uint256"
        }
      ],
      "stateMutability": "view",
      "type": "function"
    },
    {
      "inputs": [
        {
          "internalType": "address",
          "name": "token",
          "type": "address"
        },
        {
          "internalType": "uint256",
          "name": "amount",
          "type": "uint256"
        }
      ],
      "name": "flashFee",
      "outputs": [
        {
          "internalType": "uint256",
          "name": "",
          "type": "uint256"
        }
      ],
      "stateMutability": "view",
      "type": "function"
    },
    {
      "inputs": [
        {
          "internalType": "contract IERC3156FlashBorrower",
          "name": "receiver",
          "type": "address"
        },
        {
          "internalType": "address",
          "name": "token",
          "type": "address"
        },
        {
          "internalType": "uint256",
          "name": "amount",
          "type": "uint256"
        },
        {
          "internalType": "bytes",
          "name": "data",
          "type": "bytes"
        }
      ],
      "name": "flashLoan",
      "outputs": [
        {
          "internalType": "bool",
          "name": "",
          "type": "bool"
        }
      ],
      "stateMutability": "nonpayable",
      "type": "function"
    },
    {
      "inputs": [
        {
          "internalType": "address",
          "name": "token",
          "type": "address"
        }
      ],
      "name": "maxFlashLoan",
      "outputs": [
        {
          "internalType": "uint256",
          "name": "",
          "type": "uint256"
        }
      ],
      "stateMutability": "view",
      "type": "function"
    },
    {
      "inputs": [
        {
          "internalType": "address",
          "name": "",
          "type": "address"
        }
      ],
      "name": "supportedTokens",
      "outputs": [
        {
          "internalType": "bool",
          "name": "",
          "type": "bool"
        }
      ],
      "stateMutability": "view",
      "type": "function"
    }
  ],
  "bytecode": "608060405234801561001057600080fd5b5060405161095e38038061095e83398101604081905261002f916100d2565b60005b82518110156100965760016000808584815181106100525761005261019e565b6020908102919091018101516001600160a01b03168252810191909152604001600020805460ff19169115159190911790558061008e816101b4565b915050610032565b50600155506101dd565b634e487b7160e01b600052604160045260246000fd5b80516001600160a01b03811681146100cd57600080fd5b919050565b600080604083850312156100e557600080fd5b82516001600160401b03808211156100fc57600080fd5b818501915085601f83011261011057600080fd5b8151602082821115610124576101246100a0565b8160051b604051601f19603f83011681018181108682111715610149576101496100a0565b60405292835281830193508481018201928984111561016757600080fd5b948201945b8386101561018c5761017d866100b6565b8552948201949382019361016c565b97909101519698969750505050505050565b634e487b7160e01b600052603260045260246000fd5b60006000198214156101d657634e487b7160e01b600052601160045260246000fd5b5060010190565b610772806101ec6000396000f3fe608060405234801561001057600080fd5b50600436106100625760003560e01c80635cffe9de14610067578063613255ab1461008f57806368c4ac26146100b05780638237e538146100d3578063d9d98ce4146100fa578063ddca3f431461010d575b600080fd5b61007a61007536600461050d565b610116565b60405190151581526020015b60405180910390f35b6100a261009d3660046105ac565b6103fa565b604051908152602001610086565b61007a6100be3660046105ac565b60006020819052908152604090205460ff1681565b6100a27f439148f0bbc682ca079e46d6e2c2f0c1e3b820f1a291b069d8882abf8cf18dd981565b6100a26101083660046105c9565b61048f565b6100a260015481565b6001600160a01b03841660009081526020819052604081205460ff166101575760405162461bcd60e51b815260040161014e906105f5565b60405180910390fd5b600061016386866104d8565b60405163a9059cbb60e01b81526001600160a01b038981166004830152602482018890529192509087169063a9059cbb906044016020604051808303816000875af11580156101b6573d6000803e3d6000fd5b505050506040513d601f19601f820116820180604052508101906101da9190610636565b6102265760405162461bcd60e51b815260206004820152601c60248201527f466c6173684c656e6465723a205472616e73666572206661696c656400000000604482015260640161014e565b6040516323e30c8b60e01b81527f439148f0bbc682ca079e46d6e2c2f0c1e3b820f1a291b069d8882abf8cf18dd9906001600160a01b038916906323e30c8b9061027e9033908b908b9088908c908c90600401610658565b6020604051808303816000875af115801561029d573d6000803e3d6000fd5b505050506040513d601f19601f820116820180604052508101906102c191906106b4565b1461030e5760405162461bcd60e51b815260206004820152601c60248201527f466c6173684c656e6465723a2043616c6c6261636b206661696c656400000000604482015260640161014e565b6001600160a01b0386166323b872dd8830610329858a6106e3565b6040516001600160e01b031960e086901b1681526001600160a01b03938416600482015292909116602483015260448201526064016020604051808303816000875af115801561037d573d6000803e3d6000fd5b505050506040513d601f19601f820116820180604052508101906103a19190610636565b6103ed5760405162461bcd60e51b815260206004820152601960248201527f466c6173684c656e6465723a205265706179206661696c656400000000000000604482015260640161014e565b5060019695505050505050565b6001600160a01b03811660009081526020819052604081205460ff16610421576000610489565b6040516370a0823160e01b81523060048201526001600160a01b038316906370a0823190602401602060405180830381865afa158015610465573d6000803e3d6000fd5b505050506040513d601f19601f8201168201806040525081019061048991906106b4565b92915050565b6001600160a01b03821660009081526020819052604081205460ff166104c75760405162461bcd60e51b815260040161014e906105f5565b6104d183836104d8565b9392505050565b6000612710600154836104eb91906106fb565b6104d1919061071a565b6001600160a01b038116811461050a57600080fd5b50565b60008060008060006080868803121561052557600080fd5b8535610530816104f5565b94506020860135610540816104f5565b935060408601359250606086013567ffffffffffffffff8082111561056457600080fd5b818801915088601f83011261057857600080fd5b81358181111561058757600080fd5b89602082850101111561059957600080fd5b9699959850939650602001949392505050565b6000602082840312156105be57600080fd5b81356104d1816104f5565b600080604083850312156105dc57600080fd5b82356105e7816104f5565b946020939093013593505050565b60208082526021908201527f466c6173684c656e6465723a20556e737570706f727465642063757272656e636040820152607960f81b606082015260800190565b60006020828403121561064857600080fd5b815180151581146104d157600080fd5b6001600160a01b03878116825286166020820152604081018590526060810184905260a06080820181905281018290526000828460c0840137600060c0848401015260c0601f19601f8501168301019050979650505050505050565b6000602082840312156106c657600080fd5b5051919050565b634e487b7160e01b600052601160045260246000fd5b600082198211156106f6576106f66106cd565b500190565b6000816000190483118215151615610715576107156106cd565b500290565b60008261073757634e487b7160e01b600052601260045260246000fd5b50049056fea26469706673582212201fccd2ff87264223e0684581f13529130379f9bbe7d94969c89be14865cf05e864736f6c634300080b0033",
  "bytecodeSha1": "39cc2e967844e10b28f865ee03fdfa0d1b861fd3",
  "compiler": {
    "evm_version": "istanbul",
    "optimizer": {
      "enabled": true,
      "runs": 200
    },
    "version": "0.8.11+commit.d7f03943"
  },
  "contractName": "FlashLender",
  "language": "Solidity",
  "natspec": {
    "kind": "dev",
    "methods": {
      "constructor": {
        "params": {
          "fee_": "The percentage of the loan `amount` that needs to be repaid, in addition to `amount`.",
          "supportedTokens_": "Token contracts supported for flash lending."
        }
      },
      "flashFee(address,uint256)": {
        "details": "The fee to be charged for a given loan.",
        "params": {
          "amount": "The amount of tokens lent.",
          "token": "The loan currency."
        },
        "returns": {
          "_0": "The amount of `token` to be charged for the loan, on top of the returned principal."
        }
      },
      "flashLoan(address,address,uint256,bytes)": {
        "details": "Loan `amount` tokens to `receiver`, and takes it back plus a `flashFee` after the callback.",
        "params": {
          "amount": "The amount of tokens lent.",
          "data": "A data parameter to be passed on to the `receiver` for any custom use.",
          "receiver": "The contract receiving the tokens, needs to implement the `onFlashLoan(address user, uint256 amount, uint256 fee, bytes calldata)` interface.",
          "token": "The loan currency."
        }
      },
      "maxFlashLoan(address)": {
        "details": "The amount of currency available to be lent.",
        "params": {
          "token": "The loan currency."
        },
        "returns": {
          "_0": "The amount of `token` that can be borrowed."
        }
      }
    },
    "version": 1
  },
  "opcodes": "PUSH1 0x80 PUSH1 0x40 MSTORE CALLVALUE DUP1 ISZERO PUSH2 0x10 JUMPI PUSH1 0x0 DUP1 REVERT JUMPDEST POP PUSH1 0x4 CALLDATASIZE LT PUSH2 0x62 JUMPI PUSH1 0x0 CALLDATALOAD PUSH1 0xE0 SHR DUP1 PUSH4 0x5CFFE9DE EQ PUSH2 0x67 JUMPI DUP1 PUSH4 0x613255AB EQ PUSH2 0x8F JUMPI DUP1 PUSH4 0x68C4AC26 EQ PUSH2 0xB0 JUMPI DUP1 PUSH4 0x8237E538 EQ PUSH2 0xD3 JUMPI DUP1 PUSH4 0xD9D98CE4 EQ PUSH2 0xFA JUMPI DUP1 PUSH4 0xDDCA3F43 EQ PUSH2 0x10D JUMPI JUMPDEST PUSH1 0x0 DUP1 REVERT JUMPDEST PUSH2 0x7A PUSH2 0x75 CALLDATASIZE PUSH1 0x4 PUSH2 0x50D JUMP JUMPDEST PUSH2 0x116 JUMP JUMPDEST PUSH1 0x40 MLOAD SWAP1 ISZERO ISZERO DUP2 MSTORE PUSH1 0x20 ADD JUMPDEST PUSH1 0x40 MLOAD DUP1 SWAP2 SUB SWAP1 RETURN JUMPDEST PUSH2 0xA2 PUSH2 0x9D CALLDATASIZE PUSH1 0x4 PUSH2 0x5AC JUMP JUMPDEST PUSH2 0x3FA JUMP JUMPDEST PUSH1 0x40 MLOAD SWAP1 DUP2 MSTORE PUSH1 0x20 ADD PUSH2 0x86 JUMP JUMPDEST PUSH2 0x7A PUSH2 0xBE CALLDATASIZE PUSH1 0x4 PUSH2 0x5AC JUMP JUMPDEST PUSH1 0x0 PUSH1 0x20 DUP2 SWAP1 MSTORE SWAP1 DUP2 MSTORE PUSH1 0x40 SWAP1 KECCAK256 SLOAD PUSH1 0xFF AND DUP2 JUMP JUMPDEST PUSH2 0xA2 PUSH32 0x439148F0BBC682CA079E46D6E2C2F0C1E3B820F1A291B069D8882ABF8CF18DD9 DUP2 JUMP JUMPDEST PUSH2 0xA2 PUSH2 0x108 CALLDATASIZE PUSH1 0x4 PUSH2 0x5C9 JUMP JUMPDEST PUSH2 0x48F JUMP JUMPDEST PUSH2 0xA2 PUSH1 0x1 SLOAD DUP2 JUMP JUMPDEST PUSH1 0x1 PUSH1 0x1 PUSH1 0xA0 SHL SUB DUP5 AND PUSH1 0x0 SWAP1 DUP2 MSTORE PUSH1 0x20 DUP2 SWAP1 MSTORE PUSH1 0x40 DUP2 KECCAK256 SLOAD PUSH1 0xFF AND PUSH2 0x157 JUMPI PUSH1 0x40 MLOAD PUSH3 0x461BCD PUSH1 0xE5 SHL DUP2 MSTORE PUSH1 0x4 ADD PUSH2 0x14E SWAP1 PUSH2 0x5F5 JUMP JUMPDEST PUSH1 0x40 MLOAD DUP1 SWAP2 SUB SWAP1 REVERT JUMPDEST PUSH1 0x0 PUSH2 0x163 DUP7 DUP7 PUSH2 0x4D8 JUMP JUMPDEST PUSH1 0x40 MLOAD PUSH4 0xA9059CBB PUSH1 0xE0 SHL DUP2 MSTORE PUSH1 0x1 PUSH1 0x1 PUSH1 0xA0 SHL SUB DUP10 DUP2 AND PUSH1 0x4 DUP4 ADD MSTORE PUSH1 0x24 DUP3 ADD DUP9 SWAP1 MSTORE SWAP2 SWAP3 POP SWAP1 DUP8 AND SWAP1 PUSH4 0xA9059CBB SWAP1 PUSH1 0x44 ADD PUSH1 0x20 PUSH1 0x40 MLOAD DUP1 DUP4 SUB DUP2 PUSH1 0x0 DUP8 GAS CALL ISZERO DUP1 ISZERO PUSH2 0x1B6 JUMPI RETURNDATASIZE PUSH1 0x0 DUP1 RETURNDATACOPY RETURNDATASIZE PUSH1 0x0 REVERT JUMPDEST POP POP POP POP PUSH1 0x40 MLOAD RETURNDATASIZE PUSH1 0x1F NOT PUSH1 0x1F DUP3 ADD AND DUP3 ADD DUP1 PUSH1 0x40 MSTORE POP DUP2 ADD SWAP1 PUSH2 0x1DA SWAP2 SWAP1 PUSH2 0x636 JUMP JUMPDEST PUSH2 0x226 JUMPI PUSH1 0x40 MLOAD PUSH3 0x461BCD PUSH1 0xE5 SHL DUP2 MSTORE PUSH1 0x20 PUSH1 0x4 DUP3 ADD MSTORE PUSH1 0x1C PUSH1 0x24 DUP3 ADD MSTORE PUSH32 0x466C6173684C656E6465723A205472616E73666572206661696C656400000000 PUSH1 0x44 DUP3 ADD MSTORE PUSH1 0x64 ADD PUSH2 0x14E JUMP JUMPDEST PUSH1 0x40 MLOAD PUSH4 0x23E30C8B PUSH1 0xE0 SHL DUP2 MSTORE PUSH32 0x439148F0BBC682CA079E46D6E2C2F0C1E3B820F1A291B069D8882ABF8CF18DD9 SWAP1 PUSH1 0x1 PUSH1 0x1 PUSH1 0xA0 SHL SUB DUP10 AND SWAP1 PUSH4 0x23E30C8B SWAP1 PUSH2 0x27E SWAP1 CALLER SWAP1 DUP12 SWAP1 DUP12 SWAP1 DUP9 SWAP1 DUP13 SWAP1 DUP13 SWAP1 PUSH1 0x4 ADD PUSH2 0x658 JUMP JUMPDEST PUSH1 0x20 PUSH1 0x40 MLOAD DUP1 DUP4 SUB DUP2 PUSH1 0x0 DUP8 GAS CALL ISZERO DUP1 ISZERO PUSH2 0x29D JUMPI RETURNDATASIZE PUSH1 0x0 DUP1 RETURNDATACOPY RETURNDATASIZE PUSH1 0x0 REVERT JUMPDEST POP POP POP POP PUSH1 0x40 MLOAD RETURNDATASIZE PUSH1 0x1F NOT PUSH1 0x1F DUP3 ADD AND DUP3 ADD DUP1 PUSH1 0x40 MSTORE POP DUP2 ADD SWAP1 PUSH2 0x2C1 SWAP2 SWAP1 PUSH2 0x6B4 JUMP JUMPDEST EQ PUSH2 0x30E JUMPI PUSH1 0x40 MLOAD PUSH3 0x461BCD PUSH1 0xE5 SHL DUP2 MSTORE PUSH1 0x20 PUSH1 0x4 DUP3 ADD MSTORE PUSH1 0x1C PUSH1 0x24 DUP3 ADD MSTORE PUSH32 0x466C6173684C656E6465723A2043616C6C6261636B206661696C656400000000 PUSH1 0x44 DUP3 ADD MSTORE PUSH1 0x64 ADD PUSH2 0x14E JUMP JUMPDEST PUSH1 0x1 PUSH1 0x1 PUSH1 0xA0 SHL SUB DUP7 AND PUSH4 0x23B872DD DUP9 ADDRESS PUSH2 0x329 DUP6 DUP11 PUSH2 0x6E3 JUMP JUMPDEST PUSH1 0x40 MLOAD PUSH1 0x1 PUSH1 0x1 PUSH1 0xE0 SHL SUB NOT PUSH1 0xE0 DUP7 SWAP1 SHL AND DUP2 MSTORE PUSH1 0x1 PUSH1 0x1 PUSH1 0xA0 SHL SUB SWAP4 DUP5 AND PUSH1 0x4 DUP3 ADD MSTORE SWAP3 SWAP1 SWAP2 AND PUSH1 0x24 DUP4 ADD MSTORE PUSH1 0x44 DUP3 ADD MSTORE PUSH1 0x64 ADD PUSH1 0x20 PUSH1 0x40 MLOAD DUP1 DUP4 SUB DUP2 PUSH1 0x0 DUP8 GAS CALL ISZERO DUP1 ISZERO PUSH2 0x37D JUMPI RETURNDATASIZE PUSH1 0x0 DUP1 RETURNDATACOPY RETURNDATASIZE PUSH1 0x0 REVERT JUMPDEST POP POP POP POP PUSH1 0x40 MLOAD RETURNDATASIZE PUSH1 0x1F NOT PUSH1 0x1F DUP3 ADD AND DUP3 ADD DUP1 PUSH1 0x40 MSTORE POP DUP2 ADD SWAP1 PUSH2 0x3A1 SWAP2 SWAP1 PUSH2 0x636 JUMP JUMPDEST PUSH2 0x3ED JUMPI PUSH1 0x40 MLOAD PUSH3 0x461BCD PUSH1 0xE5 SHL DUP2 MSTORE PUSH1 0x20 PUSH1 0x4 DUP3 ADD MSTORE PUSH1 0x19 PUSH1 0x24 DUP3 ADD MSTORE PUSH32 0x466C6173684C656E6465723A205265706179206661696C656400000000000000 PUSH1 0x44 DUP3 ADD MSTORE PUSH1 0x64 ADD PUSH2 0x14E JUMP JUMPDEST POP PUSH1 0x1 SWAP7 SWAP6 POP POP POP POP POP POP JUMP JUMPDEST PUSH1 0x1 PUSH1 0x1 PUSH1 0xA0 SHL SUB DUP2 AND PUSH1 0x0 SWAP1 DUP2 MSTORE PUSH1 0x20 DUP2 SWAP1 MSTORE PUSH1 0x40 DUP2 KECCAK256 SLOAD PUSH1 0xFF AND PUSH2 0x421 JUMPI PUSH1 0x0 PUSH2 0x489 JUMP JUMPDEST PUSH1 0x40 MLOAD PUSH4 0x70A08231 PUSH1 0xE0 SHL DUP2 MSTORE ADDRESS PUSH1 0x4 DUP3 ADD MSTORE PUSH1 0x1 PUSH1 0x1 PUSH1 0xA0 SHL SUB DUP4 AND SWAP1 PUSH4 0x70A08231 SWAP1 PUSH1 0x24 ADD PUSH1 0x20 PUSH1 0x40 MLOAD DUP1 DUP4 SUB DUP2 DUP7 GAS STATICCALL ISZERO DUP1 ISZERO PUSH2 0x465 JUMPI RETURNDATASIZE PUSH1 0x0 DUP1 RETURNDATACOPY RETURNDATASIZE PUSH1 0x0 REVERT JUMPDEST POP POP POP POP PUSH1 0x40 MLOAD RETURNDATASIZE PUSH1 0x1F NOT PUSH1 0x1F DUP3 ADD AND DUP3 ADD DUP1 PUSH1 0x40 MSTORE POP DUP2 ADD SWAP1 PUSH2 0x489 SWAP2 SWAP1 PUSH2 0x6B4 JUMP JUMPDEST SWAP3 SWAP2 POP POP JUMP JUMPDEST PUSH1 0x1 PUSH1 0x1 PUSH1 0xA0 SHL SUB DUP3 AND PUSH1 0x0 SWAP1 DUP2 MSTORE PUSH1 0x20 DUP2 SWAP1 MSTORE PUSH1 0x40 DUP2 KECCAK256 SLOAD PUSH1 0xFF AND PUSH2 0x4C7 JUMPI PUSH1 0x40 MLOAD PUSH3 0x461BCD PUSH1 0xE5 SHL DUP2 MSTORE PUSH1 0x4 ADD PUSH2 0x14E SWAP1 PUSH2 0x5F5 JUMP JUMPDEST PUSH2 0x4D1 DUP4 DUP4 PUSH2 0x4D8 JUMP JUMPDEST SWAP4 SWAP3 POP POP POP JUMP JUMPDEST PUSH1 0x0 PUSH2 0x2710 PUSH1 0x1 SLOAD DUP4 PUSH2 0x4EB SWAP2 SWAP1 PUSH2 0x6FB JUMP JUMPDEST PUSH2 0x4D1 SWAP2 SWAP1 PUSH2 0x71A JUMP JUMPDEST PUSH1 0x1 PUSH1 0x1 PUSH1 0xA0 SHL SUB DUP2 AND DUP2 EQ PUSH2 0x50A JUMPI PUSH1 0x0 DUP1 REVERT JUMPDEST POP JUMP JUMPDEST PUSH1 0x0 DUP1 PUSH1 0x0 DUP1 PUSH1 0x0 PUSH1 0x80 DUP7 DUP9 SUB SLT ISZERO PUSH2 0x525 JUMPI PUSH1 0x0 DUP1 REVERT JUMPDEST DUP6 CALLDATALOAD PUSH2 0x530 DUP2 PUSH2 0x4F5 JUMP JUMPDEST SWAP5 POP PUSH1 0x20 DUP7 ADD CALLDATALOAD PUSH2 0x540 DUP2 PUSH2 0x4F5 JUMP JUMPDEST SWAP4 POP PUSH1 0x40 DUP7 ADD CALLDATALOAD SWAP3 POP PUSH1 0x60 DUP7 ADD CALLDATALOAD PUSH8 0xFFFFFFFFFFFFFFFF DUP1 DUP3 GT ISZERO PUSH2 0x564 JUMPI PUSH1 0x0 DUP1 REVERT JUMPDEST DUP2 DUP9 ADD SWAP2 POP DUP9 PUSH1 0x1F DUP4 ADD SLT PUSH2 0x578 JUMPI PUSH1 0x0 DUP1 REVERT JUMPDEST DUP2 CALLDATALOAD DUP2 DUP2 GT ISZERO PUSH2 0x587 JUMPI PUSH1 0x0 DUP1 REVERT JUMPDEST DUP10 PUSH1 0x20 DUP3 DUP6 ADD ADD GT ISZERO PUSH2 0x599 JUMPI PUSH1 0x0 DUP1 REVERT JUMPDEST SWAP7 SWAP10 SWAP6 SWAP9 POP SWAP4 SWAP7 POP PUSH1 0x20 ADD SWAP5 SWAP4 SWAP3 POP POP POP JUMP JUMPDEST PUSH1 0x0 PUSH1 0x20 DUP3 DUP5 SUB SLT ISZERO PUSH2 0x5BE JUMPI PUSH1 0x0 DUP1 REVERT JUMPDEST DUP2 CALLDATALOAD PUSH2 0x4D1 DUP2 PUSH2 0x4F5 JUMP JUMPDEST PUSH1 0x0 DUP1 PUSH1 0x40 DUP4 DUP6 SUB SLT ISZERO PUSH2 0x5DC JUMPI PUSH1 0x0 DUP1 REVERT JUMPDEST DUP3 CALLDATALOAD PUSH2 0x5E7 DUP2 PUSH2 0x4F5 JUMP JUMPDEST SWAP5 PUSH1 0x20 SWAP4 SWAP1 SWAP4 ADD CALLDATALOAD SWAP4 POP POP POP JUMP JUMPDEST PUSH1 0x20 DUP1 DUP3 MSTORE PUSH1 0x21 SWAP1 DUP3 ADD MSTORE PUSH32 0x466C6173684C656E6465723A20556E737570706F727465642063757272656E63 PUSH1 0x40 DUP3 ADD MSTORE PUSH1 0x79 PUSH1 0xF8 SHL PUSH1 0x60 DUP3 ADD MSTORE PUSH1 0x80 ADD SWAP1 JUMP JUMPDEST PUSH1 0x0 PUSH1 0x20 DUP3 DUP5 SUB SLT ISZERO PUSH2 0x648 JUMPI PUSH1 0x0 DUP1 REVERT JUMPDEST DUP2 MLOAD DUP1 ISZERO ISZERO DUP2 EQ PUSH2 0x4D1 JUMPI PUSH1 0x0 DUP1 REVERT JUMPDEST PUSH1 0x1 PUSH1 0x1 PUSH1 0xA0 SHL SUB DUP8 DUP2 AND DUP3 MSTORE DUP7 AND PUSH1 0x20 DUP3 ADD MSTORE PUSH1 0x40 DUP2 ADD DUP6 SWAP1 MSTORE PUSH1 0x60 DUP2 ADD DUP5 SWAP1 MSTORE PUSH1 0xA0 PUSH1 0x80 DUP3 ADD DUP2 SWAP1 MSTORE DUP2 ADD DUP3 SWAP1 MSTORE PUSH1 0x0 DUP3 DUP5 PUSH1 0xC0 DUP5 ADD CALLDATACOPY PUSH1 0x0 PUSH1 0xC0 DUP5 DUP5 ADD ADD MSTORE PUSH1 0xC0 PUSH1 0x1F NOT PUSH1 0x1F DUP6 ADD AND DUP4 ADD ADD SWAP1 POP SWAP8 SWAP7 POP POP POP POP POP POP POP JUMP JUMPDEST PUSH1 0x0 PUSH1 0x20 DUP3 DUP5 SUB SLT ISZERO PUSH2 0x6C6 JUMPI PUSH1 0x0 DUP1 REVERT JUMPDEST POP MLOAD SWAP2 SWAP1 POP JUMP JUMPDEST PUSH4 0x4E487B71 PUSH1 0xE0 SHL PUSH1 0x0 MSTORE PUSH1 0x11 PUSH1 0x4 MSTORE PUSH1 0x24 PUSH1 0x0 REVERT JUMPDEST PUSH1 0x0 DUP3 NOT DUP3 GT ISZERO PUSH2 0x6F6 JUMPI PUSH2 0x6F6 PUSH2 0x6CD JUMP JUMPDEST POP ADD SWAP1 JUMP JUMPDEST PUSH1 0x0 DUP2 PUSH1 0x0 NOT DIV DUP4 GT DUP3 ISZERO ISZERO AND ISZERO PUSH2 0x715 JUMPI PUSH2 0x715 PUSH2 0x6CD JUMP JUMPDEST POP MUL SWAP1 JUMP JUMPDEST PUSH1 0x0 DUP3 PUSH2 0x737 JUMPI PUSH4 0x4E487B71 PUSH1 0xE0 SHL PUSH1 0x0 MSTORE PUSH1 0x12 PUSH1 0x4 MSTORE PUSH1 0x24 PUSH1 0x0 REVERT JUMPDEST POP DIV SWAP1 JUMP INVALID LOG2 PUSH5 0x6970667358 0x22 SLT KECCAK256 0x1F 0xCC 0xD2 SELFDESTRUCT DUP8 0x26 TIMESTAMP 0x23 0xE0 PUSH9 0x4581F13529130379F9 0xBB 0xE7 0xD9 0x49 PUSH10 0xC89BE14865CF05E86473 PUSH16 0x6C634300080B00330000000000000000 ",
  "sha1": "4d5ac04fbf90d2d9b955f08098bf86a1890252dd",
  "source": "// SPDX-License-Identifier: MIT\n\npragma solidity ^0.8.0;\n\nimport \"@openzeppelin/contracts/token/ERC20/IERC20.sol\";\nimport \"../interfaces/IERC3156FlashLender.sol\";\nimport \"../interfaces/IERC3156FlashBorrower.sol\";\n\ncontract FlashLender is IERC3156FlashLender {\n    bytes32 public constant CALLBACK_SUCCESS =\n        keccak256(\"ERC3156FlashBorrower.onFlashLoan\");\n    mapping(address => bool) public supportedTokens;\n    uint256 public fee; //  1 == 0.0001 %.\n\n    /**\n     * @param supportedTokens_ Token contracts supported for flash lending.\n     * @param fee_ The percentage of the loan `amount` that needs to be repaid, in addition to `amount`.\n     */\n    constructor(address[] memory supportedTokens_, uint256 fee_) {\n        for (uint256 i = 0; i < supportedTokens_.length; i++) {\n            supportedTokens[supportedTokens_[i]] = true;\n        }\n        fee = fee_;\n    }\n\n    /**\n     * @dev Loan `amount` tokens to `receiver`, and takes it back plus a `flashFee` after the callback.\n     * @param receiver The contract receiving the tokens, needs to implement the `onFlashLoan(address user, uint256 amount, uint256 fee, bytes calldata)` interface.\n     * @param token The loan currency.\n     * @param amount The amount of tokens lent.\n     * @param data A data parameter to be passed on to the `receiver` for any custom use.\n     */\n    function flashLoan(\n        IERC3156FlashBorrower receiver,\n        address token,\n        uint256 amount,\n        bytes calldata data\n    ) external override returns (bool) {\n        require(supportedTokens[token], \"FlashLender: Unsupported currency\");\n        uint256 fee = _flashFee(token, amount);\n        require(\n            IERC20(token).transfer(address(receiver), amount),\n            \"FlashLender: Transfer failed\"\n        );\n        require(\n            receiver.onFlashLoan(msg.sender, token, amount, fee, data) ==\n                CALLBACK_SUCCESS,\n            \"FlashLender: Callback failed\"\n        );\n        require(\n            IERC20(token).transferFrom(\n                address(receiver),\n                address(this),\n                amount + fee\n            ),\n            \"FlashLender: Repay failed\"\n        );\n        return true;\n    }\n\n    /**\n     * @dev The fee to be charged for a given loan.\n     * @param token The loan currency.\n     * @param amount The amount of tokens lent.\n     * @return The amount of `token` to be charged for the loan, on top of the returned principal.\n     */\n    function flashFee(address token, uint256 amount)\n        external\n        view\n        override\n        returns (uint256)\n    {\n        require(supportedTokens[token], \"FlashLender: Unsupported currency\");\n        return _flashFee(token, amount);\n    }\n\n    /**\n     * @dev The fee to be charged for a given loan. Internal function with no checks.\n     * @param token The loan currency.\n     * @param amount The amount of tokens lent.\n     * @return The amount of `token` to be charged for the loan, on top of the returned principal.\n     */\n    function _flashFee(address token, uint256 amount)\n        internal\n        view\n        returns (uint256)\n    {\n        return (amount * fee) / 10000;\n    }\n\n    /**\n     * @dev The amount of currency available to be lent.\n     * @param token The loan currency.\n     * @return The amount of `token` that can be borrowed.\n     */\n    function maxFlashLoan(address token)\n        external\n        view\n        override\n        returns (uint256)\n    {\n        return\n            supportedTokens[token] ? IERC20(token).balanceOf(address(this)) : 0;\n    }\n}\n",
  "sourcePath": "contracts/FlashLender.sol",
  "type": "contract"
}