{
  "abi": [
    {
      "inputs": [
        {
          "internalType": "address",
          "name": "_projectTokenAddress",
          "type": "address"
        },
        {
          "internalType": "address",
          "name": "_lendingProtocol",
          "type": "address"
        }
      ],
      "stateMutability": "nonpayable",
      "type": "constructor"
    },
    {
      "anonymous": false,
      "inputs": [
        {
          "indexed": false,
          "internalType": "address",
          "name": "newProtocol",
          "type": "address"
        },
        {
          "indexed": false,
          "internalType": "address",
          "name": "oldProtocol",
          "type": "address"
        }
      ],
      "name": "LendingProtocolChanged",
      "type": "event"
    },
    {
      "anonymous": false,
      "inputs": [
        {
          "indexed": true,
          "internalType": "address",
          "name": "previousOwner",
          "type": "address"
        },
        {
          "indexed": true,
          "internalType": "address",
          "name": "newOwner",
          "type": "address"
        }
      ],
      "name": "OwnershipTransferred",
      "type": "event"
    },
    {
      "anonymous": false,
      "inputs": [
        {
          "indexed": true,
          "internalType": "address",
          "name": "token_address",
          "type": "address"
        }
      ],
      "name": "TokenAdded",
      "type": "event"
    },
    {
      "anonymous": false,
      "inputs": [
        {
          "indexed": true,
          "internalType": "address",
          "name": "token",
          "type": "address"
        },
        {
          "indexed": true,
          "internalType": "address",
          "name": "staker",
          "type": "address"
        },
        {
          "indexed": false,
          "internalType": "uint256",
          "name": "amount",
          "type": "uint256"
        }
      ],
      "name": "TokenStaked",
      "type": "event"
    },
    {
      "anonymous": false,
      "inputs": [
        {
          "indexed": true,
          "internalType": "address",
          "name": "token",
          "type": "address"
        },
        {
          "indexed": true,
          "internalType": "address",
          "name": "staker",
          "type": "address"
        },
        {
          "indexed": false,
          "internalType": "uint256",
          "name": "amount",
          "type": "uint256"
        }
      ],
      "name": "TokenUnstaked",
      "type": "event"
    },
    {
      "inputs": [
        {
          "internalType": "address",
          "name": "_token",
          "type": "address"
        },
        {
          "internalType": "address",
          "name": "_pricefeed",
          "type": "address"
        },
        {
          "internalType": "uint256",
          "name": "_yield",
          "type": "uint256"
        }
      ],
      "name": "addAllowedTokens",
      "outputs": [],
      "stateMutability": "nonpayable",
      "type": "function"
    },
    {
      "inputs": [
        {
          "internalType": "uint256",
          "name": "",
          "type": "uint256"
        }
      ],
      "name": "allowedTokens",
      "outputs": [
        {
          "internalType": "address",
          "name": "",
          "type": "address"
        }
      ],
      "stateMutability": "view",
      "type": "function"
    },
    {
      "inputs": [
        {
          "internalType": "address",
          "name": "_newLendingProtocol",
          "type": "address"
        }
      ],
      "name": "changeLendingProtocol",
      "outputs": [],
      "stateMutability": "nonpayable",
      "type": "function"
    },
    {
      "inputs": [],
      "name": "claimToken",
      "outputs": [],
      "stateMutability": "nonpayable",
      "type": "function"
    },
    {
      "inputs": [
        {
          "internalType": "address",
          "name": "_token",
          "type": "address"
        }
      ],
      "name": "getTokenValue",
      "outputs": [
        {
          "internalType": "uint256",
          "name": "",
          "type": "uint256"
        },
        {
          "internalType": "uint256",
          "name": "",
          "type": "uint256"
        }
      ],
      "stateMutability": "view",
      "type": "function"
    },
    {
      "inputs": [
        {
          "internalType": "address",
          "name": "_user",
          "type": "address"
        },
        {
          "internalType": "address",
          "name": "_token",
          "type": "address"
        }
      ],
      "name": "getUserSingleTokenValue",
      "outputs": [
        {
          "internalType": "uint256",
          "name": "",
          "type": "uint256"
        }
      ],
      "stateMutability": "view",
      "type": "function"
    },
    {
      "inputs": [
        {
          "internalType": "address",
          "name": "_user",
          "type": "address"
        }
      ],
      "name": "getUserTotalValue",
      "outputs": [
        {
          "internalType": "uint256",
          "name": "",
          "type": "uint256"
        }
      ],
      "stateMutability": "view",
      "type": "function"
    },
    {
      "inputs": [],
      "name": "lendingProtocol",
      "outputs": [
        {
          "internalType": "contract ILendingProtocol",
          "name": "",
          "type": "address"
        }
      ],
      "stateMutability": "view",
      "type": "function"
    },
    {
      "inputs": [],
      "name": "owner",
      "outputs": [
        {
          "internalType": "address",
          "name": "",
          "type": "address"
        }
      ],
      "stateMutability": "view",
      "type": "function"
    },
    {
      "inputs": [],
      "name": "projectToken",
      "outputs": [
        {
          "internalType": "contract IERC20",
          "name": "",
          "type": "address"
        }
      ],
      "stateMutability": "view",
      "type": "function"
    },
    {
      "inputs": [],
      "name": "renounceOwnership",
      "outputs": [],
      "stateMutability": "nonpayable",
      "type": "function"
    },
    {
      "inputs": [
        {
          "internalType": "address",
          "name": "_token",
          "type": "address"
        },
        {
          "internalType": "address",
          "name": "_priceFeed",
          "type": "address"
        }
      ],
      "name": "setPriceFeedContract",
      "outputs": [],
      "stateMutability": "nonpayable",
      "type": "function"
    },
    {
      "inputs": [
        {
          "internalType": "uint256",
          "name": "_amount",
          "type": "uint256"
        },
        {
          "internalType": "address",
          "name": "_token",
          "type": "address"
        }
      ],
      "name": "stakeTokens",
      "outputs": [],
      "stateMutability": "nonpayable",
      "type": "function"
    },
    {
      "inputs": [
        {
          "internalType": "uint256",
          "name": "",
          "type": "uint256"
        }
      ],
      "name": "stakers",
      "outputs": [
        {
          "internalType": "address",
          "name": "",
          "type": "address"
        }
      ],
      "stateMutability": "view",
      "type": "function"
    },
    {
      "inputs": [
        {
          "internalType": "address",
          "name": "",
          "type": "address"
        },
        {
          "internalType": "address",
          "name": "",
          "type": "address"
        }
      ],
      "name": "stakingBalance",
      "outputs": [
        {
          "internalType": "uint256",
          "name": "",
          "type": "uint256"
        }
      ],
      "stateMutability": "view",
      "type": "function"
    },
    {
      "inputs": [
        {
          "internalType": "address",
          "name": "_token",
          "type": "address"
        }
      ],
      "name": "tokenIsAllowed",
      "outputs": [
        {
          "internalType": "bool",
          "name": "",
          "type": "bool"
        }
      ],
      "stateMutability": "view",
      "type": "function"
    },
    {
      "inputs": [
        {
          "internalType": "address",
          "name": "",
          "type": "address"
        }
      ],
      "name": "tokenPriceFeedMapping",
      "outputs": [
        {
          "internalType": "address",
          "name": "",
          "type": "address"
        }
      ],
      "stateMutability": "view",
      "type": "function"
    },
    {
      "inputs": [
        {
          "internalType": "address",
          "name": "",
          "type": "address"
        }
      ],
      "name": "tokenToClaim",
      "outputs": [
        {
          "internalType": "uint256",
          "name": "",
          "type": "uint256"
        }
      ],
      "stateMutability": "view",
      "type": "function"
    },
    {
      "inputs": [
        {
          "internalType": "address",
          "name": "",
          "type": "address"
        }
      ],
      "name": "tokenToYieldRate",
      "outputs": [
        {
          "internalType": "uint256",
          "name": "",
          "type": "uint256"
        }
      ],
      "stateMutability": "view",
      "type": "function"
    },
    {
      "inputs": [
        {
          "internalType": "address",
          "name": "newOwner",
          "type": "address"
        }
      ],
      "name": "transferOwnership",
      "outputs": [],
      "stateMutability": "nonpayable",
      "type": "function"
    },
    {
      "inputs": [
        {
          "internalType": "address",
          "name": "",
          "type": "address"
        }
      ],
      "name": "uniqueTokensStaked",
      "outputs": [
        {
          "internalType": "uint256",
          "name": "",
          "type": "uint256"
        }
      ],
      "stateMutability": "view",
      "type": "function"
    },
    {
      "inputs": [
        {
          "internalType": "address",
          "name": "_token",
          "type": "address"
        }
      ],
      "name": "unstakeTokens",
      "outputs": [],
      "stateMutability": "nonpayable",
      "type": "function"
    },
    {
      "inputs": [
        {
          "internalType": "address",
          "name": "_token",
          "type": "address"
        },
        {
          "internalType": "uint256",
          "name": "_newYieldRate",
          "type": "uint256"
        }
      ],
      "name": "updateYieldRate",
      "outputs": [],
      "stateMutability": "nonpayable",
      "type": "function"
    },
    {
      "inputs": [
        {
          "internalType": "address",
          "name": "",
          "type": "address"
        },
        {
          "internalType": "address",
          "name": "",
          "type": "address"
        }
      ],
      "name": "userToTokenToUnrealisedYieldTime",
      "outputs": [
        {
          "internalType": "uint256",
          "name": "",
          "type": "uint256"
        }
      ],
      "stateMutability": "view",
      "type": "function"
    }
  ],
  "bytecode": "60806040523480156200001157600080fd5b5060405162001b0538038062001b058339810160408190526200003491620000de565b6200003f3362000071565b600180546001600160a01b039384166001600160a01b031991821617909155600a805492909316911617905562000116565b600080546001600160a01b038381166001600160a01b0319831681178455604051919092169283917f8be0079c531659141344cd1fd0a4f28419497f9722a3daafe3b4186f6b6457e09190a35050565b80516001600160a01b0381168114620000d957600080fd5b919050565b60008060408385031215620000f257600080fd5b620000fd83620000c1565b91506200010d60208401620000c1565b90509250929050565b6119df80620001266000396000f3fe608060405234801561001057600080fd5b50600436106101575760003560e01c806384436d3e116100c3578063da0f06041161007c578063da0f06041461031c578063dd5b846714610347578063f1c5d6c21461036a578063f2fde38b14610392578063f37a55e4146103a5578063fd5e6dd1146103b857600080fd5b806384436d3e14610292578063877dd39d146102a55780638da5cb5b146102b8578063af3f5e22146102c9578063b83e0234146102dc578063c2fb345a146102fc57600080fd5b80632d1ad8b8116101155780632d1ad8b8146102295780634451d89f1461023c5780634b60ce77146102445780635e5583e5146102575780635e5f2e2614610277578063715018a61461028a57600080fd5b80623676221461015c5780630bea440d14610171578063276b11da1461018457806327927b3e146101aa57806329161a00146101eb5780632b21512414610216575b600080fd5b61016f61016a366004611594565b6103cb565b005b61016f61017f3660046115d0565b610522565b6101976101923660046115fc565b610877565b6040519081526020015b60405180910390f35b6101d36101b8366004611626565b6006602052600090815260409020546001600160a01b031681565b6040516001600160a01b0390911681526020016101a1565b6101976101f93660046115fc565b600460209081526000928352604080842090915290825290205481565b61016f610224366004611626565b6108de565b61016f610237366004611626565b610bdc565b61016f610ec8565b6001546101d3906001600160a01b031681565b610197610265366004611626565b60086020526000908152604090205481565b6101d3610285366004611648565b610f6a565b61016f610f94565b600a546101d3906001600160a01b031681565b61016f6102b33660046115fc565b610fca565b6000546001600160a01b03166101d3565b6101976102d7366004611626565b611022565b6101976102ea366004611626565b60056020526000908152604090205481565b61019761030a366004611626565b60076020526000908152604090205481565b61019761032a3660046115fc565b600960209081526000928352604080842090915290825290205481565b61035a610355366004611626565b6110ab565b60405190151581526020016101a1565b61037d610378366004611626565b611115565b604080519283526020830191909152016101a1565b61016f6103a0366004611626565b611216565b61016f6103b3366004611661565b6112ae565b6101d36103c6366004611648565b61139f565b6000546001600160a01b031633146103fe5760405162461bcd60e51b81526004016103f59061168b565b60405180910390fd5b600380546001810182556000919091527fc2575a0e9e593c00f959f8c92f12db2869c3395a3b0502d05e2516446f71f85b0180546001600160a01b0319166001600160a01b03858116918217909255600a5460405163095ea7b360e01b81529216600483015260001960248301529063095ea7b3906044016020604051808303816000875af1158015610495573d6000803e3d6000fd5b505050506040513d601f19601f820116820180604052508101906104b991906116c0565b6104d55760405162461bcd60e51b81526004016103f5906116e2565b6104df8383610fca565b6104e983826112ae565b6040516001600160a01b038416907f784c8f4dbf0ffedd6e72c76501c545a70f8b203b30a26ce542bf92ba87c248a490600090a2505050565b600082116105895760405162461bcd60e51b815260206004820152602e60248201527f5374616b696e67436f6e74726163743a20416d6f756e74206d7573742062652060448201526d067726561746572207468616e20360941b60648201526084016103f5565b610592816110ab565b6105f55760405162461bcd60e51b815260206004820152602e60248201527f5374616b696e67436f6e74726163743a20546f6b656e2069732063757272656e60448201526d1d1b1e481b9bc8185b1b1bddd95960921b60648201526084016103f5565b6105ff33826113af565b6040516323b872dd60e01b8152336004820152306024820152604481018390526001600160a01b038216906323b872dd906064016020604051808303816000875af1158015610652573d6000803e3d6000fd5b505050506040513d601f19601f8201168201806040525081019061067691906116c0565b6106d15760405162461bcd60e51b815260206004820152602660248201527f5374616b696e67436f6e74726163743a207472616e7366657246726f6d28292060448201526519985a5b195960d21b60648201526084016103f5565b6001600160a01b03811660009081526004602090815260408083203384529091529020546107255733600090815260056020526040902054610714906001611739565b336000908152600560205260409020555b6001600160a01b0381166000908152600460209081526040808320338452909152902054610754908390611739565b6001600160a01b0382166000908152600460209081526040808320338452825280832093909355600590522054600114156107cc57600280546001810182556000919091527f405787fa12a823e0f2b7631cc41b3ba8828b3321ca811111fa75cd3aa3bb5ace0180546001600160a01b031916331790555b600a54604051633d14d1b760e21b81526001600160a01b039091169063f45346dc9061080090849086903090600401611751565b600060405180830381600087803b15801561081a57600080fd5b505af115801561082e573d6000803e3d6000fd5b50506040518481523392506001600160a01b03841691507f17a90bf25d618e67de9bc66de5762d97787b11707d112164ab54c37111467f2b906020015b60405180910390a35050565b600080600061088584611115565b9092509050600061089782600a611858565b6001600160a01b038087166000908152600460209081526040808320938b16835292905220546108c8908590611864565b6108d29190611883565b93505050505b92915050565b6000546001600160a01b031633146109085760405162461bcd60e51b81526004016103f59061168b565b600a80546001600160a01b038381166001600160a01b03198316179092551660005b6003548110156109f65760038181548110610947576109476118a5565b60009182526020909120015460405163095ea7b360e01b81526001600160a01b03858116600483015260001960248301529091169063095ea7b3906044016020604051808303816000875af11580156109a4573d6000803e3d6000fd5b505050506040513d601f19601f820116820180604052508101906109c891906116c0565b6109e45760405162461bcd60e51b81526004016103f5906116e2565b806109ee816118bb565b91505061092a565b5060005b600354811015610b9457600060038281548110610a1957610a196118a5565b60009182526020822001546001600160a01b03169150805b600254811015610aa457600060028281548110610a5057610a506118a5565b60009182526020808320909101546001600160a01b03878116845260048352604080852091909216808552925290912054909150610a8e9084611739565b9250508080610a9c906118bb565b915050610a31565b50604051631a4ca37b60e21b81526001600160a01b038516906369328dec90610ad590859085903090600401611751565b6020604051808303816000875af1158015610af4573d6000803e3d6000fd5b505050506040513d601f19601f82011682018060405250810190610b1891906118d6565b50600a54604051633d14d1b760e21b81526001600160a01b039091169063f45346dc90610b4d90859085903090600401611751565b600060405180830381600087803b158015610b6757600080fd5b505af1158015610b7b573d6000803e3d6000fd5b5050505050508080610b8c906118bb565b9150506109fa565b50604080516001600160a01b038085168252831660208201527f7b3bd21a9c66cb98f4889da8283172936abd92a905d81830738b651eee374d35910160405180910390a15050565b6001600160a01b038116600090815260046020908152604080832033845290915290205480610c615760405162461bcd60e51b815260206004820152602b60248201527f5374616b696e67436f6e74726163743a205374616b696e672062616c616e636560448201526a20616c726561647920302160a81b60648201526084016103f5565b610c6b33836113af565b6001600160a01b038216600090815260046020908152604080832033845282528083208390556005909152902054610ca5906001906118ef565b336000908152600560205260409020819055610dc65760005b600254811015610dc457336001600160a01b031660028281548110610ce557610ce56118a5565b6000918252602090912001546001600160a01b03161415610db25760028054610d10906001906118ef565b81548110610d2057610d206118a5565b600091825260209091200154600280546001600160a01b039092169183908110610d4c57610d4c6118a5565b9060005260206000200160006101000a8154816001600160a01b0302191690836001600160a01b031602179055506002805480610d8b57610d8b611906565b600082815260209020810160001990810180546001600160a01b0319169055019055610dc4565b80610dbc816118bb565b915050610cbe565b505b600a54604051631a4ca37b60e21b81526000916001600160a01b0316906369328dec90610dfb90869086903390600401611751565b6020604051808303816000875af1158015610e1a573d6000803e3d6000fd5b505050506040513d601f19601f82011682018060405250810190610e3e91906118d6565b11610e8b5760405162461bcd60e51b815260206004820152601f60248201527f5374616b696e67436f6e74726163743a207769746864726177206572726f720060448201526064016103f5565b60405181815233906001600160a01b038416907f4c5a68df1e54dd796657dc5832c88515a36dc92548af9951a0ef38dd61a3322e9060200161086b565b610ed133611480565b336000818152600760205260408082208054929055600154905163a9059cbb60e01b815260048101939093526024830182905290916001600160a01b039091169063a9059cbb906044016020604051808303816000875af1158015610f3a573d6000803e3d6000fd5b505050506040513d601f19601f82011682018060405250810190610f5e91906116c0565b610f6757600080fd5b50565b60038181548110610f7a57600080fd5b6000918252602090912001546001600160a01b0316905081565b6000546001600160a01b03163314610fbe5760405162461bcd60e51b81526004016103f59061168b565b610fc86000611528565b565b6000546001600160a01b03163314610ff45760405162461bcd60e51b81526004016103f59061168b565b6001600160a01b03918216600090815260066020526040902080546001600160a01b03191691909216179055565b6001600160a01b03811660009081526005602052604081205461104757506000919050565b6000805b6003548110156110a457611086846003838154811061106c5761106c6118a5565b6000918252602090912001546001600160a01b0316610877565b6110909083611739565b91508061109c816118bb565b91505061104b565b5092915050565b6000805b60035481101561110c57826001600160a01b0316600382815481106110d6576110d66118a5565b6000918252602090912001546001600160a01b031614156110fa5750600192915050565b80611104816118bb565b9150506110af565b50600092915050565b6001600160a01b03808216600090815260066020526040808220548151633fabe5a360e21b815291519293849391169182918491839163feaf968c9160048082019260a0929091908290030181865afa158015611176573d6000803e3d6000fd5b505050506040513d601f19601f8201168201806040525081019061119a9190611936565b5050509150506000826001600160a01b031663313ce5676040518163ffffffff1660e01b8152600401602060405180830381865afa1580156111e0573d6000803e3d6000fd5b505050506040513d601f19601f820116820180604052508101906112049190611986565b919760ff909216965090945050505050565b6000546001600160a01b031633146112405760405162461bcd60e51b81526004016103f59061168b565b6001600160a01b0381166112a55760405162461bcd60e51b815260206004820152602660248201527f4f776e61626c653a206e6577206f776e657220697320746865207a65726f206160448201526564647265737360d01b60648201526084016103f5565b610f6781611528565b6000546001600160a01b031633146112d85760405162461bcd60e51b81526004016103f59061168b565b60005b600254811015611382576001600160a01b03831660009081526004602052604081206002805483919085908110611314576113146118a5565b60009182526020808320909101546001600160a01b0316835282019290925260400190205411156113705761137060028281548110611355576113556118a5565b6000918252602090912001546001600160a01b0316846113af565b8061137a816118bb565b9150506112db565b506001600160a01b03909116600090815260086020526040902055565b60028181548110610f7a57600080fd5b6001600160a01b0382811660009081526009602090815260408083209385168352929052908120805442909155906113e78484610877565b905060006113f583426118ef565b6001600160a01b038516600090815260086020526040812054919250620151809190826103e8836114268789611864565b6114309190611864565b61143a9190611883565b6114449190611883565b6001600160a01b038916600090815260076020526040812080549293508392909190611471908490611739565b90915550505050505050505050565b60005b60035481101561152457600060046000600384815481106114a6576114a66118a5565b60009182526020808320909101546001600160a01b039081168452838201949094526040928301822093871682529290925290205411156115125761151282600383815481106114f8576114f86118a5565b6000918252602090912001546001600160a01b03166113af565b8061151c816118bb565b915050611483565b5050565b600080546001600160a01b038381166001600160a01b0319831681178455604051919092169283917f8be0079c531659141344cd1fd0a4f28419497f9722a3daafe3b4186f6b6457e09190a35050565b80356001600160a01b038116811461158f57600080fd5b919050565b6000806000606084860312156115a957600080fd5b6115b284611578565b92506115c060208501611578565b9150604084013590509250925092565b600080604083850312156115e357600080fd5b823591506115f360208401611578565b90509250929050565b6000806040838503121561160f57600080fd5b61161883611578565b91506115f360208401611578565b60006020828403121561163857600080fd5b61164182611578565b9392505050565b60006020828403121561165a57600080fd5b5035919050565b6000806040838503121561167457600080fd5b61167d83611578565b946020939093013593505050565b6020808252818101527f4f776e61626c653a2063616c6c6572206973206e6f7420746865206f776e6572604082015260600190565b6000602082840312156116d257600080fd5b8151801515811461164157600080fd5b60208082526021908201527f5374616b696e67436f6e74726163743a20617070726f76652829206661696c656040820152601960fa1b606082015260800190565b634e487b7160e01b600052601160045260246000fd5b6000821982111561174c5761174c611723565b500190565b6001600160a01b0393841681526020810192909252909116604082015260600190565b600181815b808511156117af57816000190482111561179557611795611723565b808516156117a257918102915b93841c9390800290611779565b509250929050565b6000826117c6575060016108d8565b816117d3575060006108d8565b81600181146117e957600281146117f35761180f565b60019150506108d8565b60ff84111561180457611804611723565b50506001821b6108d8565b5060208310610133831016604e8410600b8410161715611832575081810a6108d8565b61183c8383611774565b806000190482111561185057611850611723565b029392505050565b600061164183836117b7565b600081600019048311821515161561187e5761187e611723565b500290565b6000826118a057634e487b7160e01b600052601260045260246000fd5b500490565b634e487b7160e01b600052603260045260246000fd5b60006000198214156118cf576118cf611723565b5060010190565b6000602082840312156118e857600080fd5b5051919050565b60008282101561190157611901611723565b500390565b634e487b7160e01b600052603160045260246000fd5b805169ffffffffffffffffffff8116811461158f57600080fd5b600080600080600060a0868803121561194e57600080fd5b6119578661191c565b945060208601519350604086015192506060860151915061197a6080870161191c565b90509295509295909350565b60006020828403121561199857600080fd5b815160ff8116811461164157600080fdfea2646970667358221220c27c85dd2d8699e5daa16e491275ebf4520ead1bdbbdbe85abf555328efe1e3064736f6c634300080b0033",
  "bytecodeSha1": "5c9c3d7f0643c927fe103044bc36aae6e6f57f44",
  "compiler": {
    "evm_version": "istanbul",
    "optimizer": {
      "enabled": true,
      "runs": 200
    },
    "version": "0.8.11+commit.d7f03943"
  },
  "contractName": "StakingContract",
  "language": "Solidity",
  "natspec": {
    "kind": "dev",
    "methods": {
      "addAllowedTokens(address,address,uint256)": {
        "notice": "Add a new _token to the list of stakable token",
        "params": {
          "_pricefeed": "The address for the price feed of _token",
          "_token": "The address of the token"
        }
      },
      "changeLendingProtocol(address)": {
        "notice": "Change the lending protocol",
        "params": {
          "_newLendingProtocol": "The address of the new lending protocol contract"
        }
      },
      "claimToken()": {
        "notice": "Send Earned \"ProjectToken\" to user"
      },
      "getTokenValue(address)": {
        "notice": "Get the value (in USD) of a _token and its decimals()",
        "params": {
          "_token": "The address of the token"
        },
        "returns": {
          "_0": "price The value of _token",
          "_1": "decimals The number of decimals of the _token"
        }
      },
      "getUserSingleTokenValue(address,address)": {
        "notice": "Get the value (in USD) of _token staked by _user",
        "params": {
          "_token": "The address of the token",
          "_user": "The address of the user"
        },
        "returns": {
          "_0": "tokenValue The value of _token staked on the contract by _user"
        }
      },
      "getUserTotalValue(address)": {
        "notice": "Get the total value (in USD) staked by _user",
        "params": {
          "_user": "The address of the user"
        },
        "returns": {
          "_0": "totalValue The total value  of the tokens staked on the contract by _user"
        }
      },
      "owner()": {
        "details": "Returns the address of the current owner."
      },
      "renounceOwnership()": {
        "details": "Leaves the contract without owner. It will not be possible to call `onlyOwner` functions anymore. Can only be called by the current owner. NOTE: Renouncing ownership will leave the contract without an owner, thereby removing any functionality that is only available to the owner."
      },
      "setPriceFeedContract(address,address)": {
        "details": "Gets call automatically when adding new token",
        "notice": "Set the price feed address for an ERC20 token",
        "params": {
          "_priceFeed": "The address of the pricefeed",
          "_token": "The address of the token"
        }
      },
      "stakeTokens(uint256,address)": {
        "notice": "Stake _amount of _token",
        "params": {
          "_amount": "The amount ot stake",
          "_token": "The address of the token"
        }
      },
      "tokenIsAllowed(address)": {
        "notice": "Check wheter a token is stakable on this contract",
        "params": {
          "_token": "The address of the token"
        },
        "returns": {
          "_0": "bool Wheter the token is stakable or not"
        }
      },
      "transferOwnership(address)": {
        "details": "Transfers ownership of the contract to a new account (`newOwner`). Can only be called by the current owner."
      },
      "unstakeTokens(address)": {
        "notice": "Unstake all _token staked",
        "params": {
          "_token": "The address of the token"
        }
      },
      "updateYieldRate(address,uint256)": {
        "params": {
          "_newYieldRate": "The new yield rate",
          "_token": "The address of the token"
        }
      }
    },
    "version": 1
  },
  "opcodes": "PUSH1 0x80 PUSH1 0x40 MSTORE CALLVALUE DUP1 ISZERO PUSH2 0x10 JUMPI PUSH1 0x0 DUP1 REVERT JUMPDEST POP PUSH1 0x4 CALLDATASIZE LT PUSH2 0x157 JUMPI PUSH1 0x0 CALLDATALOAD PUSH1 0xE0 SHR DUP1 PUSH4 0x84436D3E GT PUSH2 0xC3 JUMPI DUP1 PUSH4 0xDA0F0604 GT PUSH2 0x7C JUMPI DUP1 PUSH4 0xDA0F0604 EQ PUSH2 0x31C JUMPI DUP1 PUSH4 0xDD5B8467 EQ PUSH2 0x347 JUMPI DUP1 PUSH4 0xF1C5D6C2 EQ PUSH2 0x36A JUMPI DUP1 PUSH4 0xF2FDE38B EQ PUSH2 0x392 JUMPI DUP1 PUSH4 0xF37A55E4 EQ PUSH2 0x3A5 JUMPI DUP1 PUSH4 0xFD5E6DD1 EQ PUSH2 0x3B8 JUMPI PUSH1 0x0 DUP1 REVERT JUMPDEST DUP1 PUSH4 0x84436D3E EQ PUSH2 0x292 JUMPI DUP1 PUSH4 0x877DD39D EQ PUSH2 0x2A5 JUMPI DUP1 PUSH4 0x8DA5CB5B EQ PUSH2 0x2B8 JUMPI DUP1 PUSH4 0xAF3F5E22 EQ PUSH2 0x2C9 JUMPI DUP1 PUSH4 0xB83E0234 EQ PUSH2 0x2DC JUMPI DUP1 PUSH4 0xC2FB345A EQ PUSH2 0x2FC JUMPI PUSH1 0x0 DUP1 REVERT JUMPDEST DUP1 PUSH4 0x2D1AD8B8 GT PUSH2 0x115 JUMPI DUP1 PUSH4 0x2D1AD8B8 EQ PUSH2 0x229 JUMPI DUP1 PUSH4 0x4451D89F EQ PUSH2 0x23C JUMPI DUP1 PUSH4 0x4B60CE77 EQ PUSH2 0x244 JUMPI DUP1 PUSH4 0x5E5583E5 EQ PUSH2 0x257 JUMPI DUP1 PUSH4 0x5E5F2E26 EQ PUSH2 0x277 JUMPI DUP1 PUSH4 0x715018A6 EQ PUSH2 0x28A JUMPI PUSH1 0x0 DUP1 REVERT JUMPDEST DUP1 PUSH3 0x367622 EQ PUSH2 0x15C JUMPI DUP1 PUSH4 0xBEA440D EQ PUSH2 0x171 JUMPI DUP1 PUSH4 0x276B11DA EQ PUSH2 0x184 JUMPI DUP1 PUSH4 0x27927B3E EQ PUSH2 0x1AA JUMPI DUP1 PUSH4 0x29161A00 EQ PUSH2 0x1EB JUMPI DUP1 PUSH4 0x2B215124 EQ PUSH2 0x216 JUMPI JUMPDEST PUSH1 0x0 DUP1 REVERT JUMPDEST PUSH2 0x16F PUSH2 0x16A CALLDATASIZE PUSH1 0x4 PUSH2 0x1594 JUMP JUMPDEST PUSH2 0x3CB JUMP JUMPDEST STOP JUMPDEST PUSH2 0x16F PUSH2 0x17F CALLDATASIZE PUSH1 0x4 PUSH2 0x15D0 JUMP JUMPDEST PUSH2 0x522 JUMP JUMPDEST PUSH2 0x197 PUSH2 0x192 CALLDATASIZE PUSH1 0x4 PUSH2 0x15FC JUMP JUMPDEST PUSH2 0x877 JUMP JUMPDEST PUSH1 0x40 MLOAD SWAP1 DUP2 MSTORE PUSH1 0x20 ADD JUMPDEST PUSH1 0x40 MLOAD DUP1 SWAP2 SUB SWAP1 RETURN JUMPDEST PUSH2 0x1D3 PUSH2 0x1B8 CALLDATASIZE PUSH1 0x4 PUSH2 0x1626 JUMP JUMPDEST PUSH1 0x6 PUSH1 0x20 MSTORE PUSH1 0x0 SWAP1 DUP2 MSTORE PUSH1 0x40 SWAP1 KECCAK256 SLOAD PUSH1 0x1 PUSH1 0x1 PUSH1 0xA0 SHL SUB AND DUP2 JUMP JUMPDEST PUSH1 0x40 MLOAD PUSH1 0x1 PUSH1 0x1 PUSH1 0xA0 SHL SUB SWAP1 SWAP2 AND DUP2 MSTORE PUSH1 0x20 ADD PUSH2 0x1A1 JUMP JUMPDEST PUSH2 0x197 PUSH2 0x1F9 CALLDATASIZE PUSH1 0x4 PUSH2 0x15FC JUMP JUMPDEST PUSH1 0x4 PUSH1 0x20 SWAP1 DUP2 MSTORE PUSH1 0x0 SWAP3 DUP4 MSTORE PUSH1 0x40 DUP1 DUP5 KECCAK256 SWAP1 SWAP2 MSTORE SWAP1 DUP3 MSTORE SWAP1 KECCAK256 SLOAD DUP2 JUMP JUMPDEST PUSH2 0x16F PUSH2 0x224 CALLDATASIZE PUSH1 0x4 PUSH2 0x1626 JUMP JUMPDEST PUSH2 0x8DE JUMP JUMPDEST PUSH2 0x16F PUSH2 0x237 CALLDATASIZE PUSH1 0x4 PUSH2 0x1626 JUMP JUMPDEST PUSH2 0xBDC JUMP JUMPDEST PUSH2 0x16F PUSH2 0xEC8 JUMP JUMPDEST PUSH1 0x1 SLOAD PUSH2 0x1D3 SWAP1 PUSH1 0x1 PUSH1 0x1 PUSH1 0xA0 SHL SUB AND DUP2 JUMP JUMPDEST PUSH2 0x197 PUSH2 0x265 CALLDATASIZE PUSH1 0x4 PUSH2 0x1626 JUMP JUMPDEST PUSH1 0x8 PUSH1 0x20 MSTORE PUSH1 0x0 SWAP1 DUP2 MSTORE PUSH1 0x40 SWAP1 KECCAK256 SLOAD DUP2 JUMP JUMPDEST PUSH2 0x1D3 PUSH2 0x285 CALLDATASIZE PUSH1 0x4 PUSH2 0x1648 JUMP JUMPDEST PUSH2 0xF6A JUMP JUMPDEST PUSH2 0x16F PUSH2 0xF94 JUMP JUMPDEST PUSH1 0xA SLOAD PUSH2 0x1D3 SWAP1 PUSH1 0x1 PUSH1 0x1 PUSH1 0xA0 SHL SUB AND DUP2 JUMP JUMPDEST PUSH2 0x16F PUSH2 0x2B3 CALLDATASIZE PUSH1 0x4 PUSH2 0x15FC JUMP JUMPDEST PUSH2 0xFCA JUMP JUMPDEST PUSH1 0x0 SLOAD PUSH1 0x1 PUSH1 0x1 PUSH1 0xA0 SHL SUB AND PUSH2 0x1D3 JUMP JUMPDEST PUSH2 0x197 PUSH2 0x2D7 CALLDATASIZE PUSH1 0x4 PUSH2 0x1626 JUMP JUMPDEST PUSH2 0x1022 JUMP JUMPDEST PUSH2 0x197 PUSH2 0x2EA CALLDATASIZE PUSH1 0x4 PUSH2 0x1626 JUMP JUMPDEST PUSH1 0x5 PUSH1 0x20 MSTORE PUSH1 0x0 SWAP1 DUP2 MSTORE PUSH1 0x40 SWAP1 KECCAK256 SLOAD DUP2 JUMP JUMPDEST PUSH2 0x197 PUSH2 0x30A CALLDATASIZE PUSH1 0x4 PUSH2 0x1626 JUMP JUMPDEST PUSH1 0x7 PUSH1 0x20 MSTORE PUSH1 0x0 SWAP1 DUP2 MSTORE PUSH1 0x40 SWAP1 KECCAK256 SLOAD DUP2 JUMP JUMPDEST PUSH2 0x197 PUSH2 0x32A CALLDATASIZE PUSH1 0x4 PUSH2 0x15FC JUMP JUMPDEST PUSH1 0x9 PUSH1 0x20 SWAP1 DUP2 MSTORE PUSH1 0x0 SWAP3 DUP4 MSTORE PUSH1 0x40 DUP1 DUP5 KECCAK256 SWAP1 SWAP2 MSTORE SWAP1 DUP3 MSTORE SWAP1 KECCAK256 SLOAD DUP2 JUMP JUMPDEST PUSH2 0x35A PUSH2 0x355 CALLDATASIZE PUSH1 0x4 PUSH2 0x1626 JUMP JUMPDEST PUSH2 0x10AB JUMP JUMPDEST PUSH1 0x40 MLOAD SWAP1 ISZERO ISZERO DUP2 MSTORE PUSH1 0x20 ADD PUSH2 0x1A1 JUMP JUMPDEST PUSH2 0x37D PUSH2 0x378 CALLDATASIZE PUSH1 0x4 PUSH2 0x1626 JUMP JUMPDEST PUSH2 0x1115 JUMP JUMPDEST PUSH1 0x40 DUP1 MLOAD SWAP3 DUP4 MSTORE PUSH1 0x20 DUP4 ADD SWAP2 SWAP1 SWAP2 MSTORE ADD PUSH2 0x1A1 JUMP JUMPDEST PUSH2 0x16F PUSH2 0x3A0 CALLDATASIZE PUSH1 0x4 PUSH2 0x1626 JUMP JUMPDEST PUSH2 0x1216 JUMP JUMPDEST PUSH2 0x16F PUSH2 0x3B3 CALLDATASIZE PUSH1 0x4 PUSH2 0x1661 JUMP JUMPDEST PUSH2 0x12AE JUMP JUMPDEST PUSH2 0x1D3 PUSH2 0x3C6 CALLDATASIZE PUSH1 0x4 PUSH2 0x1648 JUMP JUMPDEST PUSH2 0x139F JUMP JUMPDEST PUSH1 0x0 SLOAD PUSH1 0x1 PUSH1 0x1 PUSH1 0xA0 SHL SUB AND CALLER EQ PUSH2 0x3FE JUMPI PUSH1 0x40 MLOAD PUSH3 0x461BCD PUSH1 0xE5 SHL DUP2 MSTORE PUSH1 0x4 ADD PUSH2 0x3F5 SWAP1 PUSH2 0x168B JUMP JUMPDEST PUSH1 0x40 MLOAD DUP1 SWAP2 SUB SWAP1 REVERT JUMPDEST PUSH1 0x3 DUP1 SLOAD PUSH1 0x1 DUP2 ADD DUP3 SSTORE PUSH1 0x0 SWAP2 SWAP1 SWAP2 MSTORE PUSH32 0xC2575A0E9E593C00F959F8C92F12DB2869C3395A3B0502D05E2516446F71F85B ADD DUP1 SLOAD PUSH1 0x1 PUSH1 0x1 PUSH1 0xA0 SHL SUB NOT AND PUSH1 0x1 PUSH1 0x1 PUSH1 0xA0 SHL SUB DUP6 DUP2 AND SWAP2 DUP3 OR SWAP1 SWAP3 SSTORE PUSH1 0xA SLOAD PUSH1 0x40 MLOAD PUSH4 0x95EA7B3 PUSH1 0xE0 SHL DUP2 MSTORE SWAP3 AND PUSH1 0x4 DUP4 ADD MSTORE PUSH1 0x0 NOT PUSH1 0x24 DUP4 ADD MSTORE SWAP1 PUSH4 0x95EA7B3 SWAP1 PUSH1 0x44 ADD PUSH1 0x20 PUSH1 0x40 MLOAD DUP1 DUP4 SUB DUP2 PUSH1 0x0 DUP8 GAS CALL ISZERO DUP1 ISZERO PUSH2 0x495 JUMPI RETURNDATASIZE PUSH1 0x0 DUP1 RETURNDATACOPY RETURNDATASIZE PUSH1 0x0 REVERT JUMPDEST POP POP POP POP PUSH1 0x40 MLOAD RETURNDATASIZE PUSH1 0x1F NOT PUSH1 0x1F DUP3 ADD AND DUP3 ADD DUP1 PUSH1 0x40 MSTORE POP DUP2 ADD SWAP1 PUSH2 0x4B9 SWAP2 SWAP1 PUSH2 0x16C0 JUMP JUMPDEST PUSH2 0x4D5 JUMPI PUSH1 0x40 MLOAD PUSH3 0x461BCD PUSH1 0xE5 SHL DUP2 MSTORE PUSH1 0x4 ADD PUSH2 0x3F5 SWAP1 PUSH2 0x16E2 JUMP JUMPDEST PUSH2 0x4DF DUP4 DUP4 PUSH2 0xFCA JUMP JUMPDEST PUSH2 0x4E9 DUP4 DUP3 PUSH2 0x12AE JUMP JUMPDEST PUSH1 0x40 MLOAD PUSH1 0x1 PUSH1 0x1 PUSH1 0xA0 SHL SUB DUP5 AND SWAP1 PUSH32 0x784C8F4DBF0FFEDD6E72C76501C545A70F8B203B30A26CE542BF92BA87C248A4 SWAP1 PUSH1 0x0 SWAP1 LOG2 POP POP POP JUMP JUMPDEST PUSH1 0x0 DUP3 GT PUSH2 0x589 JUMPI PUSH1 0x40 MLOAD PUSH3 0x461BCD PUSH1 0xE5 SHL DUP2 MSTORE PUSH1 0x20 PUSH1 0x4 DUP3 ADD MSTORE PUSH1 0x2E PUSH1 0x24 DUP3 ADD MSTORE PUSH32 0x5374616B696E67436F6E74726163743A20416D6F756E74206D75737420626520 PUSH1 0x44 DUP3 ADD MSTORE PUSH14 0x67726561746572207468616E203 PUSH1 0x94 SHL PUSH1 0x64 DUP3 ADD MSTORE PUSH1 0x84 ADD PUSH2 0x3F5 JUMP JUMPDEST PUSH2 0x592 DUP2 PUSH2 0x10AB JUMP JUMPDEST PUSH2 0x5F5 JUMPI PUSH1 0x40 MLOAD PUSH3 0x461BCD PUSH1 0xE5 SHL DUP2 MSTORE PUSH1 0x20 PUSH1 0x4 DUP3 ADD MSTORE PUSH1 0x2E PUSH1 0x24 DUP3 ADD MSTORE PUSH32 0x5374616B696E67436F6E74726163743A20546F6B656E2069732063757272656E PUSH1 0x44 DUP3 ADD MSTORE PUSH14 0x1D1B1E481B9BC8185B1B1BDDD959 PUSH1 0x92 SHL PUSH1 0x64 DUP3 ADD MSTORE PUSH1 0x84 ADD PUSH2 0x3F5 JUMP JUMPDEST PUSH2 0x5FF CALLER DUP3 PUSH2 0x13AF JUMP JUMPDEST PUSH1 0x40 MLOAD PUSH4 0x23B872DD PUSH1 0xE0 SHL DUP2 MSTORE CALLER PUSH1 0x4 DUP3 ADD MSTORE ADDRESS PUSH1 0x24 DUP3 ADD MSTORE PUSH1 0x44 DUP2 ADD DUP4 SWAP1 MSTORE PUSH1 0x1 PUSH1 0x1 PUSH1 0xA0 SHL SUB DUP3 AND SWAP1 PUSH4 0x23B872DD SWAP1 PUSH1 0x64 ADD PUSH1 0x20 PUSH1 0x40 MLOAD DUP1 DUP4 SUB DUP2 PUSH1 0x0 DUP8 GAS CALL ISZERO DUP1 ISZERO PUSH2 0x652 JUMPI RETURNDATASIZE PUSH1 0x0 DUP1 RETURNDATACOPY RETURNDATASIZE PUSH1 0x0 REVERT JUMPDEST POP POP POP POP PUSH1 0x40 MLOAD RETURNDATASIZE PUSH1 0x1F NOT PUSH1 0x1F DUP3 ADD AND DUP3 ADD DUP1 PUSH1 0x40 MSTORE POP DUP2 ADD SWAP1 PUSH2 0x676 SWAP2 SWAP1 PUSH2 0x16C0 JUMP JUMPDEST PUSH2 0x6D1 JUMPI PUSH1 0x40 MLOAD PUSH3 0x461BCD PUSH1 0xE5 SHL DUP2 MSTORE PUSH1 0x20 PUSH1 0x4 DUP3 ADD MSTORE PUSH1 0x26 PUSH1 0x24 DUP3 ADD MSTORE PUSH32 0x5374616B696E67436F6E74726163743A207472616E7366657246726F6D282920 PUSH1 0x44 DUP3 ADD MSTORE PUSH6 0x19985A5B1959 PUSH1 0xD2 SHL PUSH1 0x64 DUP3 ADD MSTORE PUSH1 0x84 ADD PUSH2 0x3F5 JUMP JUMPDEST PUSH1 0x1 PUSH1 0x1 PUSH1 0xA0 SHL SUB DUP2 AND PUSH1 0x0 SWAP1 DUP2 MSTORE PUSH1 0x4 PUSH1 0x20 SWAP1 DUP2 MSTORE PUSH1 0x40 DUP1 DUP4 KECCAK256 CALLER DUP5 MSTORE SWAP1 SWAP2 MSTORE SWAP1 KECCAK256 SLOAD PUSH2 0x725 JUMPI CALLER PUSH1 0x0 SWAP1 DUP2 MSTORE PUSH1 0x5 PUSH1 0x20 MSTORE PUSH1 0x40 SWAP1 KECCAK256 SLOAD PUSH2 0x714 SWAP1 PUSH1 0x1 PUSH2 0x1739 JUMP JUMPDEST CALLER PUSH1 0x0 SWAP1 DUP2 MSTORE PUSH1 0x5 PUSH1 0x20 MSTORE PUSH1 0x40 SWAP1 KECCAK256 SSTORE JUMPDEST PUSH1 0x1 PUSH1 0x1 PUSH1 0xA0 SHL SUB DUP2 AND PUSH1 0x0 SWAP1 DUP2 MSTORE PUSH1 0x4 PUSH1 0x20 SWAP1 DUP2 MSTORE PUSH1 0x40 DUP1 DUP4 KECCAK256 CALLER DUP5 MSTORE SWAP1 SWAP2 MSTORE SWAP1 KECCAK256 SLOAD PUSH2 0x754 SWAP1 DUP4 SWAP1 PUSH2 0x1739 JUMP JUMPDEST PUSH1 0x1 PUSH1 0x1 PUSH1 0xA0 SHL SUB DUP3 AND PUSH1 0x0 SWAP1 DUP2 MSTORE PUSH1 0x4 PUSH1 0x20 SWAP1 DUP2 MSTORE PUSH1 0x40 DUP1 DUP4 KECCAK256 CALLER DUP5 MSTORE DUP3 MSTORE DUP1 DUP4 KECCAK256 SWAP4 SWAP1 SWAP4 SSTORE PUSH1 0x5 SWAP1 MSTORE KECCAK256 SLOAD PUSH1 0x1 EQ ISZERO PUSH2 0x7CC JUMPI PUSH1 0x2 DUP1 SLOAD PUSH1 0x1 DUP2 ADD DUP3 SSTORE PUSH1 0x0 SWAP2 SWAP1 SWAP2 MSTORE PUSH32 0x405787FA12A823E0F2B7631CC41B3BA8828B3321CA811111FA75CD3AA3BB5ACE ADD DUP1 SLOAD PUSH1 0x1 PUSH1 0x1 PUSH1 0xA0 SHL SUB NOT AND CALLER OR SWAP1 SSTORE JUMPDEST PUSH1 0xA SLOAD PUSH1 0x40 MLOAD PUSH4 0x3D14D1B7 PUSH1 0xE2 SHL DUP2 MSTORE PUSH1 0x1 PUSH1 0x1 PUSH1 0xA0 SHL SUB SWAP1 SWAP2 AND SWAP1 PUSH4 0xF45346DC SWAP1 PUSH2 0x800 SWAP1 DUP5 SWAP1 DUP7 SWAP1 ADDRESS SWAP1 PUSH1 0x4 ADD PUSH2 0x1751 JUMP JUMPDEST PUSH1 0x0 PUSH1 0x40 MLOAD DUP1 DUP4 SUB DUP2 PUSH1 0x0 DUP8 DUP1 EXTCODESIZE ISZERO DUP1 ISZERO PUSH2 0x81A JUMPI PUSH1 0x0 DUP1 REVERT JUMPDEST POP GAS CALL ISZERO DUP1 ISZERO PUSH2 0x82E JUMPI RETURNDATASIZE PUSH1 0x0 DUP1 RETURNDATACOPY RETURNDATASIZE PUSH1 0x0 REVERT JUMPDEST POP POP PUSH1 0x40 MLOAD DUP5 DUP2 MSTORE CALLER SWAP3 POP PUSH1 0x1 PUSH1 0x1 PUSH1 0xA0 SHL SUB DUP5 AND SWAP2 POP PUSH32 0x17A90BF25D618E67DE9BC66DE5762D97787B11707D112164AB54C37111467F2B SWAP1 PUSH1 0x20 ADD JUMPDEST PUSH1 0x40 MLOAD DUP1 SWAP2 SUB SWAP1 LOG3 POP POP JUMP JUMPDEST PUSH1 0x0 DUP1 PUSH1 0x0 PUSH2 0x885 DUP5 PUSH2 0x1115 JUMP JUMPDEST SWAP1 SWAP3 POP SWAP1 POP PUSH1 0x0 PUSH2 0x897 DUP3 PUSH1 0xA PUSH2 0x1858 JUMP JUMPDEST PUSH1 0x1 PUSH1 0x1 PUSH1 0xA0 SHL SUB DUP1 DUP8 AND PUSH1 0x0 SWAP1 DUP2 MSTORE PUSH1 0x4 PUSH1 0x20 SWAP1 DUP2 MSTORE PUSH1 0x40 DUP1 DUP4 KECCAK256 SWAP4 DUP12 AND DUP4 MSTORE SWAP3 SWAP1 MSTORE KECCAK256 SLOAD PUSH2 0x8C8 SWAP1 DUP6 SWAP1 PUSH2 0x1864 JUMP JUMPDEST PUSH2 0x8D2 SWAP2 SWAP1 PUSH2 0x1883 JUMP JUMPDEST SWAP4 POP POP POP POP JUMPDEST SWAP3 SWAP2 POP POP JUMP JUMPDEST PUSH1 0x0 SLOAD PUSH1 0x1 PUSH1 0x1 PUSH1 0xA0 SHL SUB AND CALLER EQ PUSH2 0x908 JUMPI PUSH1 0x40 MLOAD PUSH3 0x461BCD PUSH1 0xE5 SHL DUP2 MSTORE PUSH1 0x4 ADD PUSH2 0x3F5 SWAP1 PUSH2 0x168B JUMP JUMPDEST PUSH1 0xA DUP1 SLOAD PUSH1 0x1 PUSH1 0x1 PUSH1 0xA0 SHL SUB DUP4 DUP2 AND PUSH1 0x1 PUSH1 0x1 PUSH1 0xA0 SHL SUB NOT DUP4 AND OR SWAP1 SWAP3 SSTORE AND PUSH1 0x0 JUMPDEST PUSH1 0x3 SLOAD DUP2 LT ISZERO PUSH2 0x9F6 JUMPI PUSH1 0x3 DUP2 DUP2 SLOAD DUP2 LT PUSH2 0x947 JUMPI PUSH2 0x947 PUSH2 0x18A5 JUMP JUMPDEST PUSH1 0x0 SWAP2 DUP3 MSTORE PUSH1 0x20 SWAP1 SWAP2 KECCAK256 ADD SLOAD PUSH1 0x40 MLOAD PUSH4 0x95EA7B3 PUSH1 0xE0 SHL DUP2 MSTORE PUSH1 0x1 PUSH1 0x1 PUSH1 0xA0 SHL SUB DUP6 DUP2 AND PUSH1 0x4 DUP4 ADD MSTORE PUSH1 0x0 NOT PUSH1 0x24 DUP4 ADD MSTORE SWAP1 SWAP2 AND SWAP1 PUSH4 0x95EA7B3 SWAP1 PUSH1 0x44 ADD PUSH1 0x20 PUSH1 0x40 MLOAD DUP1 DUP4 SUB DUP2 PUSH1 0x0 DUP8 GAS CALL ISZERO DUP1 ISZERO PUSH2 0x9A4 JUMPI RETURNDATASIZE PUSH1 0x0 DUP1 RETURNDATACOPY RETURNDATASIZE PUSH1 0x0 REVERT JUMPDEST POP POP POP POP PUSH1 0x40 MLOAD RETURNDATASIZE PUSH1 0x1F NOT PUSH1 0x1F DUP3 ADD AND DUP3 ADD DUP1 PUSH1 0x40 MSTORE POP DUP2 ADD SWAP1 PUSH2 0x9C8 SWAP2 SWAP1 PUSH2 0x16C0 JUMP JUMPDEST PUSH2 0x9E4 JUMPI PUSH1 0x40 MLOAD PUSH3 0x461BCD PUSH1 0xE5 SHL DUP2 MSTORE PUSH1 0x4 ADD PUSH2 0x3F5 SWAP1 PUSH2 0x16E2 JUMP JUMPDEST DUP1 PUSH2 0x9EE DUP2 PUSH2 0x18BB JUMP JUMPDEST SWAP2 POP POP PUSH2 0x92A JUMP JUMPDEST POP PUSH1 0x0 JUMPDEST PUSH1 0x3 SLOAD DUP2 LT ISZERO PUSH2 0xB94 JUMPI PUSH1 0x0 PUSH1 0x3 DUP3 DUP2 SLOAD DUP2 LT PUSH2 0xA19 JUMPI PUSH2 0xA19 PUSH2 0x18A5 JUMP JUMPDEST PUSH1 0x0 SWAP2 DUP3 MSTORE PUSH1 0x20 DUP3 KECCAK256 ADD SLOAD PUSH1 0x1 PUSH1 0x1 PUSH1 0xA0 SHL SUB AND SWAP2 POP DUP1 JUMPDEST PUSH1 0x2 SLOAD DUP2 LT ISZERO PUSH2 0xAA4 JUMPI PUSH1 0x0 PUSH1 0x2 DUP3 DUP2 SLOAD DUP2 LT PUSH2 0xA50 JUMPI PUSH2 0xA50 PUSH2 0x18A5 JUMP JUMPDEST PUSH1 0x0 SWAP2 DUP3 MSTORE PUSH1 0x20 DUP1 DUP4 KECCAK256 SWAP1 SWAP2 ADD SLOAD PUSH1 0x1 PUSH1 0x1 PUSH1 0xA0 SHL SUB DUP8 DUP2 AND DUP5 MSTORE PUSH1 0x4 DUP4 MSTORE PUSH1 0x40 DUP1 DUP6 KECCAK256 SWAP2 SWAP1 SWAP3 AND DUP1 DUP6 MSTORE SWAP3 MSTORE SWAP1 SWAP2 KECCAK256 SLOAD SWAP1 SWAP2 POP PUSH2 0xA8E SWAP1 DUP5 PUSH2 0x1739 JUMP JUMPDEST SWAP3 POP POP DUP1 DUP1 PUSH2 0xA9C SWAP1 PUSH2 0x18BB JUMP JUMPDEST SWAP2 POP POP PUSH2 0xA31 JUMP JUMPDEST POP PUSH1 0x40 MLOAD PUSH4 0x1A4CA37B PUSH1 0xE2 SHL DUP2 MSTORE PUSH1 0x1 PUSH1 0x1 PUSH1 0xA0 SHL SUB DUP6 AND SWAP1 PUSH4 0x69328DEC SWAP1 PUSH2 0xAD5 SWAP1 DUP6 SWAP1 DUP6 SWAP1 ADDRESS SWAP1 PUSH1 0x4 ADD PUSH2 0x1751 JUMP JUMPDEST PUSH1 0x20 PUSH1 0x40 MLOAD DUP1 DUP4 SUB DUP2 PUSH1 0x0 DUP8 GAS CALL ISZERO DUP1 ISZERO PUSH2 0xAF4 JUMPI RETURNDATASIZE PUSH1 0x0 DUP1 RETURNDATACOPY RETURNDATASIZE PUSH1 0x0 REVERT JUMPDEST POP POP POP POP PUSH1 0x40 MLOAD RETURNDATASIZE PUSH1 0x1F NOT PUSH1 0x1F DUP3 ADD AND DUP3 ADD DUP1 PUSH1 0x40 MSTORE POP DUP2 ADD SWAP1 PUSH2 0xB18 SWAP2 SWAP1 PUSH2 0x18D6 JUMP JUMPDEST POP PUSH1 0xA SLOAD PUSH1 0x40 MLOAD PUSH4 0x3D14D1B7 PUSH1 0xE2 SHL DUP2 MSTORE PUSH1 0x1 PUSH1 0x1 PUSH1 0xA0 SHL SUB SWAP1 SWAP2 AND SWAP1 PUSH4 0xF45346DC SWAP1 PUSH2 0xB4D SWAP1 DUP6 SWAP1 DUP6 SWAP1 ADDRESS SWAP1 PUSH1 0x4 ADD PUSH2 0x1751 JUMP JUMPDEST PUSH1 0x0 PUSH1 0x40 MLOAD DUP1 DUP4 SUB DUP2 PUSH1 0x0 DUP8 DUP1 EXTCODESIZE ISZERO DUP1 ISZERO PUSH2 0xB67 JUMPI PUSH1 0x0 DUP1 REVERT JUMPDEST POP GAS CALL ISZERO DUP1 ISZERO PUSH2 0xB7B JUMPI RETURNDATASIZE PUSH1 0x0 DUP1 RETURNDATACOPY RETURNDATASIZE PUSH1 0x0 REVERT JUMPDEST POP POP POP POP POP POP DUP1 DUP1 PUSH2 0xB8C SWAP1 PUSH2 0x18BB JUMP JUMPDEST SWAP2 POP POP PUSH2 0x9FA JUMP JUMPDEST POP PUSH1 0x40 DUP1 MLOAD PUSH1 0x1 PUSH1 0x1 PUSH1 0xA0 SHL SUB DUP1 DUP6 AND DUP3 MSTORE DUP4 AND PUSH1 0x20 DUP3 ADD MSTORE PUSH32 0x7B3BD21A9C66CB98F4889DA8283172936ABD92A905D81830738B651EEE374D35 SWAP2 ADD PUSH1 0x40 MLOAD DUP1 SWAP2 SUB SWAP1 LOG1 POP POP JUMP JUMPDEST PUSH1 0x1 PUSH1 0x1 PUSH1 0xA0 SHL SUB DUP2 AND PUSH1 0x0 SWAP1 DUP2 MSTORE PUSH1 0x4 PUSH1 0x20 SWAP1 DUP2 MSTORE PUSH1 0x40 DUP1 DUP4 KECCAK256 CALLER DUP5 MSTORE SWAP1 SWAP2 MSTORE SWAP1 KECCAK256 SLOAD DUP1 PUSH2 0xC61 JUMPI PUSH1 0x40 MLOAD PUSH3 0x461BCD PUSH1 0xE5 SHL DUP2 MSTORE PUSH1 0x20 PUSH1 0x4 DUP3 ADD MSTORE PUSH1 0x2B PUSH1 0x24 DUP3 ADD MSTORE PUSH32 0x5374616B696E67436F6E74726163743A205374616B696E672062616C616E6365 PUSH1 0x44 DUP3 ADD MSTORE PUSH11 0x20616C7265616479203021 PUSH1 0xA8 SHL PUSH1 0x64 DUP3 ADD MSTORE PUSH1 0x84 ADD PUSH2 0x3F5 JUMP JUMPDEST PUSH2 0xC6B CALLER DUP4 PUSH2 0x13AF JUMP JUMPDEST PUSH1 0x1 PUSH1 0x1 PUSH1 0xA0 SHL SUB DUP3 AND PUSH1 0x0 SWAP1 DUP2 MSTORE PUSH1 0x4 PUSH1 0x20 SWAP1 DUP2 MSTORE PUSH1 0x40 DUP1 DUP4 KECCAK256 CALLER DUP5 MSTORE DUP3 MSTORE DUP1 DUP4 KECCAK256 DUP4 SWAP1 SSTORE PUSH1 0x5 SWAP1 SWAP2 MSTORE SWAP1 KECCAK256 SLOAD PUSH2 0xCA5 SWAP1 PUSH1 0x1 SWAP1 PUSH2 0x18EF JUMP JUMPDEST CALLER PUSH1 0x0 SWAP1 DUP2 MSTORE PUSH1 0x5 PUSH1 0x20 MSTORE PUSH1 0x40 SWAP1 KECCAK256 DUP2 SWAP1 SSTORE PUSH2 0xDC6 JUMPI PUSH1 0x0 JUMPDEST PUSH1 0x2 SLOAD DUP2 LT ISZERO PUSH2 0xDC4 JUMPI CALLER PUSH1 0x1 PUSH1 0x1 PUSH1 0xA0 SHL SUB AND PUSH1 0x2 DUP3 DUP2 SLOAD DUP2 LT PUSH2 0xCE5 JUMPI PUSH2 0xCE5 PUSH2 0x18A5 JUMP JUMPDEST PUSH1 0x0 SWAP2 DUP3 MSTORE PUSH1 0x20 SWAP1 SWAP2 KECCAK256 ADD SLOAD PUSH1 0x1 PUSH1 0x1 PUSH1 0xA0 SHL SUB AND EQ ISZERO PUSH2 0xDB2 JUMPI PUSH1 0x2 DUP1 SLOAD PUSH2 0xD10 SWAP1 PUSH1 0x1 SWAP1 PUSH2 0x18EF JUMP JUMPDEST DUP2 SLOAD DUP2 LT PUSH2 0xD20 JUMPI PUSH2 0xD20 PUSH2 0x18A5 JUMP JUMPDEST PUSH1 0x0 SWAP2 DUP3 MSTORE PUSH1 0x20 SWAP1 SWAP2 KECCAK256 ADD SLOAD PUSH1 0x2 DUP1 SLOAD PUSH1 0x1 PUSH1 0x1 PUSH1 0xA0 SHL SUB SWAP1 SWAP3 AND SWAP2 DUP4 SWAP1 DUP2 LT PUSH2 0xD4C JUMPI PUSH2 0xD4C PUSH2 0x18A5 JUMP JUMPDEST SWAP1 PUSH1 0x0 MSTORE PUSH1 0x20 PUSH1 0x0 KECCAK256 ADD PUSH1 0x0 PUSH2 0x100 EXP DUP2 SLOAD DUP2 PUSH1 0x1 PUSH1 0x1 PUSH1 0xA0 SHL SUB MUL NOT AND SWAP1 DUP4 PUSH1 0x1 PUSH1 0x1 PUSH1 0xA0 SHL SUB AND MUL OR SWAP1 SSTORE POP PUSH1 0x2 DUP1 SLOAD DUP1 PUSH2 0xD8B JUMPI PUSH2 0xD8B PUSH2 0x1906 JUMP JUMPDEST PUSH1 0x0 DUP3 DUP2 MSTORE PUSH1 0x20 SWAP1 KECCAK256 DUP2 ADD PUSH1 0x0 NOT SWAP1 DUP2 ADD DUP1 SLOAD PUSH1 0x1 PUSH1 0x1 PUSH1 0xA0 SHL SUB NOT AND SWAP1 SSTORE ADD SWAP1 SSTORE PUSH2 0xDC4 JUMP JUMPDEST DUP1 PUSH2 0xDBC DUP2 PUSH2 0x18BB JUMP JUMPDEST SWAP2 POP POP PUSH2 0xCBE JUMP JUMPDEST POP JUMPDEST PUSH1 0xA SLOAD PUSH1 0x40 MLOAD PUSH4 0x1A4CA37B PUSH1 0xE2 SHL DUP2 MSTORE PUSH1 0x0 SWAP2 PUSH1 0x1 PUSH1 0x1 PUSH1 0xA0 SHL SUB AND SWAP1 PUSH4 0x69328DEC SWAP1 PUSH2 0xDFB SWAP1 DUP7 SWAP1 DUP7 SWAP1 CALLER SWAP1 PUSH1 0x4 ADD PUSH2 0x1751 JUMP JUMPDEST PUSH1 0x20 PUSH1 0x40 MLOAD DUP1 DUP4 SUB DUP2 PUSH1 0x0 DUP8 GAS CALL ISZERO DUP1 ISZERO PUSH2 0xE1A JUMPI RETURNDATASIZE PUSH1 0x0 DUP1 RETURNDATACOPY RETURNDATASIZE PUSH1 0x0 REVERT JUMPDEST POP POP POP POP PUSH1 0x40 MLOAD RETURNDATASIZE PUSH1 0x1F NOT PUSH1 0x1F DUP3 ADD AND DUP3 ADD DUP1 PUSH1 0x40 MSTORE POP DUP2 ADD SWAP1 PUSH2 0xE3E SWAP2 SWAP1 PUSH2 0x18D6 JUMP JUMPDEST GT PUSH2 0xE8B JUMPI PUSH1 0x40 MLOAD PUSH3 0x461BCD PUSH1 0xE5 SHL DUP2 MSTORE PUSH1 0x20 PUSH1 0x4 DUP3 ADD MSTORE PUSH1 0x1F PUSH1 0x24 DUP3 ADD MSTORE PUSH32 0x5374616B696E67436F6E74726163743A207769746864726177206572726F7200 PUSH1 0x44 DUP3 ADD MSTORE PUSH1 0x64 ADD PUSH2 0x3F5 JUMP JUMPDEST PUSH1 0x40 MLOAD DUP2 DUP2 MSTORE CALLER SWAP1 PUSH1 0x1 PUSH1 0x1 PUSH1 0xA0 SHL SUB DUP5 AND SWAP1 PUSH32 0x4C5A68DF1E54DD796657DC5832C88515A36DC92548AF9951A0EF38DD61A3322E SWAP1 PUSH1 0x20 ADD PUSH2 0x86B JUMP JUMPDEST PUSH2 0xED1 CALLER PUSH2 0x1480 JUMP JUMPDEST CALLER PUSH1 0x0 DUP2 DUP2 MSTORE PUSH1 0x7 PUSH1 0x20 MSTORE PUSH1 0x40 DUP1 DUP3 KECCAK256 DUP1 SLOAD SWAP3 SWAP1 SSTORE PUSH1 0x1 SLOAD SWAP1 MLOAD PUSH4 0xA9059CBB PUSH1 0xE0 SHL DUP2 MSTORE PUSH1 0x4 DUP2 ADD SWAP4 SWAP1 SWAP4 MSTORE PUSH1 0x24 DUP4 ADD DUP3 SWAP1 MSTORE SWAP1 SWAP2 PUSH1 0x1 PUSH1 0x1 PUSH1 0xA0 SHL SUB SWAP1 SWAP2 AND SWAP1 PUSH4 0xA9059CBB SWAP1 PUSH1 0x44 ADD PUSH1 0x20 PUSH1 0x40 MLOAD DUP1 DUP4 SUB DUP2 PUSH1 0x0 DUP8 GAS CALL ISZERO DUP1 ISZERO PUSH2 0xF3A JUMPI RETURNDATASIZE PUSH1 0x0 DUP1 RETURNDATACOPY RETURNDATASIZE PUSH1 0x0 REVERT JUMPDEST POP POP POP POP PUSH1 0x40 MLOAD RETURNDATASIZE PUSH1 0x1F NOT PUSH1 0x1F DUP3 ADD AND DUP3 ADD DUP1 PUSH1 0x40 MSTORE POP DUP2 ADD SWAP1 PUSH2 0xF5E SWAP2 SWAP1 PUSH2 0x16C0 JUMP JUMPDEST PUSH2 0xF67 JUMPI PUSH1 0x0 DUP1 REVERT JUMPDEST POP JUMP JUMPDEST PUSH1 0x3 DUP2 DUP2 SLOAD DUP2 LT PUSH2 0xF7A JUMPI PUSH1 0x0 DUP1 REVERT JUMPDEST PUSH1 0x0 SWAP2 DUP3 MSTORE PUSH1 0x20 SWAP1 SWAP2 KECCAK256 ADD SLOAD PUSH1 0x1 PUSH1 0x1 PUSH1 0xA0 SHL SUB AND SWAP1 POP DUP2 JUMP JUMPDEST PUSH1 0x0 SLOAD PUSH1 0x1 PUSH1 0x1 PUSH1 0xA0 SHL SUB AND CALLER EQ PUSH2 0xFBE JUMPI PUSH1 0x40 MLOAD PUSH3 0x461BCD PUSH1 0xE5 SHL DUP2 MSTORE PUSH1 0x4 ADD PUSH2 0x3F5 SWAP1 PUSH2 0x168B JUMP JUMPDEST PUSH2 0xFC8 PUSH1 0x0 PUSH2 0x1528 JUMP JUMPDEST JUMP JUMPDEST PUSH1 0x0 SLOAD PUSH1 0x1 PUSH1 0x1 PUSH1 0xA0 SHL SUB AND CALLER EQ PUSH2 0xFF4 JUMPI PUSH1 0x40 MLOAD PUSH3 0x461BCD PUSH1 0xE5 SHL DUP2 MSTORE PUSH1 0x4 ADD PUSH2 0x3F5 SWAP1 PUSH2 0x168B JUMP JUMPDEST PUSH1 0x1 PUSH1 0x1 PUSH1 0xA0 SHL SUB SWAP2 DUP3 AND PUSH1 0x0 SWAP1 DUP2 MSTORE PUSH1 0x6 PUSH1 0x20 MSTORE PUSH1 0x40 SWAP1 KECCAK256 DUP1 SLOAD PUSH1 0x1 PUSH1 0x1 PUSH1 0xA0 SHL SUB NOT AND SWAP2 SWAP1 SWAP3 AND OR SWAP1 SSTORE JUMP JUMPDEST PUSH1 0x1 PUSH1 0x1 PUSH1 0xA0 SHL SUB DUP2 AND PUSH1 0x0 SWAP1 DUP2 MSTORE PUSH1 0x5 PUSH1 0x20 MSTORE PUSH1 0x40 DUP2 KECCAK256 SLOAD PUSH2 0x1047 JUMPI POP PUSH1 0x0 SWAP2 SWAP1 POP JUMP JUMPDEST PUSH1 0x0 DUP1 JUMPDEST PUSH1 0x3 SLOAD DUP2 LT ISZERO PUSH2 0x10A4 JUMPI PUSH2 0x1086 DUP5 PUSH1 0x3 DUP4 DUP2 SLOAD DUP2 LT PUSH2 0x106C JUMPI PUSH2 0x106C PUSH2 0x18A5 JUMP JUMPDEST PUSH1 0x0 SWAP2 DUP3 MSTORE PUSH1 0x20 SWAP1 SWAP2 KECCAK256 ADD SLOAD PUSH1 0x1 PUSH1 0x1 PUSH1 0xA0 SHL SUB AND PUSH2 0x877 JUMP JUMPDEST PUSH2 0x1090 SWAP1 DUP4 PUSH2 0x1739 JUMP JUMPDEST SWAP2 POP DUP1 PUSH2 0x109C DUP2 PUSH2 0x18BB JUMP JUMPDEST SWAP2 POP POP PUSH2 0x104B JUMP JUMPDEST POP SWAP3 SWAP2 POP POP JUMP JUMPDEST PUSH1 0x0 DUP1 JUMPDEST PUSH1 0x3 SLOAD DUP2 LT ISZERO PUSH2 0x110C JUMPI DUP3 PUSH1 0x1 PUSH1 0x1 PUSH1 0xA0 SHL SUB AND PUSH1 0x3 DUP3 DUP2 SLOAD DUP2 LT PUSH2 0x10D6 JUMPI PUSH2 0x10D6 PUSH2 0x18A5 JUMP JUMPDEST PUSH1 0x0 SWAP2 DUP3 MSTORE PUSH1 0x20 SWAP1 SWAP2 KECCAK256 ADD SLOAD PUSH1 0x1 PUSH1 0x1 PUSH1 0xA0 SHL SUB AND EQ ISZERO PUSH2 0x10FA JUMPI POP PUSH1 0x1 SWAP3 SWAP2 POP POP JUMP JUMPDEST DUP1 PUSH2 0x1104 DUP2 PUSH2 0x18BB JUMP JUMPDEST SWAP2 POP POP PUSH2 0x10AF JUMP JUMPDEST POP PUSH1 0x0 SWAP3 SWAP2 POP POP JUMP JUMPDEST PUSH1 0x1 PUSH1 0x1 PUSH1 0xA0 SHL SUB DUP1 DUP3 AND PUSH1 0x0 SWAP1 DUP2 MSTORE PUSH1 0x6 PUSH1 0x20 MSTORE PUSH1 0x40 DUP1 DUP3 KECCAK256 SLOAD DUP2 MLOAD PUSH4 0x3FABE5A3 PUSH1 0xE2 SHL DUP2 MSTORE SWAP2 MLOAD SWAP3 SWAP4 DUP5 SWAP4 SWAP2 AND SWAP2 DUP3 SWAP2 DUP5 SWAP2 DUP4 SWAP2 PUSH4 0xFEAF968C SWAP2 PUSH1 0x4 DUP1 DUP3 ADD SWAP3 PUSH1 0xA0 SWAP3 SWAP1 SWAP2 SWAP1 DUP3 SWAP1 SUB ADD DUP2 DUP7 GAS STATICCALL ISZERO DUP1 ISZERO PUSH2 0x1176 JUMPI RETURNDATASIZE PUSH1 0x0 DUP1 RETURNDATACOPY RETURNDATASIZE PUSH1 0x0 REVERT JUMPDEST POP POP POP POP PUSH1 0x40 MLOAD RETURNDATASIZE PUSH1 0x1F NOT PUSH1 0x1F DUP3 ADD AND DUP3 ADD DUP1 PUSH1 0x40 MSTORE POP DUP2 ADD SWAP1 PUSH2 0x119A SWAP2 SWAP1 PUSH2 0x1936 JUMP JUMPDEST POP POP POP SWAP2 POP POP PUSH1 0x0 DUP3 PUSH1 0x1 PUSH1 0x1 PUSH1 0xA0 SHL SUB AND PUSH4 0x313CE567 PUSH1 0x40 MLOAD DUP2 PUSH4 0xFFFFFFFF AND PUSH1 0xE0 SHL DUP2 MSTORE PUSH1 0x4 ADD PUSH1 0x20 PUSH1 0x40 MLOAD DUP1 DUP4 SUB DUP2 DUP7 GAS STATICCALL ISZERO DUP1 ISZERO PUSH2 0x11E0 JUMPI RETURNDATASIZE PUSH1 0x0 DUP1 RETURNDATACOPY RETURNDATASIZE PUSH1 0x0 REVERT JUMPDEST POP POP POP POP PUSH1 0x40 MLOAD RETURNDATASIZE PUSH1 0x1F NOT PUSH1 0x1F DUP3 ADD AND DUP3 ADD DUP1 PUSH1 0x40 MSTORE POP DUP2 ADD SWAP1 PUSH2 0x1204 SWAP2 SWAP1 PUSH2 0x1986 JUMP JUMPDEST SWAP2 SWAP8 PUSH1 0xFF SWAP1 SWAP3 AND SWAP7 POP SWAP1 SWAP5 POP POP POP POP POP JUMP JUMPDEST PUSH1 0x0 SLOAD PUSH1 0x1 PUSH1 0x1 PUSH1 0xA0 SHL SUB AND CALLER EQ PUSH2 0x1240 JUMPI PUSH1 0x40 MLOAD PUSH3 0x461BCD PUSH1 0xE5 SHL DUP2 MSTORE PUSH1 0x4 ADD PUSH2 0x3F5 SWAP1 PUSH2 0x168B JUMP JUMPDEST PUSH1 0x1 PUSH1 0x1 PUSH1 0xA0 SHL SUB DUP2 AND PUSH2 0x12A5 JUMPI PUSH1 0x40 MLOAD PUSH3 0x461BCD PUSH1 0xE5 SHL DUP2 MSTORE PUSH1 0x20 PUSH1 0x4 DUP3 ADD MSTORE PUSH1 0x26 PUSH1 0x24 DUP3 ADD MSTORE PUSH32 0x4F776E61626C653A206E6577206F776E657220697320746865207A65726F2061 PUSH1 0x44 DUP3 ADD MSTORE PUSH6 0x646472657373 PUSH1 0xD0 SHL PUSH1 0x64 DUP3 ADD MSTORE PUSH1 0x84 ADD PUSH2 0x3F5 JUMP JUMPDEST PUSH2 0xF67 DUP2 PUSH2 0x1528 JUMP JUMPDEST PUSH1 0x0 SLOAD PUSH1 0x1 PUSH1 0x1 PUSH1 0xA0 SHL SUB AND CALLER EQ PUSH2 0x12D8 JUMPI PUSH1 0x40 MLOAD PUSH3 0x461BCD PUSH1 0xE5 SHL DUP2 MSTORE PUSH1 0x4 ADD PUSH2 0x3F5 SWAP1 PUSH2 0x168B JUMP JUMPDEST PUSH1 0x0 JUMPDEST PUSH1 0x2 SLOAD DUP2 LT ISZERO PUSH2 0x1382 JUMPI PUSH1 0x1 PUSH1 0x1 PUSH1 0xA0 SHL SUB DUP4 AND PUSH1 0x0 SWAP1 DUP2 MSTORE PUSH1 0x4 PUSH1 0x20 MSTORE PUSH1 0x40 DUP2 KECCAK256 PUSH1 0x2 DUP1 SLOAD DUP4 SWAP2 SWAP1 DUP6 SWAP1 DUP2 LT PUSH2 0x1314 JUMPI PUSH2 0x1314 PUSH2 0x18A5 JUMP JUMPDEST PUSH1 0x0 SWAP2 DUP3 MSTORE PUSH1 0x20 DUP1 DUP4 KECCAK256 SWAP1 SWAP2 ADD SLOAD PUSH1 0x1 PUSH1 0x1 PUSH1 0xA0 SHL SUB AND DUP4 MSTORE DUP3 ADD SWAP3 SWAP1 SWAP3 MSTORE PUSH1 0x40 ADD SWAP1 KECCAK256 SLOAD GT ISZERO PUSH2 0x1370 JUMPI PUSH2 0x1370 PUSH1 0x2 DUP3 DUP2 SLOAD DUP2 LT PUSH2 0x1355 JUMPI PUSH2 0x1355 PUSH2 0x18A5 JUMP JUMPDEST PUSH1 0x0 SWAP2 DUP3 MSTORE PUSH1 0x20 SWAP1 SWAP2 KECCAK256 ADD SLOAD PUSH1 0x1 PUSH1 0x1 PUSH1 0xA0 SHL SUB AND DUP5 PUSH2 0x13AF JUMP JUMPDEST DUP1 PUSH2 0x137A DUP2 PUSH2 0x18BB JUMP JUMPDEST SWAP2 POP POP PUSH2 0x12DB JUMP JUMPDEST POP PUSH1 0x1 PUSH1 0x1 PUSH1 0xA0 SHL SUB SWAP1 SWAP2 AND PUSH1 0x0 SWAP1 DUP2 MSTORE PUSH1 0x8 PUSH1 0x20 MSTORE PUSH1 0x40 SWAP1 KECCAK256 SSTORE JUMP JUMPDEST PUSH1 0x2 DUP2 DUP2 SLOAD DUP2 LT PUSH2 0xF7A JUMPI PUSH1 0x0 DUP1 REVERT JUMPDEST PUSH1 0x1 PUSH1 0x1 PUSH1 0xA0 SHL SUB DUP3 DUP2 AND PUSH1 0x0 SWAP1 DUP2 MSTORE PUSH1 0x9 PUSH1 0x20 SWAP1 DUP2 MSTORE PUSH1 0x40 DUP1 DUP4 KECCAK256 SWAP4 DUP6 AND DUP4 MSTORE SWAP3 SWAP1 MSTORE SWAP1 DUP2 KECCAK256 DUP1 SLOAD TIMESTAMP SWAP1 SWAP2 SSTORE SWAP1 PUSH2 0x13E7 DUP5 DUP5 PUSH2 0x877 JUMP JUMPDEST SWAP1 POP PUSH1 0x0 PUSH2 0x13F5 DUP4 TIMESTAMP PUSH2 0x18EF JUMP JUMPDEST PUSH1 0x1 PUSH1 0x1 PUSH1 0xA0 SHL SUB DUP6 AND PUSH1 0x0 SWAP1 DUP2 MSTORE PUSH1 0x8 PUSH1 0x20 MSTORE PUSH1 0x40 DUP2 KECCAK256 SLOAD SWAP2 SWAP3 POP PUSH3 0x15180 SWAP2 SWAP1 DUP3 PUSH2 0x3E8 DUP4 PUSH2 0x1426 DUP8 DUP10 PUSH2 0x1864 JUMP JUMPDEST PUSH2 0x1430 SWAP2 SWAP1 PUSH2 0x1864 JUMP JUMPDEST PUSH2 0x143A SWAP2 SWAP1 PUSH2 0x1883 JUMP JUMPDEST PUSH2 0x1444 SWAP2 SWAP1 PUSH2 0x1883 JUMP JUMPDEST PUSH1 0x1 PUSH1 0x1 PUSH1 0xA0 SHL SUB DUP10 AND PUSH1 0x0 SWAP1 DUP2 MSTORE PUSH1 0x7 PUSH1 0x20 MSTORE PUSH1 0x40 DUP2 KECCAK256 DUP1 SLOAD SWAP3 SWAP4 POP DUP4 SWAP3 SWAP1 SWAP2 SWAP1 PUSH2 0x1471 SWAP1 DUP5 SWAP1 PUSH2 0x1739 JUMP JUMPDEST SWAP1 SWAP2 SSTORE POP POP POP POP POP POP POP POP POP POP JUMP JUMPDEST PUSH1 0x0 JUMPDEST PUSH1 0x3 SLOAD DUP2 LT ISZERO PUSH2 0x1524 JUMPI PUSH1 0x0 PUSH1 0x4 PUSH1 0x0 PUSH1 0x3 DUP5 DUP2 SLOAD DUP2 LT PUSH2 0x14A6 JUMPI PUSH2 0x14A6 PUSH2 0x18A5 JUMP JUMPDEST PUSH1 0x0 SWAP2 DUP3 MSTORE PUSH1 0x20 DUP1 DUP4 KECCAK256 SWAP1 SWAP2 ADD SLOAD PUSH1 0x1 PUSH1 0x1 PUSH1 0xA0 SHL SUB SWAP1 DUP2 AND DUP5 MSTORE DUP4 DUP3 ADD SWAP5 SWAP1 SWAP5 MSTORE PUSH1 0x40 SWAP3 DUP4 ADD DUP3 KECCAK256 SWAP4 DUP8 AND DUP3 MSTORE SWAP3 SWAP1 SWAP3 MSTORE SWAP1 KECCAK256 SLOAD GT ISZERO PUSH2 0x1512 JUMPI PUSH2 0x1512 DUP3 PUSH1 0x3 DUP4 DUP2 SLOAD DUP2 LT PUSH2 0x14F8 JUMPI PUSH2 0x14F8 PUSH2 0x18A5 JUMP JUMPDEST PUSH1 0x0 SWAP2 DUP3 MSTORE PUSH1 0x20 SWAP1 SWAP2 KECCAK256 ADD SLOAD PUSH1 0x1 PUSH1 0x1 PUSH1 0xA0 SHL SUB AND PUSH2 0x13AF JUMP JUMPDEST DUP1 PUSH2 0x151C DUP2 PUSH2 0x18BB JUMP JUMPDEST SWAP2 POP POP PUSH2 0x1483 JUMP JUMPDEST POP POP JUMP JUMPDEST PUSH1 0x0 DUP1 SLOAD PUSH1 0x1 PUSH1 0x1 PUSH1 0xA0 SHL SUB DUP4 DUP2 AND PUSH1 0x1 PUSH1 0x1 PUSH1 0xA0 SHL SUB NOT DUP4 AND DUP2 OR DUP5 SSTORE PUSH1 0x40 MLOAD SWAP2 SWAP1 SWAP3 AND SWAP3 DUP4 SWAP2 PUSH32 0x8BE0079C531659141344CD1FD0A4F28419497F9722A3DAAFE3B4186F6B6457E0 SWAP2 SWAP1 LOG3 POP POP JUMP JUMPDEST DUP1 CALLDATALOAD PUSH1 0x1 PUSH1 0x1 PUSH1 0xA0 SHL SUB DUP2 AND DUP2 EQ PUSH2 0x158F JUMPI PUSH1 0x0 DUP1 REVERT JUMPDEST SWAP2 SWAP1 POP JUMP JUMPDEST PUSH1 0x0 DUP1 PUSH1 0x0 PUSH1 0x60 DUP5 DUP7 SUB SLT ISZERO PUSH2 0x15A9 JUMPI PUSH1 0x0 DUP1 REVERT JUMPDEST PUSH2 0x15B2 DUP5 PUSH2 0x1578 JUMP JUMPDEST SWAP3 POP PUSH2 0x15C0 PUSH1 0x20 DUP6 ADD PUSH2 0x1578 JUMP JUMPDEST SWAP2 POP PUSH1 0x40 DUP5 ADD CALLDATALOAD SWAP1 POP SWAP3 POP SWAP3 POP SWAP3 JUMP JUMPDEST PUSH1 0x0 DUP1 PUSH1 0x40 DUP4 DUP6 SUB SLT ISZERO PUSH2 0x15E3 JUMPI PUSH1 0x0 DUP1 REVERT JUMPDEST DUP3 CALLDATALOAD SWAP2 POP PUSH2 0x15F3 PUSH1 0x20 DUP5 ADD PUSH2 0x1578 JUMP JUMPDEST SWAP1 POP SWAP3 POP SWAP3 SWAP1 POP JUMP JUMPDEST PUSH1 0x0 DUP1 PUSH1 0x40 DUP4 DUP6 SUB SLT ISZERO PUSH2 0x160F JUMPI PUSH1 0x0 DUP1 REVERT JUMPDEST PUSH2 0x1618 DUP4 PUSH2 0x1578 JUMP JUMPDEST SWAP2 POP PUSH2 0x15F3 PUSH1 0x20 DUP5 ADD PUSH2 0x1578 JUMP JUMPDEST PUSH1 0x0 PUSH1 0x20 DUP3 DUP5 SUB SLT ISZERO PUSH2 0x1638 JUMPI PUSH1 0x0 DUP1 REVERT JUMPDEST PUSH2 0x1641 DUP3 PUSH2 0x1578 JUMP JUMPDEST SWAP4 SWAP3 POP POP POP JUMP JUMPDEST PUSH1 0x0 PUSH1 0x20 DUP3 DUP5 SUB SLT ISZERO PUSH2 0x165A JUMPI PUSH1 0x0 DUP1 REVERT JUMPDEST POP CALLDATALOAD SWAP2 SWAP1 POP JUMP JUMPDEST PUSH1 0x0 DUP1 PUSH1 0x40 DUP4 DUP6 SUB SLT ISZERO PUSH2 0x1674 JUMPI PUSH1 0x0 DUP1 REVERT JUMPDEST PUSH2 0x167D DUP4 PUSH2 0x1578 JUMP JUMPDEST SWAP5 PUSH1 0x20 SWAP4 SWAP1 SWAP4 ADD CALLDATALOAD SWAP4 POP POP POP JUMP JUMPDEST PUSH1 0x20 DUP1 DUP3 MSTORE DUP2 DUP2 ADD MSTORE PUSH32 0x4F776E61626C653A2063616C6C6572206973206E6F7420746865206F776E6572 PUSH1 0x40 DUP3 ADD MSTORE PUSH1 0x60 ADD SWAP1 JUMP JUMPDEST PUSH1 0x0 PUSH1 0x20 DUP3 DUP5 SUB SLT ISZERO PUSH2 0x16D2 JUMPI PUSH1 0x0 DUP1 REVERT JUMPDEST DUP2 MLOAD DUP1 ISZERO ISZERO DUP2 EQ PUSH2 0x1641 JUMPI PUSH1 0x0 DUP1 REVERT JUMPDEST PUSH1 0x20 DUP1 DUP3 MSTORE PUSH1 0x21 SWAP1 DUP3 ADD MSTORE PUSH32 0x5374616B696E67436F6E74726163743A20617070726F76652829206661696C65 PUSH1 0x40 DUP3 ADD MSTORE PUSH1 0x19 PUSH1 0xFA SHL PUSH1 0x60 DUP3 ADD MSTORE PUSH1 0x80 ADD SWAP1 JUMP JUMPDEST PUSH4 0x4E487B71 PUSH1 0xE0 SHL PUSH1 0x0 MSTORE PUSH1 0x11 PUSH1 0x4 MSTORE PUSH1 0x24 PUSH1 0x0 REVERT JUMPDEST PUSH1 0x0 DUP3 NOT DUP3 GT ISZERO PUSH2 0x174C JUMPI PUSH2 0x174C PUSH2 0x1723 JUMP JUMPDEST POP ADD SWAP1 JUMP JUMPDEST PUSH1 0x1 PUSH1 0x1 PUSH1 0xA0 SHL SUB SWAP4 DUP5 AND DUP2 MSTORE PUSH1 0x20 DUP2 ADD SWAP3 SWAP1 SWAP3 MSTORE SWAP1 SWAP2 AND PUSH1 0x40 DUP3 ADD MSTORE PUSH1 0x60 ADD SWAP1 JUMP JUMPDEST PUSH1 0x1 DUP2 DUP2 JUMPDEST DUP1 DUP6 GT ISZERO PUSH2 0x17AF JUMPI DUP2 PUSH1 0x0 NOT DIV DUP3 GT ISZERO PUSH2 0x1795 JUMPI PUSH2 0x1795 PUSH2 0x1723 JUMP JUMPDEST DUP1 DUP6 AND ISZERO PUSH2 0x17A2 JUMPI SWAP2 DUP2 MUL SWAP2 JUMPDEST SWAP4 DUP5 SHR SWAP4 SWAP1 DUP1 MUL SWAP1 PUSH2 0x1779 JUMP JUMPDEST POP SWAP3 POP SWAP3 SWAP1 POP JUMP JUMPDEST PUSH1 0x0 DUP3 PUSH2 0x17C6 JUMPI POP PUSH1 0x1 PUSH2 0x8D8 JUMP JUMPDEST DUP2 PUSH2 0x17D3 JUMPI POP PUSH1 0x0 PUSH2 0x8D8 JUMP JUMPDEST DUP2 PUSH1 0x1 DUP2 EQ PUSH2 0x17E9 JUMPI PUSH1 0x2 DUP2 EQ PUSH2 0x17F3 JUMPI PUSH2 0x180F JUMP JUMPDEST PUSH1 0x1 SWAP2 POP POP PUSH2 0x8D8 JUMP JUMPDEST PUSH1 0xFF DUP5 GT ISZERO PUSH2 0x1804 JUMPI PUSH2 0x1804 PUSH2 0x1723 JUMP JUMPDEST POP POP PUSH1 0x1 DUP3 SHL PUSH2 0x8D8 JUMP JUMPDEST POP PUSH1 0x20 DUP4 LT PUSH2 0x133 DUP4 LT AND PUSH1 0x4E DUP5 LT PUSH1 0xB DUP5 LT AND OR ISZERO PUSH2 0x1832 JUMPI POP DUP2 DUP2 EXP PUSH2 0x8D8 JUMP JUMPDEST PUSH2 0x183C DUP4 DUP4 PUSH2 0x1774 JUMP JUMPDEST DUP1 PUSH1 0x0 NOT DIV DUP3 GT ISZERO PUSH2 0x1850 JUMPI PUSH2 0x1850 PUSH2 0x1723 JUMP JUMPDEST MUL SWAP4 SWAP3 POP POP POP JUMP JUMPDEST PUSH1 0x0 PUSH2 0x1641 DUP4 DUP4 PUSH2 0x17B7 JUMP JUMPDEST PUSH1 0x0 DUP2 PUSH1 0x0 NOT DIV DUP4 GT DUP3 ISZERO ISZERO AND ISZERO PUSH2 0x187E JUMPI PUSH2 0x187E PUSH2 0x1723 JUMP JUMPDEST POP MUL SWAP1 JUMP JUMPDEST PUSH1 0x0 DUP3 PUSH2 0x18A0 JUMPI PUSH4 0x4E487B71 PUSH1 0xE0 SHL PUSH1 0x0 MSTORE PUSH1 0x12 PUSH1 0x4 MSTORE PUSH1 0x24 PUSH1 0x0 REVERT JUMPDEST POP DIV SWAP1 JUMP JUMPDEST PUSH4 0x4E487B71 PUSH1 0xE0 SHL PUSH1 0x0 MSTORE PUSH1 0x32 PUSH1 0x4 MSTORE PUSH1 0x24 PUSH1 0x0 REVERT JUMPDEST PUSH1 0x0 PUSH1 0x0 NOT DUP3 EQ ISZERO PUSH2 0x18CF JUMPI PUSH2 0x18CF PUSH2 0x1723 JUMP JUMPDEST POP PUSH1 0x1 ADD SWAP1 JUMP JUMPDEST PUSH1 0x0 PUSH1 0x20 DUP3 DUP5 SUB SLT ISZERO PUSH2 0x18E8 JUMPI PUSH1 0x0 DUP1 REVERT JUMPDEST POP MLOAD SWAP2 SWAP1 POP JUMP JUMPDEST PUSH1 0x0 DUP3 DUP3 LT ISZERO PUSH2 0x1901 JUMPI PUSH2 0x1901 PUSH2 0x1723 JUMP JUMPDEST POP SUB SWAP1 JUMP JUMPDEST PUSH4 0x4E487B71 PUSH1 0xE0 SHL PUSH1 0x0 MSTORE PUSH1 0x31 PUSH1 0x4 MSTORE PUSH1 0x24 PUSH1 0x0 REVERT JUMPDEST DUP1 MLOAD PUSH10 0xFFFFFFFFFFFFFFFFFFFF DUP2 AND DUP2 EQ PUSH2 0x158F JUMPI PUSH1 0x0 DUP1 REVERT JUMPDEST PUSH1 0x0 DUP1 PUSH1 0x0 DUP1 PUSH1 0x0 PUSH1 0xA0 DUP7 DUP9 SUB SLT ISZERO PUSH2 0x194E JUMPI PUSH1 0x0 DUP1 REVERT JUMPDEST PUSH2 0x1957 DUP7 PUSH2 0x191C JUMP JUMPDEST SWAP5 POP PUSH1 0x20 DUP7 ADD MLOAD SWAP4 POP PUSH1 0x40 DUP7 ADD MLOAD SWAP3 POP PUSH1 0x60 DUP7 ADD MLOAD SWAP2 POP PUSH2 0x197A PUSH1 0x80 DUP8 ADD PUSH2 0x191C JUMP JUMPDEST SWAP1 POP SWAP3 SWAP6 POP SWAP3 SWAP6 SWAP1 SWAP4 POP JUMP JUMPDEST PUSH1 0x0 PUSH1 0x20 DUP3 DUP5 SUB SLT ISZERO PUSH2 0x1998 JUMPI PUSH1 0x0 DUP1 REVERT JUMPDEST DUP2 MLOAD PUSH1 0xFF DUP2 AND DUP2 EQ PUSH2 0x1641 JUMPI PUSH1 0x0 DUP1 REVERT INVALID LOG2 PUSH5 0x6970667358 0x22 SLT KECCAK256 0xC2 PUSH29 0x85DD2D8699E5DAA16E491275EBF4520EAD1BDBBDBE85ABF555328EFE1E ADDRESS PUSH5 0x736F6C6343 STOP ADDMOD SIGNEXTEND STOP CALLER ",
  "sha1": "6083cb2916e60cd082397cc59522a78b2a34d8e6",
  "source": "// SPDX-License-Identifier: MIT\npragma solidity ^0.8.0;\n\nimport \"@openzeppelin/contracts/access/Ownable.sol\";\nimport \"@openzeppelin/contracts/token/ERC20/IERC20.sol\";\nimport \"@chainlink/contracts/src/v0.8/interfaces/AggregatorV3Interface.sol\";\n\nimport \"../interfaces/ILendingProtocol.sol\";\n\ncontract StakingContract is Ownable {\n    IERC20 public projectToken;\n    address[] public stakers;\n    address[] public allowedTokens;\n    //ERC20 -> user -> amount stakes\n    mapping(address => mapping(address => uint256)) public stakingBalance;\n    //how many different erc20 token the user has currently staked\n    mapping(address => uint256) public uniqueTokensStaked;\n    // ERC20 -> price feed address\n    mapping(address => address) public tokenPriceFeedMapping;\n    // user -> amount of projectToken they can claimed\n    mapping(address => uint256) public tokenToClaim;\n    // how much token user can earn per amount of time\n    // token earn = total value [USD] * yield/1000 * time period[timestamp] / second_in_days\n    // for a yieldRate of 10, user gain 1% of total value [USD] per day\n    // token -> yieldRate\n    mapping(address => uint256) public tokenToYieldRate;\n    // user => token => time of last update\n    mapping(address => mapping(address => uint256))\n        public userToTokenToUnrealisedYieldTime;\n\n    ILendingProtocol public lendingProtocol;\n\n    // EVENTS\n    event TokenAdded(address indexed token_address);\n    event TokenStaked(\n        address indexed token,\n        address indexed staker,\n        uint256 amount\n    );\n    event TokenUnstaked(\n        address indexed token,\n        address indexed staker,\n        uint256 amount\n    );\n    event LendingProtocolChanged(address newProtocol, address oldProtocol);\n\n    // CONSTRUCTOR\n    constructor(address _projectTokenAddress, address _lendingProtocol) {\n        projectToken = IERC20(_projectTokenAddress);\n        lendingProtocol = ILendingProtocol(_lendingProtocol);\n    }\n\n    // PUBLIC FUNCTIONS\n\n    /// @notice Stake _amount of _token\n    /// @param _amount The amount ot stake\n    /// @param _token The address of the token\n    function stakeTokens(uint256 _amount, address _token) external {\n        // check parameters\n        require(_amount > 0, \"StakingContract: Amount must be greater than 0\");\n        require(\n            tokenIsAllowed(_token),\n            \"StakingContract: Token is currently no allowed\"\n        );\n        //update token to claim (if some amount already staked)\n        _updateOneTokenToClaim(msg.sender, _token);\n        require(\n            IERC20(_token).transferFrom(msg.sender, address(this), _amount),\n            \"StakingContract: transferFrom() failed\"\n        );\n\n        if (stakingBalance[_token][msg.sender] == 0) {\n            uniqueTokensStaked[msg.sender] = uniqueTokensStaked[msg.sender] + 1;\n        }\n\n        stakingBalance[_token][msg.sender] =\n            stakingBalance[_token][msg.sender] +\n            _amount;\n\n        // add user to stakers list pnly if this is their first staking\n        if (uniqueTokensStaked[msg.sender] == 1) {\n            stakers.push(msg.sender);\n        }\n\n        //deposit on lending protocol\n        lendingProtocol.deposit(_token, _amount, address(this));\n        emit TokenStaked(_token, msg.sender, _amount);\n    }\n\n    /// @notice Unstake all _token staked\n    /// @param _token The address of the token\n    function unstakeTokens(address _token) external {\n        //check token to unstake\n        uint256 balance = stakingBalance[_token][msg.sender];\n        require(balance > 0, \"StakingContract: Staking balance already 0!\");\n        //update token to claim\n        _updateOneTokenToClaim(msg.sender, _token);\n        // update contract data\n        stakingBalance[_token][msg.sender] = 0;\n        uniqueTokensStaked[msg.sender] = uniqueTokensStaked[msg.sender] - 1;\n        if (uniqueTokensStaked[msg.sender] == 0) {\n            for (uint256 i = 0; i < stakers.length; i++) {\n                if (stakers[i] == msg.sender) {\n                    stakers[i] = stakers[stakers.length - 1];\n                    stakers.pop();\n                    break;\n                }\n            }\n        }\n\n        //withdraw from lending protocol and send to user\n        //and send tokens to user\n        require(\n            lendingProtocol.withdraw(_token, balance, msg.sender) > 0,\n            \"StakingContract: withdraw error\"\n        );\n        emit TokenUnstaked(_token, msg.sender, balance);\n    }\n\n    /// @notice Send Earned \"ProjectToken\" to user\n    function claimToken() external {\n        //Todo update yield per token in stake/unstake and here do it for each token\n        _updateTokenToClaim(msg.sender);\n        uint256 amount = tokenToClaim[msg.sender];\n        tokenToClaim[msg.sender] = 0;\n        require(projectToken.transfer(msg.sender, amount));\n    }\n\n    /// @notice Check wheter a token is stakable on this contract\n    /// @param _token The address of the token\n    /// @return bool Wheter the token is stakable or not\n    function tokenIsAllowed(address _token) public view returns (bool) {\n        for (uint256 i = 0; i < allowedTokens.length; i++) {\n            if (allowedTokens[i] == _token) {\n                return true;\n            }\n        }\n        return false;\n    }\n\n    /// @notice Get the total value (in USD) staked by _user\n    /// @param _user The address of the user\n    /// @return totalValue The total value  of the tokens staked on the contract by _user\n    function getUserTotalValue(address _user) public view returns (uint256) {\n        if (uniqueTokensStaked[_user] == 0) {\n            return 0;\n        }\n        uint256 totalValue = 0;\n        //for any stakable token\n        for (uint256 i = 0; i < allowedTokens.length; i++) {\n            totalValue += getUserSingleTokenValue(_user, allowedTokens[i]);\n        }\n        return totalValue;\n    }\n\n    /// @notice Get the value (in USD) of _token staked by _user\n    /// @param _user The address of the user\n    /// @param _token The address of the token\n    /// @return tokenValue The value of _token staked on the contract by _user\n    function getUserSingleTokenValue(address _user, address _token)\n        public\n        view\n        returns (uint256)\n    {\n        (uint256 price, uint256 decimals) = getTokenValue(_token);\n        //TODO\n        uint256 tokenValue = ((stakingBalance[_token][_user] * price) /\n            (10**decimals));\n        return tokenValue;\n        //          amt staked                  * price  / 10**8\n        // E.G.     10 WETH                      * 3'000(usd/weth)/ 100_000_000\n    }\n\n    /// @notice Get the value (in USD) of a _token and its decimals()\n    /// @param _token The address of the token\n    /// @return price The value of _token\n    /// @return decimals The number of decimals of the _token\n    function getTokenValue(address _token)\n        public\n        view\n        returns (uint256, uint256)\n    {\n        address priceFeedAddress = tokenPriceFeedMapping[_token];\n        AggregatorV3Interface priceFeed = AggregatorV3Interface(\n            priceFeedAddress\n        );\n        (, int256 price, , , ) = priceFeed.latestRoundData();\n        uint256 decimals = uint256(priceFeed.decimals());\n        return (uint256(price), decimals);\n    }\n\n    // ONLYOWNER\n\n    /// @notice Set the price feed address for an ERC20 token\n    /// @dev Gets call automatically when adding new token\n    /// @param _token The address of the token\n    /// @param _priceFeed The address of the pricefeed\n    function setPriceFeedContract(address _token, address _priceFeed)\n        public\n        onlyOwner\n    {\n        tokenPriceFeedMapping[_token] = _priceFeed;\n    }\n\n    /// @notice Add a new _token to the list of stakable token\n    /// @param _token The address of the token\n    /// @param _pricefeed The address for the price feed of _token\n    function addAllowedTokens(\n        address _token,\n        address _pricefeed,\n        uint256 _yield\n    ) external onlyOwner {\n        allowedTokens.push(_token);\n        require(\n            IERC20(_token).approve(address(lendingProtocol), type(uint256).max),\n            \"StakingContract: approve() failed\"\n        );\n        setPriceFeedContract(_token, _pricefeed);\n        updateYieldRate(_token, _yield);\n        emit TokenAdded(_token);\n    }\n\n    // @notice Update the yield rate for _token\n    /// @param _token The address of the token\n    /// @param _newYieldRate The new yield rate\n    function updateYieldRate(address _token, uint256 _newYieldRate)\n        public\n        onlyOwner\n    {\n        //for all staker who staked _token, we calculate the amount they can claim with the previous yield\n        //before updateing the yield\n        for (uint256 i = 0; i < stakers.length; i++) {\n            if (stakingBalance[_token][stakers[i]] > 0) {\n                _updateOneTokenToClaim(stakers[i], _token);\n            }\n        }\n        //update yield\n        tokenToYieldRate[_token] = _newYieldRate;\n    }\n\n    /// @notice Change the lending protocol\n    /// @param _newLendingProtocol The address of the new lending protocol contract\n    function changeLendingProtocol(address _newLendingProtocol)\n        external\n        onlyOwner\n    {\n        address oldProtocol = address(lendingProtocol);\n        lendingProtocol = ILendingProtocol(_newLendingProtocol);\n        for (uint256 i = 0; i < allowedTokens.length; i++) {\n            require(\n                IERC20(allowedTokens[i]).approve(\n                    _newLendingProtocol,\n                    type(uint256).max\n                ),\n                \"StakingContract: approve() failed\"\n            );\n        }\n        //withdraw and redeposit\n        for (uint256 i = 0; i < allowedTokens.length; i++) {\n            address token = allowedTokens[i];\n            uint256 totalStaked = 0;\n            for (uint256 j = 0; j < stakers.length; j++) {\n                address staker = stakers[j];\n                totalStaked += stakingBalance[token][staker]; //TODO\n            }\n            ILendingProtocol(oldProtocol).withdraw(\n                token,\n                totalStaked,\n                address(this)\n            );\n            lendingProtocol.deposit(token, totalStaked, address(this));\n        }\n        emit LendingProtocolChanged(_newLendingProtocol, oldProtocol);\n    }\n\n    //  INTERNAL FUNCTION\n\n    /// @notice Update the tokenToClaim variable of _user for all token staked\n    /// @param _user The address of the user\n    function _updateTokenToClaim(address _user) internal {\n        //loop through all token\n        for (uint256 i = 0; i < allowedTokens.length; i++) {\n            if (stakingBalance[allowedTokens[i]][_user] > 0) {\n                _updateOneTokenToClaim(_user, allowedTokens[i]);\n            }\n        }\n    }\n\n    /// @notice Update the tokenToClaim variable of _user for _token\n    /// @param _user The address of the user\n    /// @param _token The address of the token\n    function _updateOneTokenToClaim(address _user, address _token) internal {\n        uint256 unrealisedYieldTime = userToTokenToUnrealisedYieldTime[_user][\n            _token\n        ];\n        userToTokenToUnrealisedYieldTime[_user][_token] = block.timestamp;\n\n        uint256 valueStaked = getUserSingleTokenValue(_user, _token);\n        uint256 time = block.timestamp - unrealisedYieldTime;\n        uint256 day = 1 days;\n        uint256 tokenYieldRate = tokenToYieldRate[_token];\n        uint256 additionalYield = ((valueStaked * time * tokenYieldRate) /\n            1000) / day;\n\n        tokenToClaim[_user] += additionalYield;\n    }\n}\n",
  "sourcePath": "contracts/StakingContract.sol",
  "type": "contract"
}