{
  "abi": [
    {
      "inputs": [
        {
          "internalType": "address",
          "name": "_projectTokenAddress",
          "type": "address"
        },
        {
          "internalType": "address",
          "name": "_lendingProtocol",
          "type": "address"
        }
      ],
      "stateMutability": "nonpayable",
      "type": "constructor"
    },
    {
      "anonymous": false,
      "inputs": [
        {
          "indexed": false,
          "internalType": "address",
          "name": "newProtocol",
          "type": "address"
        },
        {
          "indexed": false,
          "internalType": "address",
          "name": "oldProtocol",
          "type": "address"
        }
      ],
      "name": "LendingProtocolChanged",
      "type": "event"
    },
    {
      "anonymous": false,
      "inputs": [
        {
          "indexed": true,
          "internalType": "address",
          "name": "previousOwner",
          "type": "address"
        },
        {
          "indexed": true,
          "internalType": "address",
          "name": "newOwner",
          "type": "address"
        }
      ],
      "name": "OwnershipTransferred",
      "type": "event"
    },
    {
      "anonymous": false,
      "inputs": [
        {
          "indexed": true,
          "internalType": "address",
          "name": "token_address",
          "type": "address"
        }
      ],
      "name": "TokenAdded",
      "type": "event"
    },
    {
      "anonymous": false,
      "inputs": [
        {
          "indexed": true,
          "internalType": "address",
          "name": "token",
          "type": "address"
        },
        {
          "indexed": true,
          "internalType": "address",
          "name": "staker",
          "type": "address"
        },
        {
          "indexed": false,
          "internalType": "uint256",
          "name": "amount",
          "type": "uint256"
        }
      ],
      "name": "TokenStaked",
      "type": "event"
    },
    {
      "anonymous": false,
      "inputs": [
        {
          "indexed": true,
          "internalType": "address",
          "name": "token",
          "type": "address"
        },
        {
          "indexed": true,
          "internalType": "address",
          "name": "staker",
          "type": "address"
        },
        {
          "indexed": false,
          "internalType": "uint256",
          "name": "amount",
          "type": "uint256"
        }
      ],
      "name": "TokenUnstaked",
      "type": "event"
    },
    {
      "anonymous": false,
      "inputs": [
        {
          "indexed": true,
          "internalType": "address",
          "name": "token",
          "type": "address"
        },
        {
          "indexed": false,
          "internalType": "uint256",
          "name": "newYield",
          "type": "uint256"
        }
      ],
      "name": "YieldRateChange",
      "type": "event"
    },
    {
      "inputs": [
        {
          "internalType": "address",
          "name": "_token",
          "type": "address"
        },
        {
          "internalType": "address",
          "name": "_pricefeed",
          "type": "address"
        },
        {
          "internalType": "uint256",
          "name": "_yield",
          "type": "uint256"
        }
      ],
      "name": "addAllowedTokens",
      "outputs": [],
      "stateMutability": "nonpayable",
      "type": "function"
    },
    {
      "inputs": [
        {
          "internalType": "uint256",
          "name": "",
          "type": "uint256"
        }
      ],
      "name": "allowedTokens",
      "outputs": [
        {
          "internalType": "address",
          "name": "",
          "type": "address"
        }
      ],
      "stateMutability": "view",
      "type": "function"
    },
    {
      "inputs": [
        {
          "internalType": "address",
          "name": "_newLendingProtocol",
          "type": "address"
        }
      ],
      "name": "changeLendingProtocol",
      "outputs": [],
      "stateMutability": "nonpayable",
      "type": "function"
    },
    {
      "inputs": [],
      "name": "claimToken",
      "outputs": [],
      "stateMutability": "nonpayable",
      "type": "function"
    },
    {
      "inputs": [
        {
          "internalType": "address",
          "name": "_token",
          "type": "address"
        }
      ],
      "name": "getTokenValue",
      "outputs": [
        {
          "internalType": "uint256",
          "name": "",
          "type": "uint256"
        },
        {
          "internalType": "uint256",
          "name": "",
          "type": "uint256"
        }
      ],
      "stateMutability": "view",
      "type": "function"
    },
    {
      "inputs": [
        {
          "internalType": "address",
          "name": "_user",
          "type": "address"
        },
        {
          "internalType": "address",
          "name": "_token",
          "type": "address"
        }
      ],
      "name": "getUserSingleTokenValue",
      "outputs": [
        {
          "internalType": "uint256",
          "name": "",
          "type": "uint256"
        }
      ],
      "stateMutability": "view",
      "type": "function"
    },
    {
      "inputs": [
        {
          "internalType": "address",
          "name": "_user",
          "type": "address"
        }
      ],
      "name": "getUserTotalValue",
      "outputs": [
        {
          "internalType": "uint256",
          "name": "",
          "type": "uint256"
        }
      ],
      "stateMutability": "view",
      "type": "function"
    },
    {
      "inputs": [],
      "name": "lendingProtocol",
      "outputs": [
        {
          "internalType": "contract ILendingProtocol",
          "name": "",
          "type": "address"
        }
      ],
      "stateMutability": "view",
      "type": "function"
    },
    {
      "inputs": [],
      "name": "owner",
      "outputs": [
        {
          "internalType": "address",
          "name": "",
          "type": "address"
        }
      ],
      "stateMutability": "view",
      "type": "function"
    },
    {
      "inputs": [],
      "name": "projectToken",
      "outputs": [
        {
          "internalType": "contract IERC20",
          "name": "",
          "type": "address"
        }
      ],
      "stateMutability": "view",
      "type": "function"
    },
    {
      "inputs": [],
      "name": "renounceOwnership",
      "outputs": [],
      "stateMutability": "nonpayable",
      "type": "function"
    },
    {
      "inputs": [
        {
          "internalType": "address",
          "name": "_token",
          "type": "address"
        },
        {
          "internalType": "address",
          "name": "_priceFeed",
          "type": "address"
        }
      ],
      "name": "setPriceFeedContract",
      "outputs": [],
      "stateMutability": "nonpayable",
      "type": "function"
    },
    {
      "inputs": [
        {
          "internalType": "uint256",
          "name": "_amount",
          "type": "uint256"
        },
        {
          "internalType": "address",
          "name": "_token",
          "type": "address"
        }
      ],
      "name": "stakeTokens",
      "outputs": [],
      "stateMutability": "nonpayable",
      "type": "function"
    },
    {
      "inputs": [
        {
          "internalType": "uint256",
          "name": "",
          "type": "uint256"
        }
      ],
      "name": "stakers",
      "outputs": [
        {
          "internalType": "address",
          "name": "",
          "type": "address"
        }
      ],
      "stateMutability": "view",
      "type": "function"
    },
    {
      "inputs": [
        {
          "internalType": "address",
          "name": "",
          "type": "address"
        },
        {
          "internalType": "address",
          "name": "",
          "type": "address"
        }
      ],
      "name": "stakingBalance",
      "outputs": [
        {
          "internalType": "uint256",
          "name": "",
          "type": "uint256"
        }
      ],
      "stateMutability": "view",
      "type": "function"
    },
    {
      "inputs": [
        {
          "internalType": "address",
          "name": "_token",
          "type": "address"
        }
      ],
      "name": "tokenIsAllowed",
      "outputs": [
        {
          "internalType": "bool",
          "name": "",
          "type": "bool"
        }
      ],
      "stateMutability": "view",
      "type": "function"
    },
    {
      "inputs": [
        {
          "internalType": "address",
          "name": "",
          "type": "address"
        }
      ],
      "name": "tokenPriceFeedMapping",
      "outputs": [
        {
          "internalType": "address",
          "name": "",
          "type": "address"
        }
      ],
      "stateMutability": "view",
      "type": "function"
    },
    {
      "inputs": [
        {
          "internalType": "address",
          "name": "",
          "type": "address"
        }
      ],
      "name": "tokenToClaim",
      "outputs": [
        {
          "internalType": "uint256",
          "name": "",
          "type": "uint256"
        }
      ],
      "stateMutability": "view",
      "type": "function"
    },
    {
      "inputs": [
        {
          "internalType": "address",
          "name": "",
          "type": "address"
        }
      ],
      "name": "tokenToYieldRate",
      "outputs": [
        {
          "internalType": "uint256",
          "name": "",
          "type": "uint256"
        }
      ],
      "stateMutability": "view",
      "type": "function"
    },
    {
      "inputs": [
        {
          "internalType": "address",
          "name": "newOwner",
          "type": "address"
        }
      ],
      "name": "transferOwnership",
      "outputs": [],
      "stateMutability": "nonpayable",
      "type": "function"
    },
    {
      "inputs": [
        {
          "internalType": "address",
          "name": "",
          "type": "address"
        }
      ],
      "name": "uniqueTokensStaked",
      "outputs": [
        {
          "internalType": "uint256",
          "name": "",
          "type": "uint256"
        }
      ],
      "stateMutability": "view",
      "type": "function"
    },
    {
      "inputs": [
        {
          "internalType": "address",
          "name": "_token",
          "type": "address"
        }
      ],
      "name": "unstakeTokens",
      "outputs": [],
      "stateMutability": "nonpayable",
      "type": "function"
    },
    {
      "inputs": [
        {
          "internalType": "address",
          "name": "_token",
          "type": "address"
        },
        {
          "internalType": "uint256",
          "name": "_newYieldRate",
          "type": "uint256"
        }
      ],
      "name": "updateYieldRate",
      "outputs": [],
      "stateMutability": "nonpayable",
      "type": "function"
    },
    {
      "inputs": [
        {
          "internalType": "address",
          "name": "",
          "type": "address"
        },
        {
          "internalType": "address",
          "name": "",
          "type": "address"
        }
      ],
      "name": "userToTokenToUnrealisedYieldTime",
      "outputs": [
        {
          "internalType": "uint256",
          "name": "",
          "type": "uint256"
        }
      ],
      "stateMutability": "view",
      "type": "function"
    }
  ],
  "bytecode": "60806040523480156200001157600080fd5b5060405162001b8538038062001b858339810160408190526200003491620000de565b6200003f3362000071565b600180546001600160a01b039384166001600160a01b031991821617909155600a805492909316911617905562000116565b600080546001600160a01b038381166001600160a01b0319831681178455604051919092169283917f8be0079c531659141344cd1fd0a4f28419497f9722a3daafe3b4186f6b6457e09190a35050565b80516001600160a01b0381168114620000d957600080fd5b919050565b60008060408385031215620000f257600080fd5b620000fd83620000c1565b91506200010d60208401620000c1565b90509250929050565b611a5f80620001266000396000f3fe608060405234801561001057600080fd5b50600436106101575760003560e01c806384436d3e116100c3578063da0f06041161007c578063da0f06041461031c578063dd5b846714610347578063f1c5d6c21461036a578063f2fde38b14610392578063f37a55e4146103a5578063fd5e6dd1146103b857600080fd5b806384436d3e14610292578063877dd39d146102a55780638da5cb5b146102b8578063af3f5e22146102c9578063b83e0234146102dc578063c2fb345a146102fc57600080fd5b80632d1ad8b8116101155780632d1ad8b8146102295780634451d89f1461023c5780634b60ce77146102445780635e5583e5146102575780635e5f2e2614610277578063715018a61461028a57600080fd5b80623676221461015c5780630bea440d14610171578063276b11da1461018457806327927b3e146101aa57806329161a00146101eb5780632b21512414610216575b600080fd5b61016f61016a366004611614565b6103cb565b005b61016f61017f366004611650565b610522565b61019761019236600461167c565b610877565b6040519081526020015b60405180910390f35b6101d36101b83660046116a6565b6006602052600090815260409020546001600160a01b031681565b6040516001600160a01b0390911681526020016101a1565b6101976101f936600461167c565b600460209081526000928352604080842090915290825290205481565b61016f6102243660046116a6565b6108de565b61016f6102373660046116a6565b610bdc565b61016f610ec8565b6001546101d3906001600160a01b031681565b6101976102653660046116a6565b60086020526000908152604090205481565b6101d36102853660046116c8565b610fad565b61016f610fd7565b600a546101d3906001600160a01b031681565b61016f6102b336600461167c565b61100d565b6000546001600160a01b03166101d3565b6101976102d73660046116a6565b611065565b6101976102ea3660046116a6565b60056020526000908152604090205481565b61019761030a3660046116a6565b60076020526000908152604090205481565b61019761032a36600461167c565b600960209081526000928352604080842090915290825290205481565b61035a6103553660046116a6565b6110ee565b60405190151581526020016101a1565b61037d6103783660046116a6565b611158565b604080519283526020830191909152016101a1565b61016f6103a03660046116a6565b611259565b61016f6103b33660046116e1565b6112f1565b6101d36103c63660046116c8565b61141f565b6000546001600160a01b031633146103fe5760405162461bcd60e51b81526004016103f59061170b565b60405180910390fd5b600380546001810182556000919091527fc2575a0e9e593c00f959f8c92f12db2869c3395a3b0502d05e2516446f71f85b0180546001600160a01b0319166001600160a01b03858116918217909255600a5460405163095ea7b360e01b81529216600483015260001960248301529063095ea7b3906044016020604051808303816000875af1158015610495573d6000803e3d6000fd5b505050506040513d601f19601f820116820180604052508101906104b99190611740565b6104d55760405162461bcd60e51b81526004016103f590611762565b6104df838361100d565b6104e983826112f1565b6040516001600160a01b038416907f784c8f4dbf0ffedd6e72c76501c545a70f8b203b30a26ce542bf92ba87c248a490600090a2505050565b600082116105895760405162461bcd60e51b815260206004820152602e60248201527f5374616b696e67436f6e74726163743a20416d6f756e74206d7573742062652060448201526d067726561746572207468616e20360941b60648201526084016103f5565b610592816110ee565b6105f55760405162461bcd60e51b815260206004820152602e60248201527f5374616b696e67436f6e74726163743a20546f6b656e2069732063757272656e60448201526d1d1b1e481b9bc8185b1b1bddd95960921b60648201526084016103f5565b6105ff338261142f565b6040516323b872dd60e01b8152336004820152306024820152604481018390526001600160a01b038216906323b872dd906064016020604051808303816000875af1158015610652573d6000803e3d6000fd5b505050506040513d601f19601f820116820180604052508101906106769190611740565b6106d15760405162461bcd60e51b815260206004820152602660248201527f5374616b696e67436f6e74726163743a207472616e7366657246726f6d28292060448201526519985a5b195960d21b60648201526084016103f5565b6001600160a01b038116600090815260046020908152604080832033845290915290205461072557336000908152600560205260409020546107149060016117b9565b336000908152600560205260409020555b6001600160a01b03811660009081526004602090815260408083203384529091529020546107549083906117b9565b6001600160a01b0382166000908152600460209081526040808320338452825280832093909355600590522054600114156107cc57600280546001810182556000919091527f405787fa12a823e0f2b7631cc41b3ba8828b3321ca811111fa75cd3aa3bb5ace0180546001600160a01b031916331790555b600a54604051633d14d1b760e21b81526001600160a01b039091169063f45346dc90610800908490869030906004016117d1565b600060405180830381600087803b15801561081a57600080fd5b505af115801561082e573d6000803e3d6000fd5b50506040518481523392506001600160a01b03841691507f17a90bf25d618e67de9bc66de5762d97787b11707d112164ab54c37111467f2b906020015b60405180910390a35050565b600080600061088584611158565b9092509050600061089782600a6118d8565b6001600160a01b038087166000908152600460209081526040808320938b16835292905220546108c89085906118e4565b6108d29190611903565b93505050505b92915050565b6000546001600160a01b031633146109085760405162461bcd60e51b81526004016103f59061170b565b600a80546001600160a01b038381166001600160a01b03198316179092551660005b6003548110156109f6576003818154811061094757610947611925565b60009182526020909120015460405163095ea7b360e01b81526001600160a01b03858116600483015260001960248301529091169063095ea7b3906044016020604051808303816000875af11580156109a4573d6000803e3d6000fd5b505050506040513d601f19601f820116820180604052508101906109c89190611740565b6109e45760405162461bcd60e51b81526004016103f590611762565b806109ee8161193b565b91505061092a565b5060005b600354811015610b9457600060038281548110610a1957610a19611925565b60009182526020822001546001600160a01b03169150805b600254811015610aa457600060028281548110610a5057610a50611925565b60009182526020808320909101546001600160a01b03878116845260048352604080852091909216808552925290912054909150610a8e90846117b9565b9250508080610a9c9061193b565b915050610a31565b50604051631a4ca37b60e21b81526001600160a01b038516906369328dec90610ad5908590859030906004016117d1565b6020604051808303816000875af1158015610af4573d6000803e3d6000fd5b505050506040513d601f19601f82011682018060405250810190610b189190611956565b50600a54604051633d14d1b760e21b81526001600160a01b039091169063f45346dc90610b4d908590859030906004016117d1565b600060405180830381600087803b158015610b6757600080fd5b505af1158015610b7b573d6000803e3d6000fd5b5050505050508080610b8c9061193b565b9150506109fa565b50604080516001600160a01b038085168252831660208201527f7b3bd21a9c66cb98f4889da8283172936abd92a905d81830738b651eee374d35910160405180910390a15050565b6001600160a01b038116600090815260046020908152604080832033845290915290205480610c615760405162461bcd60e51b815260206004820152602b60248201527f5374616b696e67436f6e74726163743a205374616b696e672062616c616e636560448201526a20616c726561647920302160a81b60648201526084016103f5565b610c6b338361142f565b6001600160a01b038216600090815260046020908152604080832033845282528083208390556005909152902054610ca59060019061196f565b336000908152600560205260409020819055610dc65760005b600254811015610dc457336001600160a01b031660028281548110610ce557610ce5611925565b6000918252602090912001546001600160a01b03161415610db25760028054610d109060019061196f565b81548110610d2057610d20611925565b600091825260209091200154600280546001600160a01b039092169183908110610d4c57610d4c611925565b9060005260206000200160006101000a8154816001600160a01b0302191690836001600160a01b031602179055506002805480610d8b57610d8b611986565b600082815260209020810160001990810180546001600160a01b0319169055019055610dc4565b80610dbc8161193b565b915050610cbe565b505b600a54604051631a4ca37b60e21b81526000916001600160a01b0316906369328dec90610dfb908690869033906004016117d1565b6020604051808303816000875af1158015610e1a573d6000803e3d6000fd5b505050506040513d601f19601f82011682018060405250810190610e3e9190611956565b11610e8b5760405162461bcd60e51b815260206004820152601f60248201527f5374616b696e67436f6e74726163743a207769746864726177206572726f720060448201526064016103f5565b60405181815233906001600160a01b038416907f4c5a68df1e54dd796657dc5832c88515a36dc92548af9951a0ef38dd61a3322e9060200161086b565b610ed133611500565b336000818152600760205260408082208054929055600154905163a9059cbb60e01b815260048101939093526024830182905290916001600160a01b039091169063a9059cbb906044016020604051808303816000875af1158015610f3a573d6000803e3d6000fd5b505050506040513d601f19601f82011682018060405250810190610f5e9190611740565b610faa5760405162461bcd60e51b815260206004820181905260248201527f5374616b696e67436f6e74726163743a207472616e73666572206661696c656460448201526064016103f5565b50565b60038181548110610fbd57600080fd5b6000918252602090912001546001600160a01b0316905081565b6000546001600160a01b031633146110015760405162461bcd60e51b81526004016103f59061170b565b61100b60006115a8565b565b6000546001600160a01b031633146110375760405162461bcd60e51b81526004016103f59061170b565b6001600160a01b03918216600090815260066020526040902080546001600160a01b03191691909216179055565b6001600160a01b03811660009081526005602052604081205461108a57506000919050565b6000805b6003548110156110e7576110c984600383815481106110af576110af611925565b6000918252602090912001546001600160a01b0316610877565b6110d390836117b9565b9150806110df8161193b565b91505061108e565b5092915050565b6000805b60035481101561114f57826001600160a01b03166003828154811061111957611119611925565b6000918252602090912001546001600160a01b0316141561113d5750600192915050565b806111478161193b565b9150506110f2565b50600092915050565b6001600160a01b03808216600090815260066020526040808220548151633fabe5a360e21b815291519293849391169182918491839163feaf968c9160048082019260a0929091908290030181865afa1580156111b9573d6000803e3d6000fd5b505050506040513d601f19601f820116820180604052508101906111dd91906119b6565b5050509150506000826001600160a01b031663313ce5676040518163ffffffff1660e01b8152600401602060405180830381865afa158015611223573d6000803e3d6000fd5b505050506040513d601f19601f820116820180604052508101906112479190611a06565b919760ff909216965090945050505050565b6000546001600160a01b031633146112835760405162461bcd60e51b81526004016103f59061170b565b6001600160a01b0381166112e85760405162461bcd60e51b815260206004820152602660248201527f4f776e61626c653a206e6577206f776e657220697320746865207a65726f206160448201526564647265737360d01b60648201526084016103f5565b610faa816115a8565b6000546001600160a01b0316331461131b5760405162461bcd60e51b81526004016103f59061170b565b60005b6002548110156113c5576001600160a01b0383166000908152600460205260408120600280548391908590811061135757611357611925565b60009182526020808320909101546001600160a01b0316835282019290925260400190205411156113b3576113b36002828154811061139857611398611925565b6000918252602090912001546001600160a01b03168461142f565b806113bd8161193b565b91505061131e565b506001600160a01b03821660008181526008602052604090819020839055517f954fd12529f1a0a3258b2fd42316d6564987047f4f637f8ea9e434e3f5f5dea0906114139084815260200190565b60405180910390a25050565b60028181548110610fbd57600080fd5b6001600160a01b0382811660009081526009602090815260408083209385168352929052908120805442909155906114678484610877565b90506000611475834261196f565b6001600160a01b038516600090815260086020526040812054919250620151809190826103e8836114a687896118e4565b6114b091906118e4565b6114ba9190611903565b6114c49190611903565b6001600160a01b0389166000908152600760205260408120805492935083929091906114f19084906117b9565b90915550505050505050505050565b60005b6003548110156115a4576000600460006003848154811061152657611526611925565b60009182526020808320909101546001600160a01b0390811684528382019490945260409283018220938716825292909252902054111561159257611592826003838154811061157857611578611925565b6000918252602090912001546001600160a01b031661142f565b8061159c8161193b565b915050611503565b5050565b600080546001600160a01b038381166001600160a01b0319831681178455604051919092169283917f8be0079c531659141344cd1fd0a4f28419497f9722a3daafe3b4186f6b6457e09190a35050565b80356001600160a01b038116811461160f57600080fd5b919050565b60008060006060848603121561162957600080fd5b611632846115f8565b9250611640602085016115f8565b9150604084013590509250925092565b6000806040838503121561166357600080fd5b82359150611673602084016115f8565b90509250929050565b6000806040838503121561168f57600080fd5b611698836115f8565b9150611673602084016115f8565b6000602082840312156116b857600080fd5b6116c1826115f8565b9392505050565b6000602082840312156116da57600080fd5b5035919050565b600080604083850312156116f457600080fd5b6116fd836115f8565b946020939093013593505050565b6020808252818101527f4f776e61626c653a2063616c6c6572206973206e6f7420746865206f776e6572604082015260600190565b60006020828403121561175257600080fd5b815180151581146116c157600080fd5b60208082526021908201527f5374616b696e67436f6e74726163743a20617070726f76652829206661696c656040820152601960fa1b606082015260800190565b634e487b7160e01b600052601160045260246000fd5b600082198211156117cc576117cc6117a3565b500190565b6001600160a01b0393841681526020810192909252909116604082015260600190565b600181815b8085111561182f578160001904821115611815576118156117a3565b8085161561182257918102915b93841c93908002906117f9565b509250929050565b600082611846575060016108d8565b81611853575060006108d8565b816001811461186957600281146118735761188f565b60019150506108d8565b60ff841115611884576118846117a3565b50506001821b6108d8565b5060208310610133831016604e8410600b84101617156118b2575081810a6108d8565b6118bc83836117f4565b80600019048211156118d0576118d06117a3565b029392505050565b60006116c18383611837565b60008160001904831182151516156118fe576118fe6117a3565b500290565b60008261192057634e487b7160e01b600052601260045260246000fd5b500490565b634e487b7160e01b600052603260045260246000fd5b600060001982141561194f5761194f6117a3565b5060010190565b60006020828403121561196857600080fd5b5051919050565b600082821015611981576119816117a3565b500390565b634e487b7160e01b600052603160045260246000fd5b805169ffffffffffffffffffff8116811461160f57600080fd5b600080600080600060a086880312156119ce57600080fd5b6119d78661199c565b94506020860151935060408601519250606086015191506119fa6080870161199c565b90509295509295909350565b600060208284031215611a1857600080fd5b815160ff811681146116c157600080fdfea26469706673582212205676d4b6c31153b7fca46ad0cc5a9495673bd013ab00ef29ee1827b147824cae64736f6c634300080b0033",
  "bytecodeSha1": "54fde36097def9ba4b215ccb255c290a6ac7bc6f",
  "compiler": {
    "evm_version": "istanbul",
    "optimizer": {
      "enabled": true,
      "runs": 200
    },
    "version": "0.8.11+commit.d7f03943"
  },
  "contractName": "StakingContract",
  "language": "Solidity",
  "natspec": {
    "kind": "dev",
    "methods": {
      "addAllowedTokens(address,address,uint256)": {
        "notice": "Add a new _token to the list of stakable token",
        "params": {
          "_pricefeed": "The address for the price feed of _token",
          "_token": "The address of the token"
        }
      },
      "changeLendingProtocol(address)": {
        "notice": "Change the lending protocol",
        "params": {
          "_newLendingProtocol": "The address of the new lending protocol contract"
        }
      },
      "claimToken()": {
        "notice": "Send Earned \"ProjectToken\" to user"
      },
      "getTokenValue(address)": {
        "notice": "Get the value (in USD) of a _token and its decimals()",
        "params": {
          "_token": "The address of the token"
        },
        "returns": {
          "_0": "price The value of _token",
          "_1": "decimals The number of decimals of the _token"
        }
      },
      "getUserSingleTokenValue(address,address)": {
        "notice": "Get the value (in USD) of _token staked by _user",
        "params": {
          "_token": "The address of the token",
          "_user": "The address of the user"
        },
        "returns": {
          "_0": "tokenValue The value of _token staked on the contract by _user"
        }
      },
      "getUserTotalValue(address)": {
        "notice": "Get the total value (in USD) staked by _user",
        "params": {
          "_user": "The address of the user"
        },
        "returns": {
          "_0": "totalValue The total value  of the tokens staked on the contract by _user"
        }
      },
      "owner()": {
        "details": "Returns the address of the current owner."
      },
      "renounceOwnership()": {
        "details": "Leaves the contract without owner. It will not be possible to call `onlyOwner` functions anymore. Can only be called by the current owner. NOTE: Renouncing ownership will leave the contract without an owner, thereby removing any functionality that is only available to the owner."
      },
      "setPriceFeedContract(address,address)": {
        "details": "Gets call automatically when adding new token",
        "notice": "Set the price feed address for an ERC20 token",
        "params": {
          "_priceFeed": "The address of the pricefeed",
          "_token": "The address of the token"
        }
      },
      "stakeTokens(uint256,address)": {
        "notice": "Stake _amount of _token",
        "params": {
          "_amount": "The amount ot stake",
          "_token": "The address of the token"
        }
      },
      "tokenIsAllowed(address)": {
        "notice": "Check wheter a token is stakable on this contract",
        "params": {
          "_token": "The address of the token"
        },
        "returns": {
          "_0": "bool Wheter the token is stakable or not"
        }
      },
      "transferOwnership(address)": {
        "details": "Transfers ownership of the contract to a new account (`newOwner`). Can only be called by the current owner."
      },
      "unstakeTokens(address)": {
        "notice": "Unstake all _token staked",
        "params": {
          "_token": "The address of the token"
        }
      },
      "updateYieldRate(address,uint256)": {
        "params": {
          "_newYieldRate": "The new yield rate",
          "_token": "The address of the token"
        }
      }
    },
    "version": 1
  },
  "opcodes": "PUSH1 0x80 PUSH1 0x40 MSTORE CALLVALUE DUP1 ISZERO PUSH2 0x10 JUMPI PUSH1 0x0 DUP1 REVERT JUMPDEST POP PUSH1 0x4 CALLDATASIZE LT PUSH2 0x157 JUMPI PUSH1 0x0 CALLDATALOAD PUSH1 0xE0 SHR DUP1 PUSH4 0x84436D3E GT PUSH2 0xC3 JUMPI DUP1 PUSH4 0xDA0F0604 GT PUSH2 0x7C JUMPI DUP1 PUSH4 0xDA0F0604 EQ PUSH2 0x31C JUMPI DUP1 PUSH4 0xDD5B8467 EQ PUSH2 0x347 JUMPI DUP1 PUSH4 0xF1C5D6C2 EQ PUSH2 0x36A JUMPI DUP1 PUSH4 0xF2FDE38B EQ PUSH2 0x392 JUMPI DUP1 PUSH4 0xF37A55E4 EQ PUSH2 0x3A5 JUMPI DUP1 PUSH4 0xFD5E6DD1 EQ PUSH2 0x3B8 JUMPI PUSH1 0x0 DUP1 REVERT JUMPDEST DUP1 PUSH4 0x84436D3E EQ PUSH2 0x292 JUMPI DUP1 PUSH4 0x877DD39D EQ PUSH2 0x2A5 JUMPI DUP1 PUSH4 0x8DA5CB5B EQ PUSH2 0x2B8 JUMPI DUP1 PUSH4 0xAF3F5E22 EQ PUSH2 0x2C9 JUMPI DUP1 PUSH4 0xB83E0234 EQ PUSH2 0x2DC JUMPI DUP1 PUSH4 0xC2FB345A EQ PUSH2 0x2FC JUMPI PUSH1 0x0 DUP1 REVERT JUMPDEST DUP1 PUSH4 0x2D1AD8B8 GT PUSH2 0x115 JUMPI DUP1 PUSH4 0x2D1AD8B8 EQ PUSH2 0x229 JUMPI DUP1 PUSH4 0x4451D89F EQ PUSH2 0x23C JUMPI DUP1 PUSH4 0x4B60CE77 EQ PUSH2 0x244 JUMPI DUP1 PUSH4 0x5E5583E5 EQ PUSH2 0x257 JUMPI DUP1 PUSH4 0x5E5F2E26 EQ PUSH2 0x277 JUMPI DUP1 PUSH4 0x715018A6 EQ PUSH2 0x28A JUMPI PUSH1 0x0 DUP1 REVERT JUMPDEST DUP1 PUSH3 0x367622 EQ PUSH2 0x15C JUMPI DUP1 PUSH4 0xBEA440D EQ PUSH2 0x171 JUMPI DUP1 PUSH4 0x276B11DA EQ PUSH2 0x184 JUMPI DUP1 PUSH4 0x27927B3E EQ PUSH2 0x1AA JUMPI DUP1 PUSH4 0x29161A00 EQ PUSH2 0x1EB JUMPI DUP1 PUSH4 0x2B215124 EQ PUSH2 0x216 JUMPI JUMPDEST PUSH1 0x0 DUP1 REVERT JUMPDEST PUSH2 0x16F PUSH2 0x16A CALLDATASIZE PUSH1 0x4 PUSH2 0x1614 JUMP JUMPDEST PUSH2 0x3CB JUMP JUMPDEST STOP JUMPDEST PUSH2 0x16F PUSH2 0x17F CALLDATASIZE PUSH1 0x4 PUSH2 0x1650 JUMP JUMPDEST PUSH2 0x522 JUMP JUMPDEST PUSH2 0x197 PUSH2 0x192 CALLDATASIZE PUSH1 0x4 PUSH2 0x167C JUMP JUMPDEST PUSH2 0x877 JUMP JUMPDEST PUSH1 0x40 MLOAD SWAP1 DUP2 MSTORE PUSH1 0x20 ADD JUMPDEST PUSH1 0x40 MLOAD DUP1 SWAP2 SUB SWAP1 RETURN JUMPDEST PUSH2 0x1D3 PUSH2 0x1B8 CALLDATASIZE PUSH1 0x4 PUSH2 0x16A6 JUMP JUMPDEST PUSH1 0x6 PUSH1 0x20 MSTORE PUSH1 0x0 SWAP1 DUP2 MSTORE PUSH1 0x40 SWAP1 KECCAK256 SLOAD PUSH1 0x1 PUSH1 0x1 PUSH1 0xA0 SHL SUB AND DUP2 JUMP JUMPDEST PUSH1 0x40 MLOAD PUSH1 0x1 PUSH1 0x1 PUSH1 0xA0 SHL SUB SWAP1 SWAP2 AND DUP2 MSTORE PUSH1 0x20 ADD PUSH2 0x1A1 JUMP JUMPDEST PUSH2 0x197 PUSH2 0x1F9 CALLDATASIZE PUSH1 0x4 PUSH2 0x167C JUMP JUMPDEST PUSH1 0x4 PUSH1 0x20 SWAP1 DUP2 MSTORE PUSH1 0x0 SWAP3 DUP4 MSTORE PUSH1 0x40 DUP1 DUP5 KECCAK256 SWAP1 SWAP2 MSTORE SWAP1 DUP3 MSTORE SWAP1 KECCAK256 SLOAD DUP2 JUMP JUMPDEST PUSH2 0x16F PUSH2 0x224 CALLDATASIZE PUSH1 0x4 PUSH2 0x16A6 JUMP JUMPDEST PUSH2 0x8DE JUMP JUMPDEST PUSH2 0x16F PUSH2 0x237 CALLDATASIZE PUSH1 0x4 PUSH2 0x16A6 JUMP JUMPDEST PUSH2 0xBDC JUMP JUMPDEST PUSH2 0x16F PUSH2 0xEC8 JUMP JUMPDEST PUSH1 0x1 SLOAD PUSH2 0x1D3 SWAP1 PUSH1 0x1 PUSH1 0x1 PUSH1 0xA0 SHL SUB AND DUP2 JUMP JUMPDEST PUSH2 0x197 PUSH2 0x265 CALLDATASIZE PUSH1 0x4 PUSH2 0x16A6 JUMP JUMPDEST PUSH1 0x8 PUSH1 0x20 MSTORE PUSH1 0x0 SWAP1 DUP2 MSTORE PUSH1 0x40 SWAP1 KECCAK256 SLOAD DUP2 JUMP JUMPDEST PUSH2 0x1D3 PUSH2 0x285 CALLDATASIZE PUSH1 0x4 PUSH2 0x16C8 JUMP JUMPDEST PUSH2 0xFAD JUMP JUMPDEST PUSH2 0x16F PUSH2 0xFD7 JUMP JUMPDEST PUSH1 0xA SLOAD PUSH2 0x1D3 SWAP1 PUSH1 0x1 PUSH1 0x1 PUSH1 0xA0 SHL SUB AND DUP2 JUMP JUMPDEST PUSH2 0x16F PUSH2 0x2B3 CALLDATASIZE PUSH1 0x4 PUSH2 0x167C JUMP JUMPDEST PUSH2 0x100D JUMP JUMPDEST PUSH1 0x0 SLOAD PUSH1 0x1 PUSH1 0x1 PUSH1 0xA0 SHL SUB AND PUSH2 0x1D3 JUMP JUMPDEST PUSH2 0x197 PUSH2 0x2D7 CALLDATASIZE PUSH1 0x4 PUSH2 0x16A6 JUMP JUMPDEST PUSH2 0x1065 JUMP JUMPDEST PUSH2 0x197 PUSH2 0x2EA CALLDATASIZE PUSH1 0x4 PUSH2 0x16A6 JUMP JUMPDEST PUSH1 0x5 PUSH1 0x20 MSTORE PUSH1 0x0 SWAP1 DUP2 MSTORE PUSH1 0x40 SWAP1 KECCAK256 SLOAD DUP2 JUMP JUMPDEST PUSH2 0x197 PUSH2 0x30A CALLDATASIZE PUSH1 0x4 PUSH2 0x16A6 JUMP JUMPDEST PUSH1 0x7 PUSH1 0x20 MSTORE PUSH1 0x0 SWAP1 DUP2 MSTORE PUSH1 0x40 SWAP1 KECCAK256 SLOAD DUP2 JUMP JUMPDEST PUSH2 0x197 PUSH2 0x32A CALLDATASIZE PUSH1 0x4 PUSH2 0x167C JUMP JUMPDEST PUSH1 0x9 PUSH1 0x20 SWAP1 DUP2 MSTORE PUSH1 0x0 SWAP3 DUP4 MSTORE PUSH1 0x40 DUP1 DUP5 KECCAK256 SWAP1 SWAP2 MSTORE SWAP1 DUP3 MSTORE SWAP1 KECCAK256 SLOAD DUP2 JUMP JUMPDEST PUSH2 0x35A PUSH2 0x355 CALLDATASIZE PUSH1 0x4 PUSH2 0x16A6 JUMP JUMPDEST PUSH2 0x10EE JUMP JUMPDEST PUSH1 0x40 MLOAD SWAP1 ISZERO ISZERO DUP2 MSTORE PUSH1 0x20 ADD PUSH2 0x1A1 JUMP JUMPDEST PUSH2 0x37D PUSH2 0x378 CALLDATASIZE PUSH1 0x4 PUSH2 0x16A6 JUMP JUMPDEST PUSH2 0x1158 JUMP JUMPDEST PUSH1 0x40 DUP1 MLOAD SWAP3 DUP4 MSTORE PUSH1 0x20 DUP4 ADD SWAP2 SWAP1 SWAP2 MSTORE ADD PUSH2 0x1A1 JUMP JUMPDEST PUSH2 0x16F PUSH2 0x3A0 CALLDATASIZE PUSH1 0x4 PUSH2 0x16A6 JUMP JUMPDEST PUSH2 0x1259 JUMP JUMPDEST PUSH2 0x16F PUSH2 0x3B3 CALLDATASIZE PUSH1 0x4 PUSH2 0x16E1 JUMP JUMPDEST PUSH2 0x12F1 JUMP JUMPDEST PUSH2 0x1D3 PUSH2 0x3C6 CALLDATASIZE PUSH1 0x4 PUSH2 0x16C8 JUMP JUMPDEST PUSH2 0x141F JUMP JUMPDEST PUSH1 0x0 SLOAD PUSH1 0x1 PUSH1 0x1 PUSH1 0xA0 SHL SUB AND CALLER EQ PUSH2 0x3FE JUMPI PUSH1 0x40 MLOAD PUSH3 0x461BCD PUSH1 0xE5 SHL DUP2 MSTORE PUSH1 0x4 ADD PUSH2 0x3F5 SWAP1 PUSH2 0x170B JUMP JUMPDEST PUSH1 0x40 MLOAD DUP1 SWAP2 SUB SWAP1 REVERT JUMPDEST PUSH1 0x3 DUP1 SLOAD PUSH1 0x1 DUP2 ADD DUP3 SSTORE PUSH1 0x0 SWAP2 SWAP1 SWAP2 MSTORE PUSH32 0xC2575A0E9E593C00F959F8C92F12DB2869C3395A3B0502D05E2516446F71F85B ADD DUP1 SLOAD PUSH1 0x1 PUSH1 0x1 PUSH1 0xA0 SHL SUB NOT AND PUSH1 0x1 PUSH1 0x1 PUSH1 0xA0 SHL SUB DUP6 DUP2 AND SWAP2 DUP3 OR SWAP1 SWAP3 SSTORE PUSH1 0xA SLOAD PUSH1 0x40 MLOAD PUSH4 0x95EA7B3 PUSH1 0xE0 SHL DUP2 MSTORE SWAP3 AND PUSH1 0x4 DUP4 ADD MSTORE PUSH1 0x0 NOT PUSH1 0x24 DUP4 ADD MSTORE SWAP1 PUSH4 0x95EA7B3 SWAP1 PUSH1 0x44 ADD PUSH1 0x20 PUSH1 0x40 MLOAD DUP1 DUP4 SUB DUP2 PUSH1 0x0 DUP8 GAS CALL ISZERO DUP1 ISZERO PUSH2 0x495 JUMPI RETURNDATASIZE PUSH1 0x0 DUP1 RETURNDATACOPY RETURNDATASIZE PUSH1 0x0 REVERT JUMPDEST POP POP POP POP PUSH1 0x40 MLOAD RETURNDATASIZE PUSH1 0x1F NOT PUSH1 0x1F DUP3 ADD AND DUP3 ADD DUP1 PUSH1 0x40 MSTORE POP DUP2 ADD SWAP1 PUSH2 0x4B9 SWAP2 SWAP1 PUSH2 0x1740 JUMP JUMPDEST PUSH2 0x4D5 JUMPI PUSH1 0x40 MLOAD PUSH3 0x461BCD PUSH1 0xE5 SHL DUP2 MSTORE PUSH1 0x4 ADD PUSH2 0x3F5 SWAP1 PUSH2 0x1762 JUMP JUMPDEST PUSH2 0x4DF DUP4 DUP4 PUSH2 0x100D JUMP JUMPDEST PUSH2 0x4E9 DUP4 DUP3 PUSH2 0x12F1 JUMP JUMPDEST PUSH1 0x40 MLOAD PUSH1 0x1 PUSH1 0x1 PUSH1 0xA0 SHL SUB DUP5 AND SWAP1 PUSH32 0x784C8F4DBF0FFEDD6E72C76501C545A70F8B203B30A26CE542BF92BA87C248A4 SWAP1 PUSH1 0x0 SWAP1 LOG2 POP POP POP JUMP JUMPDEST PUSH1 0x0 DUP3 GT PUSH2 0x589 JUMPI PUSH1 0x40 MLOAD PUSH3 0x461BCD PUSH1 0xE5 SHL DUP2 MSTORE PUSH1 0x20 PUSH1 0x4 DUP3 ADD MSTORE PUSH1 0x2E PUSH1 0x24 DUP3 ADD MSTORE PUSH32 0x5374616B696E67436F6E74726163743A20416D6F756E74206D75737420626520 PUSH1 0x44 DUP3 ADD MSTORE PUSH14 0x67726561746572207468616E203 PUSH1 0x94 SHL PUSH1 0x64 DUP3 ADD MSTORE PUSH1 0x84 ADD PUSH2 0x3F5 JUMP JUMPDEST PUSH2 0x592 DUP2 PUSH2 0x10EE JUMP JUMPDEST PUSH2 0x5F5 JUMPI PUSH1 0x40 MLOAD PUSH3 0x461BCD PUSH1 0xE5 SHL DUP2 MSTORE PUSH1 0x20 PUSH1 0x4 DUP3 ADD MSTORE PUSH1 0x2E PUSH1 0x24 DUP3 ADD MSTORE PUSH32 0x5374616B696E67436F6E74726163743A20546F6B656E2069732063757272656E PUSH1 0x44 DUP3 ADD MSTORE PUSH14 0x1D1B1E481B9BC8185B1B1BDDD959 PUSH1 0x92 SHL PUSH1 0x64 DUP3 ADD MSTORE PUSH1 0x84 ADD PUSH2 0x3F5 JUMP JUMPDEST PUSH2 0x5FF CALLER DUP3 PUSH2 0x142F JUMP JUMPDEST PUSH1 0x40 MLOAD PUSH4 0x23B872DD PUSH1 0xE0 SHL DUP2 MSTORE CALLER PUSH1 0x4 DUP3 ADD MSTORE ADDRESS PUSH1 0x24 DUP3 ADD MSTORE PUSH1 0x44 DUP2 ADD DUP4 SWAP1 MSTORE PUSH1 0x1 PUSH1 0x1 PUSH1 0xA0 SHL SUB DUP3 AND SWAP1 PUSH4 0x23B872DD SWAP1 PUSH1 0x64 ADD PUSH1 0x20 PUSH1 0x40 MLOAD DUP1 DUP4 SUB DUP2 PUSH1 0x0 DUP8 GAS CALL ISZERO DUP1 ISZERO PUSH2 0x652 JUMPI RETURNDATASIZE PUSH1 0x0 DUP1 RETURNDATACOPY RETURNDATASIZE PUSH1 0x0 REVERT JUMPDEST POP POP POP POP PUSH1 0x40 MLOAD RETURNDATASIZE PUSH1 0x1F NOT PUSH1 0x1F DUP3 ADD AND DUP3 ADD DUP1 PUSH1 0x40 MSTORE POP DUP2 ADD SWAP1 PUSH2 0x676 SWAP2 SWAP1 PUSH2 0x1740 JUMP JUMPDEST PUSH2 0x6D1 JUMPI PUSH1 0x40 MLOAD PUSH3 0x461BCD PUSH1 0xE5 SHL DUP2 MSTORE PUSH1 0x20 PUSH1 0x4 DUP3 ADD MSTORE PUSH1 0x26 PUSH1 0x24 DUP3 ADD MSTORE PUSH32 0x5374616B696E67436F6E74726163743A207472616E7366657246726F6D282920 PUSH1 0x44 DUP3 ADD MSTORE PUSH6 0x19985A5B1959 PUSH1 0xD2 SHL PUSH1 0x64 DUP3 ADD MSTORE PUSH1 0x84 ADD PUSH2 0x3F5 JUMP JUMPDEST PUSH1 0x1 PUSH1 0x1 PUSH1 0xA0 SHL SUB DUP2 AND PUSH1 0x0 SWAP1 DUP2 MSTORE PUSH1 0x4 PUSH1 0x20 SWAP1 DUP2 MSTORE PUSH1 0x40 DUP1 DUP4 KECCAK256 CALLER DUP5 MSTORE SWAP1 SWAP2 MSTORE SWAP1 KECCAK256 SLOAD PUSH2 0x725 JUMPI CALLER PUSH1 0x0 SWAP1 DUP2 MSTORE PUSH1 0x5 PUSH1 0x20 MSTORE PUSH1 0x40 SWAP1 KECCAK256 SLOAD PUSH2 0x714 SWAP1 PUSH1 0x1 PUSH2 0x17B9 JUMP JUMPDEST CALLER PUSH1 0x0 SWAP1 DUP2 MSTORE PUSH1 0x5 PUSH1 0x20 MSTORE PUSH1 0x40 SWAP1 KECCAK256 SSTORE JUMPDEST PUSH1 0x1 PUSH1 0x1 PUSH1 0xA0 SHL SUB DUP2 AND PUSH1 0x0 SWAP1 DUP2 MSTORE PUSH1 0x4 PUSH1 0x20 SWAP1 DUP2 MSTORE PUSH1 0x40 DUP1 DUP4 KECCAK256 CALLER DUP5 MSTORE SWAP1 SWAP2 MSTORE SWAP1 KECCAK256 SLOAD PUSH2 0x754 SWAP1 DUP4 SWAP1 PUSH2 0x17B9 JUMP JUMPDEST PUSH1 0x1 PUSH1 0x1 PUSH1 0xA0 SHL SUB DUP3 AND PUSH1 0x0 SWAP1 DUP2 MSTORE PUSH1 0x4 PUSH1 0x20 SWAP1 DUP2 MSTORE PUSH1 0x40 DUP1 DUP4 KECCAK256 CALLER DUP5 MSTORE DUP3 MSTORE DUP1 DUP4 KECCAK256 SWAP4 SWAP1 SWAP4 SSTORE PUSH1 0x5 SWAP1 MSTORE KECCAK256 SLOAD PUSH1 0x1 EQ ISZERO PUSH2 0x7CC JUMPI PUSH1 0x2 DUP1 SLOAD PUSH1 0x1 DUP2 ADD DUP3 SSTORE PUSH1 0x0 SWAP2 SWAP1 SWAP2 MSTORE PUSH32 0x405787FA12A823E0F2B7631CC41B3BA8828B3321CA811111FA75CD3AA3BB5ACE ADD DUP1 SLOAD PUSH1 0x1 PUSH1 0x1 PUSH1 0xA0 SHL SUB NOT AND CALLER OR SWAP1 SSTORE JUMPDEST PUSH1 0xA SLOAD PUSH1 0x40 MLOAD PUSH4 0x3D14D1B7 PUSH1 0xE2 SHL DUP2 MSTORE PUSH1 0x1 PUSH1 0x1 PUSH1 0xA0 SHL SUB SWAP1 SWAP2 AND SWAP1 PUSH4 0xF45346DC SWAP1 PUSH2 0x800 SWAP1 DUP5 SWAP1 DUP7 SWAP1 ADDRESS SWAP1 PUSH1 0x4 ADD PUSH2 0x17D1 JUMP JUMPDEST PUSH1 0x0 PUSH1 0x40 MLOAD DUP1 DUP4 SUB DUP2 PUSH1 0x0 DUP8 DUP1 EXTCODESIZE ISZERO DUP1 ISZERO PUSH2 0x81A JUMPI PUSH1 0x0 DUP1 REVERT JUMPDEST POP GAS CALL ISZERO DUP1 ISZERO PUSH2 0x82E JUMPI RETURNDATASIZE PUSH1 0x0 DUP1 RETURNDATACOPY RETURNDATASIZE PUSH1 0x0 REVERT JUMPDEST POP POP PUSH1 0x40 MLOAD DUP5 DUP2 MSTORE CALLER SWAP3 POP PUSH1 0x1 PUSH1 0x1 PUSH1 0xA0 SHL SUB DUP5 AND SWAP2 POP PUSH32 0x17A90BF25D618E67DE9BC66DE5762D97787B11707D112164AB54C37111467F2B SWAP1 PUSH1 0x20 ADD JUMPDEST PUSH1 0x40 MLOAD DUP1 SWAP2 SUB SWAP1 LOG3 POP POP JUMP JUMPDEST PUSH1 0x0 DUP1 PUSH1 0x0 PUSH2 0x885 DUP5 PUSH2 0x1158 JUMP JUMPDEST SWAP1 SWAP3 POP SWAP1 POP PUSH1 0x0 PUSH2 0x897 DUP3 PUSH1 0xA PUSH2 0x18D8 JUMP JUMPDEST PUSH1 0x1 PUSH1 0x1 PUSH1 0xA0 SHL SUB DUP1 DUP8 AND PUSH1 0x0 SWAP1 DUP2 MSTORE PUSH1 0x4 PUSH1 0x20 SWAP1 DUP2 MSTORE PUSH1 0x40 DUP1 DUP4 KECCAK256 SWAP4 DUP12 AND DUP4 MSTORE SWAP3 SWAP1 MSTORE KECCAK256 SLOAD PUSH2 0x8C8 SWAP1 DUP6 SWAP1 PUSH2 0x18E4 JUMP JUMPDEST PUSH2 0x8D2 SWAP2 SWAP1 PUSH2 0x1903 JUMP JUMPDEST SWAP4 POP POP POP POP JUMPDEST SWAP3 SWAP2 POP POP JUMP JUMPDEST PUSH1 0x0 SLOAD PUSH1 0x1 PUSH1 0x1 PUSH1 0xA0 SHL SUB AND CALLER EQ PUSH2 0x908 JUMPI PUSH1 0x40 MLOAD PUSH3 0x461BCD PUSH1 0xE5 SHL DUP2 MSTORE PUSH1 0x4 ADD PUSH2 0x3F5 SWAP1 PUSH2 0x170B JUMP JUMPDEST PUSH1 0xA DUP1 SLOAD PUSH1 0x1 PUSH1 0x1 PUSH1 0xA0 SHL SUB DUP4 DUP2 AND PUSH1 0x1 PUSH1 0x1 PUSH1 0xA0 SHL SUB NOT DUP4 AND OR SWAP1 SWAP3 SSTORE AND PUSH1 0x0 JUMPDEST PUSH1 0x3 SLOAD DUP2 LT ISZERO PUSH2 0x9F6 JUMPI PUSH1 0x3 DUP2 DUP2 SLOAD DUP2 LT PUSH2 0x947 JUMPI PUSH2 0x947 PUSH2 0x1925 JUMP JUMPDEST PUSH1 0x0 SWAP2 DUP3 MSTORE PUSH1 0x20 SWAP1 SWAP2 KECCAK256 ADD SLOAD PUSH1 0x40 MLOAD PUSH4 0x95EA7B3 PUSH1 0xE0 SHL DUP2 MSTORE PUSH1 0x1 PUSH1 0x1 PUSH1 0xA0 SHL SUB DUP6 DUP2 AND PUSH1 0x4 DUP4 ADD MSTORE PUSH1 0x0 NOT PUSH1 0x24 DUP4 ADD MSTORE SWAP1 SWAP2 AND SWAP1 PUSH4 0x95EA7B3 SWAP1 PUSH1 0x44 ADD PUSH1 0x20 PUSH1 0x40 MLOAD DUP1 DUP4 SUB DUP2 PUSH1 0x0 DUP8 GAS CALL ISZERO DUP1 ISZERO PUSH2 0x9A4 JUMPI RETURNDATASIZE PUSH1 0x0 DUP1 RETURNDATACOPY RETURNDATASIZE PUSH1 0x0 REVERT JUMPDEST POP POP POP POP PUSH1 0x40 MLOAD RETURNDATASIZE PUSH1 0x1F NOT PUSH1 0x1F DUP3 ADD AND DUP3 ADD DUP1 PUSH1 0x40 MSTORE POP DUP2 ADD SWAP1 PUSH2 0x9C8 SWAP2 SWAP1 PUSH2 0x1740 JUMP JUMPDEST PUSH2 0x9E4 JUMPI PUSH1 0x40 MLOAD PUSH3 0x461BCD PUSH1 0xE5 SHL DUP2 MSTORE PUSH1 0x4 ADD PUSH2 0x3F5 SWAP1 PUSH2 0x1762 JUMP JUMPDEST DUP1 PUSH2 0x9EE DUP2 PUSH2 0x193B JUMP JUMPDEST SWAP2 POP POP PUSH2 0x92A JUMP JUMPDEST POP PUSH1 0x0 JUMPDEST PUSH1 0x3 SLOAD DUP2 LT ISZERO PUSH2 0xB94 JUMPI PUSH1 0x0 PUSH1 0x3 DUP3 DUP2 SLOAD DUP2 LT PUSH2 0xA19 JUMPI PUSH2 0xA19 PUSH2 0x1925 JUMP JUMPDEST PUSH1 0x0 SWAP2 DUP3 MSTORE PUSH1 0x20 DUP3 KECCAK256 ADD SLOAD PUSH1 0x1 PUSH1 0x1 PUSH1 0xA0 SHL SUB AND SWAP2 POP DUP1 JUMPDEST PUSH1 0x2 SLOAD DUP2 LT ISZERO PUSH2 0xAA4 JUMPI PUSH1 0x0 PUSH1 0x2 DUP3 DUP2 SLOAD DUP2 LT PUSH2 0xA50 JUMPI PUSH2 0xA50 PUSH2 0x1925 JUMP JUMPDEST PUSH1 0x0 SWAP2 DUP3 MSTORE PUSH1 0x20 DUP1 DUP4 KECCAK256 SWAP1 SWAP2 ADD SLOAD PUSH1 0x1 PUSH1 0x1 PUSH1 0xA0 SHL SUB DUP8 DUP2 AND DUP5 MSTORE PUSH1 0x4 DUP4 MSTORE PUSH1 0x40 DUP1 DUP6 KECCAK256 SWAP2 SWAP1 SWAP3 AND DUP1 DUP6 MSTORE SWAP3 MSTORE SWAP1 SWAP2 KECCAK256 SLOAD SWAP1 SWAP2 POP PUSH2 0xA8E SWAP1 DUP5 PUSH2 0x17B9 JUMP JUMPDEST SWAP3 POP POP DUP1 DUP1 PUSH2 0xA9C SWAP1 PUSH2 0x193B JUMP JUMPDEST SWAP2 POP POP PUSH2 0xA31 JUMP JUMPDEST POP PUSH1 0x40 MLOAD PUSH4 0x1A4CA37B PUSH1 0xE2 SHL DUP2 MSTORE PUSH1 0x1 PUSH1 0x1 PUSH1 0xA0 SHL SUB DUP6 AND SWAP1 PUSH4 0x69328DEC SWAP1 PUSH2 0xAD5 SWAP1 DUP6 SWAP1 DUP6 SWAP1 ADDRESS SWAP1 PUSH1 0x4 ADD PUSH2 0x17D1 JUMP JUMPDEST PUSH1 0x20 PUSH1 0x40 MLOAD DUP1 DUP4 SUB DUP2 PUSH1 0x0 DUP8 GAS CALL ISZERO DUP1 ISZERO PUSH2 0xAF4 JUMPI RETURNDATASIZE PUSH1 0x0 DUP1 RETURNDATACOPY RETURNDATASIZE PUSH1 0x0 REVERT JUMPDEST POP POP POP POP PUSH1 0x40 MLOAD RETURNDATASIZE PUSH1 0x1F NOT PUSH1 0x1F DUP3 ADD AND DUP3 ADD DUP1 PUSH1 0x40 MSTORE POP DUP2 ADD SWAP1 PUSH2 0xB18 SWAP2 SWAP1 PUSH2 0x1956 JUMP JUMPDEST POP PUSH1 0xA SLOAD PUSH1 0x40 MLOAD PUSH4 0x3D14D1B7 PUSH1 0xE2 SHL DUP2 MSTORE PUSH1 0x1 PUSH1 0x1 PUSH1 0xA0 SHL SUB SWAP1 SWAP2 AND SWAP1 PUSH4 0xF45346DC SWAP1 PUSH2 0xB4D SWAP1 DUP6 SWAP1 DUP6 SWAP1 ADDRESS SWAP1 PUSH1 0x4 ADD PUSH2 0x17D1 JUMP JUMPDEST PUSH1 0x0 PUSH1 0x40 MLOAD DUP1 DUP4 SUB DUP2 PUSH1 0x0 DUP8 DUP1 EXTCODESIZE ISZERO DUP1 ISZERO PUSH2 0xB67 JUMPI PUSH1 0x0 DUP1 REVERT JUMPDEST POP GAS CALL ISZERO DUP1 ISZERO PUSH2 0xB7B JUMPI RETURNDATASIZE PUSH1 0x0 DUP1 RETURNDATACOPY RETURNDATASIZE PUSH1 0x0 REVERT JUMPDEST POP POP POP POP POP POP DUP1 DUP1 PUSH2 0xB8C SWAP1 PUSH2 0x193B JUMP JUMPDEST SWAP2 POP POP PUSH2 0x9FA JUMP JUMPDEST POP PUSH1 0x40 DUP1 MLOAD PUSH1 0x1 PUSH1 0x1 PUSH1 0xA0 SHL SUB DUP1 DUP6 AND DUP3 MSTORE DUP4 AND PUSH1 0x20 DUP3 ADD MSTORE PUSH32 0x7B3BD21A9C66CB98F4889DA8283172936ABD92A905D81830738B651EEE374D35 SWAP2 ADD PUSH1 0x40 MLOAD DUP1 SWAP2 SUB SWAP1 LOG1 POP POP JUMP JUMPDEST PUSH1 0x1 PUSH1 0x1 PUSH1 0xA0 SHL SUB DUP2 AND PUSH1 0x0 SWAP1 DUP2 MSTORE PUSH1 0x4 PUSH1 0x20 SWAP1 DUP2 MSTORE PUSH1 0x40 DUP1 DUP4 KECCAK256 CALLER DUP5 MSTORE SWAP1 SWAP2 MSTORE SWAP1 KECCAK256 SLOAD DUP1 PUSH2 0xC61 JUMPI PUSH1 0x40 MLOAD PUSH3 0x461BCD PUSH1 0xE5 SHL DUP2 MSTORE PUSH1 0x20 PUSH1 0x4 DUP3 ADD MSTORE PUSH1 0x2B PUSH1 0x24 DUP3 ADD MSTORE PUSH32 0x5374616B696E67436F6E74726163743A205374616B696E672062616C616E6365 PUSH1 0x44 DUP3 ADD MSTORE PUSH11 0x20616C7265616479203021 PUSH1 0xA8 SHL PUSH1 0x64 DUP3 ADD MSTORE PUSH1 0x84 ADD PUSH2 0x3F5 JUMP JUMPDEST PUSH2 0xC6B CALLER DUP4 PUSH2 0x142F JUMP JUMPDEST PUSH1 0x1 PUSH1 0x1 PUSH1 0xA0 SHL SUB DUP3 AND PUSH1 0x0 SWAP1 DUP2 MSTORE PUSH1 0x4 PUSH1 0x20 SWAP1 DUP2 MSTORE PUSH1 0x40 DUP1 DUP4 KECCAK256 CALLER DUP5 MSTORE DUP3 MSTORE DUP1 DUP4 KECCAK256 DUP4 SWAP1 SSTORE PUSH1 0x5 SWAP1 SWAP2 MSTORE SWAP1 KECCAK256 SLOAD PUSH2 0xCA5 SWAP1 PUSH1 0x1 SWAP1 PUSH2 0x196F JUMP JUMPDEST CALLER PUSH1 0x0 SWAP1 DUP2 MSTORE PUSH1 0x5 PUSH1 0x20 MSTORE PUSH1 0x40 SWAP1 KECCAK256 DUP2 SWAP1 SSTORE PUSH2 0xDC6 JUMPI PUSH1 0x0 JUMPDEST PUSH1 0x2 SLOAD DUP2 LT ISZERO PUSH2 0xDC4 JUMPI CALLER PUSH1 0x1 PUSH1 0x1 PUSH1 0xA0 SHL SUB AND PUSH1 0x2 DUP3 DUP2 SLOAD DUP2 LT PUSH2 0xCE5 JUMPI PUSH2 0xCE5 PUSH2 0x1925 JUMP JUMPDEST PUSH1 0x0 SWAP2 DUP3 MSTORE PUSH1 0x20 SWAP1 SWAP2 KECCAK256 ADD SLOAD PUSH1 0x1 PUSH1 0x1 PUSH1 0xA0 SHL SUB AND EQ ISZERO PUSH2 0xDB2 JUMPI PUSH1 0x2 DUP1 SLOAD PUSH2 0xD10 SWAP1 PUSH1 0x1 SWAP1 PUSH2 0x196F JUMP JUMPDEST DUP2 SLOAD DUP2 LT PUSH2 0xD20 JUMPI PUSH2 0xD20 PUSH2 0x1925 JUMP JUMPDEST PUSH1 0x0 SWAP2 DUP3 MSTORE PUSH1 0x20 SWAP1 SWAP2 KECCAK256 ADD SLOAD PUSH1 0x2 DUP1 SLOAD PUSH1 0x1 PUSH1 0x1 PUSH1 0xA0 SHL SUB SWAP1 SWAP3 AND SWAP2 DUP4 SWAP1 DUP2 LT PUSH2 0xD4C JUMPI PUSH2 0xD4C PUSH2 0x1925 JUMP JUMPDEST SWAP1 PUSH1 0x0 MSTORE PUSH1 0x20 PUSH1 0x0 KECCAK256 ADD PUSH1 0x0 PUSH2 0x100 EXP DUP2 SLOAD DUP2 PUSH1 0x1 PUSH1 0x1 PUSH1 0xA0 SHL SUB MUL NOT AND SWAP1 DUP4 PUSH1 0x1 PUSH1 0x1 PUSH1 0xA0 SHL SUB AND MUL OR SWAP1 SSTORE POP PUSH1 0x2 DUP1 SLOAD DUP1 PUSH2 0xD8B JUMPI PUSH2 0xD8B PUSH2 0x1986 JUMP JUMPDEST PUSH1 0x0 DUP3 DUP2 MSTORE PUSH1 0x20 SWAP1 KECCAK256 DUP2 ADD PUSH1 0x0 NOT SWAP1 DUP2 ADD DUP1 SLOAD PUSH1 0x1 PUSH1 0x1 PUSH1 0xA0 SHL SUB NOT AND SWAP1 SSTORE ADD SWAP1 SSTORE PUSH2 0xDC4 JUMP JUMPDEST DUP1 PUSH2 0xDBC DUP2 PUSH2 0x193B JUMP JUMPDEST SWAP2 POP POP PUSH2 0xCBE JUMP JUMPDEST POP JUMPDEST PUSH1 0xA SLOAD PUSH1 0x40 MLOAD PUSH4 0x1A4CA37B PUSH1 0xE2 SHL DUP2 MSTORE PUSH1 0x0 SWAP2 PUSH1 0x1 PUSH1 0x1 PUSH1 0xA0 SHL SUB AND SWAP1 PUSH4 0x69328DEC SWAP1 PUSH2 0xDFB SWAP1 DUP7 SWAP1 DUP7 SWAP1 CALLER SWAP1 PUSH1 0x4 ADD PUSH2 0x17D1 JUMP JUMPDEST PUSH1 0x20 PUSH1 0x40 MLOAD DUP1 DUP4 SUB DUP2 PUSH1 0x0 DUP8 GAS CALL ISZERO DUP1 ISZERO PUSH2 0xE1A JUMPI RETURNDATASIZE PUSH1 0x0 DUP1 RETURNDATACOPY RETURNDATASIZE PUSH1 0x0 REVERT JUMPDEST POP POP POP POP PUSH1 0x40 MLOAD RETURNDATASIZE PUSH1 0x1F NOT PUSH1 0x1F DUP3 ADD AND DUP3 ADD DUP1 PUSH1 0x40 MSTORE POP DUP2 ADD SWAP1 PUSH2 0xE3E SWAP2 SWAP1 PUSH2 0x1956 JUMP JUMPDEST GT PUSH2 0xE8B JUMPI PUSH1 0x40 MLOAD PUSH3 0x461BCD PUSH1 0xE5 SHL DUP2 MSTORE PUSH1 0x20 PUSH1 0x4 DUP3 ADD MSTORE PUSH1 0x1F PUSH1 0x24 DUP3 ADD MSTORE PUSH32 0x5374616B696E67436F6E74726163743A207769746864726177206572726F7200 PUSH1 0x44 DUP3 ADD MSTORE PUSH1 0x64 ADD PUSH2 0x3F5 JUMP JUMPDEST PUSH1 0x40 MLOAD DUP2 DUP2 MSTORE CALLER SWAP1 PUSH1 0x1 PUSH1 0x1 PUSH1 0xA0 SHL SUB DUP5 AND SWAP1 PUSH32 0x4C5A68DF1E54DD796657DC5832C88515A36DC92548AF9951A0EF38DD61A3322E SWAP1 PUSH1 0x20 ADD PUSH2 0x86B JUMP JUMPDEST PUSH2 0xED1 CALLER PUSH2 0x1500 JUMP JUMPDEST CALLER PUSH1 0x0 DUP2 DUP2 MSTORE PUSH1 0x7 PUSH1 0x20 MSTORE PUSH1 0x40 DUP1 DUP3 KECCAK256 DUP1 SLOAD SWAP3 SWAP1 SSTORE PUSH1 0x1 SLOAD SWAP1 MLOAD PUSH4 0xA9059CBB PUSH1 0xE0 SHL DUP2 MSTORE PUSH1 0x4 DUP2 ADD SWAP4 SWAP1 SWAP4 MSTORE PUSH1 0x24 DUP4 ADD DUP3 SWAP1 MSTORE SWAP1 SWAP2 PUSH1 0x1 PUSH1 0x1 PUSH1 0xA0 SHL SUB SWAP1 SWAP2 AND SWAP1 PUSH4 0xA9059CBB SWAP1 PUSH1 0x44 ADD PUSH1 0x20 PUSH1 0x40 MLOAD DUP1 DUP4 SUB DUP2 PUSH1 0x0 DUP8 GAS CALL ISZERO DUP1 ISZERO PUSH2 0xF3A JUMPI RETURNDATASIZE PUSH1 0x0 DUP1 RETURNDATACOPY RETURNDATASIZE PUSH1 0x0 REVERT JUMPDEST POP POP POP POP PUSH1 0x40 MLOAD RETURNDATASIZE PUSH1 0x1F NOT PUSH1 0x1F DUP3 ADD AND DUP3 ADD DUP1 PUSH1 0x40 MSTORE POP DUP2 ADD SWAP1 PUSH2 0xF5E SWAP2 SWAP1 PUSH2 0x1740 JUMP JUMPDEST PUSH2 0xFAA JUMPI PUSH1 0x40 MLOAD PUSH3 0x461BCD PUSH1 0xE5 SHL DUP2 MSTORE PUSH1 0x20 PUSH1 0x4 DUP3 ADD DUP2 SWAP1 MSTORE PUSH1 0x24 DUP3 ADD MSTORE PUSH32 0x5374616B696E67436F6E74726163743A207472616E73666572206661696C6564 PUSH1 0x44 DUP3 ADD MSTORE PUSH1 0x64 ADD PUSH2 0x3F5 JUMP JUMPDEST POP JUMP JUMPDEST PUSH1 0x3 DUP2 DUP2 SLOAD DUP2 LT PUSH2 0xFBD JUMPI PUSH1 0x0 DUP1 REVERT JUMPDEST PUSH1 0x0 SWAP2 DUP3 MSTORE PUSH1 0x20 SWAP1 SWAP2 KECCAK256 ADD SLOAD PUSH1 0x1 PUSH1 0x1 PUSH1 0xA0 SHL SUB AND SWAP1 POP DUP2 JUMP JUMPDEST PUSH1 0x0 SLOAD PUSH1 0x1 PUSH1 0x1 PUSH1 0xA0 SHL SUB AND CALLER EQ PUSH2 0x1001 JUMPI PUSH1 0x40 MLOAD PUSH3 0x461BCD PUSH1 0xE5 SHL DUP2 MSTORE PUSH1 0x4 ADD PUSH2 0x3F5 SWAP1 PUSH2 0x170B JUMP JUMPDEST PUSH2 0x100B PUSH1 0x0 PUSH2 0x15A8 JUMP JUMPDEST JUMP JUMPDEST PUSH1 0x0 SLOAD PUSH1 0x1 PUSH1 0x1 PUSH1 0xA0 SHL SUB AND CALLER EQ PUSH2 0x1037 JUMPI PUSH1 0x40 MLOAD PUSH3 0x461BCD PUSH1 0xE5 SHL DUP2 MSTORE PUSH1 0x4 ADD PUSH2 0x3F5 SWAP1 PUSH2 0x170B JUMP JUMPDEST PUSH1 0x1 PUSH1 0x1 PUSH1 0xA0 SHL SUB SWAP2 DUP3 AND PUSH1 0x0 SWAP1 DUP2 MSTORE PUSH1 0x6 PUSH1 0x20 MSTORE PUSH1 0x40 SWAP1 KECCAK256 DUP1 SLOAD PUSH1 0x1 PUSH1 0x1 PUSH1 0xA0 SHL SUB NOT AND SWAP2 SWAP1 SWAP3 AND OR SWAP1 SSTORE JUMP JUMPDEST PUSH1 0x1 PUSH1 0x1 PUSH1 0xA0 SHL SUB DUP2 AND PUSH1 0x0 SWAP1 DUP2 MSTORE PUSH1 0x5 PUSH1 0x20 MSTORE PUSH1 0x40 DUP2 KECCAK256 SLOAD PUSH2 0x108A JUMPI POP PUSH1 0x0 SWAP2 SWAP1 POP JUMP JUMPDEST PUSH1 0x0 DUP1 JUMPDEST PUSH1 0x3 SLOAD DUP2 LT ISZERO PUSH2 0x10E7 JUMPI PUSH2 0x10C9 DUP5 PUSH1 0x3 DUP4 DUP2 SLOAD DUP2 LT PUSH2 0x10AF JUMPI PUSH2 0x10AF PUSH2 0x1925 JUMP JUMPDEST PUSH1 0x0 SWAP2 DUP3 MSTORE PUSH1 0x20 SWAP1 SWAP2 KECCAK256 ADD SLOAD PUSH1 0x1 PUSH1 0x1 PUSH1 0xA0 SHL SUB AND PUSH2 0x877 JUMP JUMPDEST PUSH2 0x10D3 SWAP1 DUP4 PUSH2 0x17B9 JUMP JUMPDEST SWAP2 POP DUP1 PUSH2 0x10DF DUP2 PUSH2 0x193B JUMP JUMPDEST SWAP2 POP POP PUSH2 0x108E JUMP JUMPDEST POP SWAP3 SWAP2 POP POP JUMP JUMPDEST PUSH1 0x0 DUP1 JUMPDEST PUSH1 0x3 SLOAD DUP2 LT ISZERO PUSH2 0x114F JUMPI DUP3 PUSH1 0x1 PUSH1 0x1 PUSH1 0xA0 SHL SUB AND PUSH1 0x3 DUP3 DUP2 SLOAD DUP2 LT PUSH2 0x1119 JUMPI PUSH2 0x1119 PUSH2 0x1925 JUMP JUMPDEST PUSH1 0x0 SWAP2 DUP3 MSTORE PUSH1 0x20 SWAP1 SWAP2 KECCAK256 ADD SLOAD PUSH1 0x1 PUSH1 0x1 PUSH1 0xA0 SHL SUB AND EQ ISZERO PUSH2 0x113D JUMPI POP PUSH1 0x1 SWAP3 SWAP2 POP POP JUMP JUMPDEST DUP1 PUSH2 0x1147 DUP2 PUSH2 0x193B JUMP JUMPDEST SWAP2 POP POP PUSH2 0x10F2 JUMP JUMPDEST POP PUSH1 0x0 SWAP3 SWAP2 POP POP JUMP JUMPDEST PUSH1 0x1 PUSH1 0x1 PUSH1 0xA0 SHL SUB DUP1 DUP3 AND PUSH1 0x0 SWAP1 DUP2 MSTORE PUSH1 0x6 PUSH1 0x20 MSTORE PUSH1 0x40 DUP1 DUP3 KECCAK256 SLOAD DUP2 MLOAD PUSH4 0x3FABE5A3 PUSH1 0xE2 SHL DUP2 MSTORE SWAP2 MLOAD SWAP3 SWAP4 DUP5 SWAP4 SWAP2 AND SWAP2 DUP3 SWAP2 DUP5 SWAP2 DUP4 SWAP2 PUSH4 0xFEAF968C SWAP2 PUSH1 0x4 DUP1 DUP3 ADD SWAP3 PUSH1 0xA0 SWAP3 SWAP1 SWAP2 SWAP1 DUP3 SWAP1 SUB ADD DUP2 DUP7 GAS STATICCALL ISZERO DUP1 ISZERO PUSH2 0x11B9 JUMPI RETURNDATASIZE PUSH1 0x0 DUP1 RETURNDATACOPY RETURNDATASIZE PUSH1 0x0 REVERT JUMPDEST POP POP POP POP PUSH1 0x40 MLOAD RETURNDATASIZE PUSH1 0x1F NOT PUSH1 0x1F DUP3 ADD AND DUP3 ADD DUP1 PUSH1 0x40 MSTORE POP DUP2 ADD SWAP1 PUSH2 0x11DD SWAP2 SWAP1 PUSH2 0x19B6 JUMP JUMPDEST POP POP POP SWAP2 POP POP PUSH1 0x0 DUP3 PUSH1 0x1 PUSH1 0x1 PUSH1 0xA0 SHL SUB AND PUSH4 0x313CE567 PUSH1 0x40 MLOAD DUP2 PUSH4 0xFFFFFFFF AND PUSH1 0xE0 SHL DUP2 MSTORE PUSH1 0x4 ADD PUSH1 0x20 PUSH1 0x40 MLOAD DUP1 DUP4 SUB DUP2 DUP7 GAS STATICCALL ISZERO DUP1 ISZERO PUSH2 0x1223 JUMPI RETURNDATASIZE PUSH1 0x0 DUP1 RETURNDATACOPY RETURNDATASIZE PUSH1 0x0 REVERT JUMPDEST POP POP POP POP PUSH1 0x40 MLOAD RETURNDATASIZE PUSH1 0x1F NOT PUSH1 0x1F DUP3 ADD AND DUP3 ADD DUP1 PUSH1 0x40 MSTORE POP DUP2 ADD SWAP1 PUSH2 0x1247 SWAP2 SWAP1 PUSH2 0x1A06 JUMP JUMPDEST SWAP2 SWAP8 PUSH1 0xFF SWAP1 SWAP3 AND SWAP7 POP SWAP1 SWAP5 POP POP POP POP POP JUMP JUMPDEST PUSH1 0x0 SLOAD PUSH1 0x1 PUSH1 0x1 PUSH1 0xA0 SHL SUB AND CALLER EQ PUSH2 0x1283 JUMPI PUSH1 0x40 MLOAD PUSH3 0x461BCD PUSH1 0xE5 SHL DUP2 MSTORE PUSH1 0x4 ADD PUSH2 0x3F5 SWAP1 PUSH2 0x170B JUMP JUMPDEST PUSH1 0x1 PUSH1 0x1 PUSH1 0xA0 SHL SUB DUP2 AND PUSH2 0x12E8 JUMPI PUSH1 0x40 MLOAD PUSH3 0x461BCD PUSH1 0xE5 SHL DUP2 MSTORE PUSH1 0x20 PUSH1 0x4 DUP3 ADD MSTORE PUSH1 0x26 PUSH1 0x24 DUP3 ADD MSTORE PUSH32 0x4F776E61626C653A206E6577206F776E657220697320746865207A65726F2061 PUSH1 0x44 DUP3 ADD MSTORE PUSH6 0x646472657373 PUSH1 0xD0 SHL PUSH1 0x64 DUP3 ADD MSTORE PUSH1 0x84 ADD PUSH2 0x3F5 JUMP JUMPDEST PUSH2 0xFAA DUP2 PUSH2 0x15A8 JUMP JUMPDEST PUSH1 0x0 SLOAD PUSH1 0x1 PUSH1 0x1 PUSH1 0xA0 SHL SUB AND CALLER EQ PUSH2 0x131B JUMPI PUSH1 0x40 MLOAD PUSH3 0x461BCD PUSH1 0xE5 SHL DUP2 MSTORE PUSH1 0x4 ADD PUSH2 0x3F5 SWAP1 PUSH2 0x170B JUMP JUMPDEST PUSH1 0x0 JUMPDEST PUSH1 0x2 SLOAD DUP2 LT ISZERO PUSH2 0x13C5 JUMPI PUSH1 0x1 PUSH1 0x1 PUSH1 0xA0 SHL SUB DUP4 AND PUSH1 0x0 SWAP1 DUP2 MSTORE PUSH1 0x4 PUSH1 0x20 MSTORE PUSH1 0x40 DUP2 KECCAK256 PUSH1 0x2 DUP1 SLOAD DUP4 SWAP2 SWAP1 DUP6 SWAP1 DUP2 LT PUSH2 0x1357 JUMPI PUSH2 0x1357 PUSH2 0x1925 JUMP JUMPDEST PUSH1 0x0 SWAP2 DUP3 MSTORE PUSH1 0x20 DUP1 DUP4 KECCAK256 SWAP1 SWAP2 ADD SLOAD PUSH1 0x1 PUSH1 0x1 PUSH1 0xA0 SHL SUB AND DUP4 MSTORE DUP3 ADD SWAP3 SWAP1 SWAP3 MSTORE PUSH1 0x40 ADD SWAP1 KECCAK256 SLOAD GT ISZERO PUSH2 0x13B3 JUMPI PUSH2 0x13B3 PUSH1 0x2 DUP3 DUP2 SLOAD DUP2 LT PUSH2 0x1398 JUMPI PUSH2 0x1398 PUSH2 0x1925 JUMP JUMPDEST PUSH1 0x0 SWAP2 DUP3 MSTORE PUSH1 0x20 SWAP1 SWAP2 KECCAK256 ADD SLOAD PUSH1 0x1 PUSH1 0x1 PUSH1 0xA0 SHL SUB AND DUP5 PUSH2 0x142F JUMP JUMPDEST DUP1 PUSH2 0x13BD DUP2 PUSH2 0x193B JUMP JUMPDEST SWAP2 POP POP PUSH2 0x131E JUMP JUMPDEST POP PUSH1 0x1 PUSH1 0x1 PUSH1 0xA0 SHL SUB DUP3 AND PUSH1 0x0 DUP2 DUP2 MSTORE PUSH1 0x8 PUSH1 0x20 MSTORE PUSH1 0x40 SWAP1 DUP2 SWAP1 KECCAK256 DUP4 SWAP1 SSTORE MLOAD PUSH32 0x954FD12529F1A0A3258B2FD42316D6564987047F4F637F8EA9E434E3F5F5DEA0 SWAP1 PUSH2 0x1413 SWAP1 DUP5 DUP2 MSTORE PUSH1 0x20 ADD SWAP1 JUMP JUMPDEST PUSH1 0x40 MLOAD DUP1 SWAP2 SUB SWAP1 LOG2 POP POP JUMP JUMPDEST PUSH1 0x2 DUP2 DUP2 SLOAD DUP2 LT PUSH2 0xFBD JUMPI PUSH1 0x0 DUP1 REVERT JUMPDEST PUSH1 0x1 PUSH1 0x1 PUSH1 0xA0 SHL SUB DUP3 DUP2 AND PUSH1 0x0 SWAP1 DUP2 MSTORE PUSH1 0x9 PUSH1 0x20 SWAP1 DUP2 MSTORE PUSH1 0x40 DUP1 DUP4 KECCAK256 SWAP4 DUP6 AND DUP4 MSTORE SWAP3 SWAP1 MSTORE SWAP1 DUP2 KECCAK256 DUP1 SLOAD TIMESTAMP SWAP1 SWAP2 SSTORE SWAP1 PUSH2 0x1467 DUP5 DUP5 PUSH2 0x877 JUMP JUMPDEST SWAP1 POP PUSH1 0x0 PUSH2 0x1475 DUP4 TIMESTAMP PUSH2 0x196F JUMP JUMPDEST PUSH1 0x1 PUSH1 0x1 PUSH1 0xA0 SHL SUB DUP6 AND PUSH1 0x0 SWAP1 DUP2 MSTORE PUSH1 0x8 PUSH1 0x20 MSTORE PUSH1 0x40 DUP2 KECCAK256 SLOAD SWAP2 SWAP3 POP PUSH3 0x15180 SWAP2 SWAP1 DUP3 PUSH2 0x3E8 DUP4 PUSH2 0x14A6 DUP8 DUP10 PUSH2 0x18E4 JUMP JUMPDEST PUSH2 0x14B0 SWAP2 SWAP1 PUSH2 0x18E4 JUMP JUMPDEST PUSH2 0x14BA SWAP2 SWAP1 PUSH2 0x1903 JUMP JUMPDEST PUSH2 0x14C4 SWAP2 SWAP1 PUSH2 0x1903 JUMP JUMPDEST PUSH1 0x1 PUSH1 0x1 PUSH1 0xA0 SHL SUB DUP10 AND PUSH1 0x0 SWAP1 DUP2 MSTORE PUSH1 0x7 PUSH1 0x20 MSTORE PUSH1 0x40 DUP2 KECCAK256 DUP1 SLOAD SWAP3 SWAP4 POP DUP4 SWAP3 SWAP1 SWAP2 SWAP1 PUSH2 0x14F1 SWAP1 DUP5 SWAP1 PUSH2 0x17B9 JUMP JUMPDEST SWAP1 SWAP2 SSTORE POP POP POP POP POP POP POP POP POP POP JUMP JUMPDEST PUSH1 0x0 JUMPDEST PUSH1 0x3 SLOAD DUP2 LT ISZERO PUSH2 0x15A4 JUMPI PUSH1 0x0 PUSH1 0x4 PUSH1 0x0 PUSH1 0x3 DUP5 DUP2 SLOAD DUP2 LT PUSH2 0x1526 JUMPI PUSH2 0x1526 PUSH2 0x1925 JUMP JUMPDEST PUSH1 0x0 SWAP2 DUP3 MSTORE PUSH1 0x20 DUP1 DUP4 KECCAK256 SWAP1 SWAP2 ADD SLOAD PUSH1 0x1 PUSH1 0x1 PUSH1 0xA0 SHL SUB SWAP1 DUP2 AND DUP5 MSTORE DUP4 DUP3 ADD SWAP5 SWAP1 SWAP5 MSTORE PUSH1 0x40 SWAP3 DUP4 ADD DUP3 KECCAK256 SWAP4 DUP8 AND DUP3 MSTORE SWAP3 SWAP1 SWAP3 MSTORE SWAP1 KECCAK256 SLOAD GT ISZERO PUSH2 0x1592 JUMPI PUSH2 0x1592 DUP3 PUSH1 0x3 DUP4 DUP2 SLOAD DUP2 LT PUSH2 0x1578 JUMPI PUSH2 0x1578 PUSH2 0x1925 JUMP JUMPDEST PUSH1 0x0 SWAP2 DUP3 MSTORE PUSH1 0x20 SWAP1 SWAP2 KECCAK256 ADD SLOAD PUSH1 0x1 PUSH1 0x1 PUSH1 0xA0 SHL SUB AND PUSH2 0x142F JUMP JUMPDEST DUP1 PUSH2 0x159C DUP2 PUSH2 0x193B JUMP JUMPDEST SWAP2 POP POP PUSH2 0x1503 JUMP JUMPDEST POP POP JUMP JUMPDEST PUSH1 0x0 DUP1 SLOAD PUSH1 0x1 PUSH1 0x1 PUSH1 0xA0 SHL SUB DUP4 DUP2 AND PUSH1 0x1 PUSH1 0x1 PUSH1 0xA0 SHL SUB NOT DUP4 AND DUP2 OR DUP5 SSTORE PUSH1 0x40 MLOAD SWAP2 SWAP1 SWAP3 AND SWAP3 DUP4 SWAP2 PUSH32 0x8BE0079C531659141344CD1FD0A4F28419497F9722A3DAAFE3B4186F6B6457E0 SWAP2 SWAP1 LOG3 POP POP JUMP JUMPDEST DUP1 CALLDATALOAD PUSH1 0x1 PUSH1 0x1 PUSH1 0xA0 SHL SUB DUP2 AND DUP2 EQ PUSH2 0x160F JUMPI PUSH1 0x0 DUP1 REVERT JUMPDEST SWAP2 SWAP1 POP JUMP JUMPDEST PUSH1 0x0 DUP1 PUSH1 0x0 PUSH1 0x60 DUP5 DUP7 SUB SLT ISZERO PUSH2 0x1629 JUMPI PUSH1 0x0 DUP1 REVERT JUMPDEST PUSH2 0x1632 DUP5 PUSH2 0x15F8 JUMP JUMPDEST SWAP3 POP PUSH2 0x1640 PUSH1 0x20 DUP6 ADD PUSH2 0x15F8 JUMP JUMPDEST SWAP2 POP PUSH1 0x40 DUP5 ADD CALLDATALOAD SWAP1 POP SWAP3 POP SWAP3 POP SWAP3 JUMP JUMPDEST PUSH1 0x0 DUP1 PUSH1 0x40 DUP4 DUP6 SUB SLT ISZERO PUSH2 0x1663 JUMPI PUSH1 0x0 DUP1 REVERT JUMPDEST DUP3 CALLDATALOAD SWAP2 POP PUSH2 0x1673 PUSH1 0x20 DUP5 ADD PUSH2 0x15F8 JUMP JUMPDEST SWAP1 POP SWAP3 POP SWAP3 SWAP1 POP JUMP JUMPDEST PUSH1 0x0 DUP1 PUSH1 0x40 DUP4 DUP6 SUB SLT ISZERO PUSH2 0x168F JUMPI PUSH1 0x0 DUP1 REVERT JUMPDEST PUSH2 0x1698 DUP4 PUSH2 0x15F8 JUMP JUMPDEST SWAP2 POP PUSH2 0x1673 PUSH1 0x20 DUP5 ADD PUSH2 0x15F8 JUMP JUMPDEST PUSH1 0x0 PUSH1 0x20 DUP3 DUP5 SUB SLT ISZERO PUSH2 0x16B8 JUMPI PUSH1 0x0 DUP1 REVERT JUMPDEST PUSH2 0x16C1 DUP3 PUSH2 0x15F8 JUMP JUMPDEST SWAP4 SWAP3 POP POP POP JUMP JUMPDEST PUSH1 0x0 PUSH1 0x20 DUP3 DUP5 SUB SLT ISZERO PUSH2 0x16DA JUMPI PUSH1 0x0 DUP1 REVERT JUMPDEST POP CALLDATALOAD SWAP2 SWAP1 POP JUMP JUMPDEST PUSH1 0x0 DUP1 PUSH1 0x40 DUP4 DUP6 SUB SLT ISZERO PUSH2 0x16F4 JUMPI PUSH1 0x0 DUP1 REVERT JUMPDEST PUSH2 0x16FD DUP4 PUSH2 0x15F8 JUMP JUMPDEST SWAP5 PUSH1 0x20 SWAP4 SWAP1 SWAP4 ADD CALLDATALOAD SWAP4 POP POP POP JUMP JUMPDEST PUSH1 0x20 DUP1 DUP3 MSTORE DUP2 DUP2 ADD MSTORE PUSH32 0x4F776E61626C653A2063616C6C6572206973206E6F7420746865206F776E6572 PUSH1 0x40 DUP3 ADD MSTORE PUSH1 0x60 ADD SWAP1 JUMP JUMPDEST PUSH1 0x0 PUSH1 0x20 DUP3 DUP5 SUB SLT ISZERO PUSH2 0x1752 JUMPI PUSH1 0x0 DUP1 REVERT JUMPDEST DUP2 MLOAD DUP1 ISZERO ISZERO DUP2 EQ PUSH2 0x16C1 JUMPI PUSH1 0x0 DUP1 REVERT JUMPDEST PUSH1 0x20 DUP1 DUP3 MSTORE PUSH1 0x21 SWAP1 DUP3 ADD MSTORE PUSH32 0x5374616B696E67436F6E74726163743A20617070726F76652829206661696C65 PUSH1 0x40 DUP3 ADD MSTORE PUSH1 0x19 PUSH1 0xFA SHL PUSH1 0x60 DUP3 ADD MSTORE PUSH1 0x80 ADD SWAP1 JUMP JUMPDEST PUSH4 0x4E487B71 PUSH1 0xE0 SHL PUSH1 0x0 MSTORE PUSH1 0x11 PUSH1 0x4 MSTORE PUSH1 0x24 PUSH1 0x0 REVERT JUMPDEST PUSH1 0x0 DUP3 NOT DUP3 GT ISZERO PUSH2 0x17CC JUMPI PUSH2 0x17CC PUSH2 0x17A3 JUMP JUMPDEST POP ADD SWAP1 JUMP JUMPDEST PUSH1 0x1 PUSH1 0x1 PUSH1 0xA0 SHL SUB SWAP4 DUP5 AND DUP2 MSTORE PUSH1 0x20 DUP2 ADD SWAP3 SWAP1 SWAP3 MSTORE SWAP1 SWAP2 AND PUSH1 0x40 DUP3 ADD MSTORE PUSH1 0x60 ADD SWAP1 JUMP JUMPDEST PUSH1 0x1 DUP2 DUP2 JUMPDEST DUP1 DUP6 GT ISZERO PUSH2 0x182F JUMPI DUP2 PUSH1 0x0 NOT DIV DUP3 GT ISZERO PUSH2 0x1815 JUMPI PUSH2 0x1815 PUSH2 0x17A3 JUMP JUMPDEST DUP1 DUP6 AND ISZERO PUSH2 0x1822 JUMPI SWAP2 DUP2 MUL SWAP2 JUMPDEST SWAP4 DUP5 SHR SWAP4 SWAP1 DUP1 MUL SWAP1 PUSH2 0x17F9 JUMP JUMPDEST POP SWAP3 POP SWAP3 SWAP1 POP JUMP JUMPDEST PUSH1 0x0 DUP3 PUSH2 0x1846 JUMPI POP PUSH1 0x1 PUSH2 0x8D8 JUMP JUMPDEST DUP2 PUSH2 0x1853 JUMPI POP PUSH1 0x0 PUSH2 0x8D8 JUMP JUMPDEST DUP2 PUSH1 0x1 DUP2 EQ PUSH2 0x1869 JUMPI PUSH1 0x2 DUP2 EQ PUSH2 0x1873 JUMPI PUSH2 0x188F JUMP JUMPDEST PUSH1 0x1 SWAP2 POP POP PUSH2 0x8D8 JUMP JUMPDEST PUSH1 0xFF DUP5 GT ISZERO PUSH2 0x1884 JUMPI PUSH2 0x1884 PUSH2 0x17A3 JUMP JUMPDEST POP POP PUSH1 0x1 DUP3 SHL PUSH2 0x8D8 JUMP JUMPDEST POP PUSH1 0x20 DUP4 LT PUSH2 0x133 DUP4 LT AND PUSH1 0x4E DUP5 LT PUSH1 0xB DUP5 LT AND OR ISZERO PUSH2 0x18B2 JUMPI POP DUP2 DUP2 EXP PUSH2 0x8D8 JUMP JUMPDEST PUSH2 0x18BC DUP4 DUP4 PUSH2 0x17F4 JUMP JUMPDEST DUP1 PUSH1 0x0 NOT DIV DUP3 GT ISZERO PUSH2 0x18D0 JUMPI PUSH2 0x18D0 PUSH2 0x17A3 JUMP JUMPDEST MUL SWAP4 SWAP3 POP POP POP JUMP JUMPDEST PUSH1 0x0 PUSH2 0x16C1 DUP4 DUP4 PUSH2 0x1837 JUMP JUMPDEST PUSH1 0x0 DUP2 PUSH1 0x0 NOT DIV DUP4 GT DUP3 ISZERO ISZERO AND ISZERO PUSH2 0x18FE JUMPI PUSH2 0x18FE PUSH2 0x17A3 JUMP JUMPDEST POP MUL SWAP1 JUMP JUMPDEST PUSH1 0x0 DUP3 PUSH2 0x1920 JUMPI PUSH4 0x4E487B71 PUSH1 0xE0 SHL PUSH1 0x0 MSTORE PUSH1 0x12 PUSH1 0x4 MSTORE PUSH1 0x24 PUSH1 0x0 REVERT JUMPDEST POP DIV SWAP1 JUMP JUMPDEST PUSH4 0x4E487B71 PUSH1 0xE0 SHL PUSH1 0x0 MSTORE PUSH1 0x32 PUSH1 0x4 MSTORE PUSH1 0x24 PUSH1 0x0 REVERT JUMPDEST PUSH1 0x0 PUSH1 0x0 NOT DUP3 EQ ISZERO PUSH2 0x194F JUMPI PUSH2 0x194F PUSH2 0x17A3 JUMP JUMPDEST POP PUSH1 0x1 ADD SWAP1 JUMP JUMPDEST PUSH1 0x0 PUSH1 0x20 DUP3 DUP5 SUB SLT ISZERO PUSH2 0x1968 JUMPI PUSH1 0x0 DUP1 REVERT JUMPDEST POP MLOAD SWAP2 SWAP1 POP JUMP JUMPDEST PUSH1 0x0 DUP3 DUP3 LT ISZERO PUSH2 0x1981 JUMPI PUSH2 0x1981 PUSH2 0x17A3 JUMP JUMPDEST POP SUB SWAP1 JUMP JUMPDEST PUSH4 0x4E487B71 PUSH1 0xE0 SHL PUSH1 0x0 MSTORE PUSH1 0x31 PUSH1 0x4 MSTORE PUSH1 0x24 PUSH1 0x0 REVERT JUMPDEST DUP1 MLOAD PUSH10 0xFFFFFFFFFFFFFFFFFFFF DUP2 AND DUP2 EQ PUSH2 0x160F JUMPI PUSH1 0x0 DUP1 REVERT JUMPDEST PUSH1 0x0 DUP1 PUSH1 0x0 DUP1 PUSH1 0x0 PUSH1 0xA0 DUP7 DUP9 SUB SLT ISZERO PUSH2 0x19CE JUMPI PUSH1 0x0 DUP1 REVERT JUMPDEST PUSH2 0x19D7 DUP7 PUSH2 0x199C JUMP JUMPDEST SWAP5 POP PUSH1 0x20 DUP7 ADD MLOAD SWAP4 POP PUSH1 0x40 DUP7 ADD MLOAD SWAP3 POP PUSH1 0x60 DUP7 ADD MLOAD SWAP2 POP PUSH2 0x19FA PUSH1 0x80 DUP8 ADD PUSH2 0x199C JUMP JUMPDEST SWAP1 POP SWAP3 SWAP6 POP SWAP3 SWAP6 SWAP1 SWAP4 POP JUMP JUMPDEST PUSH1 0x0 PUSH1 0x20 DUP3 DUP5 SUB SLT ISZERO PUSH2 0x1A18 JUMPI PUSH1 0x0 DUP1 REVERT JUMPDEST DUP2 MLOAD PUSH1 0xFF DUP2 AND DUP2 EQ PUSH2 0x16C1 JUMPI PUSH1 0x0 DUP1 REVERT INVALID LOG2 PUSH5 0x6970667358 0x22 SLT KECCAK256 JUMP PUSH23 0xD4B6C31153B7FCA46AD0CC5A9495673BD013AB00EF29EE XOR 0x27 0xB1 SELFBALANCE DUP3 0x4C 0xAE PUSH5 0x736F6C6343 STOP ADDMOD SIGNEXTEND STOP CALLER ",
  "sha1": "d5e0b818166b9ad90ecfd3b251bc8c1ba5c55b5a",
  "source": "// SPDX-License-Identifier: MIT\npragma solidity ^0.8.0;\n\nimport \"@openzeppelin/contracts/access/Ownable.sol\";\nimport \"@openzeppelin/contracts/token/ERC20/IERC20.sol\";\nimport \"@chainlink/contracts/src/v0.8/interfaces/AggregatorV3Interface.sol\";\n\nimport \"../interfaces/ILendingProtocol.sol\";\n\ncontract StakingContract is Ownable {\n    IERC20 public projectToken;\n    address[] public stakers;\n    address[] public allowedTokens;\n    //ERC20 -> user -> amount stakes\n    mapping(address => mapping(address => uint256)) public stakingBalance;\n    //how many different erc20 token the user has currently staked\n    mapping(address => uint256) public uniqueTokensStaked;\n    // ERC20 -> price feed address\n    mapping(address => address) public tokenPriceFeedMapping;\n    // user -> amount of projectToken they can claimed\n    mapping(address => uint256) public tokenToClaim;\n    // how much token user can earn per amount of time\n    // token earn = total value [USD] * yield/1000 * time period[timestamp] / second_in_days\n    // for a yieldRate of 10, user gain 1% of total value [USD] per day\n    // token -> yieldRate\n    mapping(address => uint256) public tokenToYieldRate;\n    // user => token => time of last update\n    mapping(address => mapping(address => uint256))\n        public userToTokenToUnrealisedYieldTime;\n\n    ILendingProtocol public lendingProtocol;\n\n    // EVENTS\n    event TokenAdded(address indexed token_address);\n    event TokenStaked(\n        address indexed token,\n        address indexed staker,\n        uint256 amount\n    );\n    event TokenUnstaked(\n        address indexed token,\n        address indexed staker,\n        uint256 amount\n    );\n    event LendingProtocolChanged(address newProtocol, address oldProtocol);\n\n    event YieldRateChange(address indexed token, uint256 newYield);\n\n    // CONSTRUCTOR\n    constructor(address _projectTokenAddress, address _lendingProtocol) {\n        projectToken = IERC20(_projectTokenAddress);\n        lendingProtocol = ILendingProtocol(_lendingProtocol);\n    }\n\n    // PUBLIC FUNCTIONS\n\n    /// @notice Stake _amount of _token\n    /// @param _amount The amount ot stake\n    /// @param _token The address of the token\n    function stakeTokens(uint256 _amount, address _token) external {\n        // check parameters\n        require(_amount > 0, \"StakingContract: Amount must be greater than 0\");\n        require(\n            tokenIsAllowed(_token),\n            \"StakingContract: Token is currently no allowed\"\n        );\n        //update token to claim (if some amount already staked)\n        _updateOneTokenToClaim(msg.sender, _token);\n        require(\n            IERC20(_token).transferFrom(msg.sender, address(this), _amount),\n            \"StakingContract: transferFrom() failed\"\n        );\n\n        if (stakingBalance[_token][msg.sender] == 0) {\n            uniqueTokensStaked[msg.sender] = uniqueTokensStaked[msg.sender] + 1;\n        }\n\n        stakingBalance[_token][msg.sender] =\n            stakingBalance[_token][msg.sender] +\n            _amount;\n\n        // add user to stakers list pnly if this is their first staking\n        if (uniqueTokensStaked[msg.sender] == 1) {\n            stakers.push(msg.sender);\n        }\n\n        //deposit on lending protocol\n        lendingProtocol.deposit(_token, _amount, address(this));\n        emit TokenStaked(_token, msg.sender, _amount);\n    }\n\n    /// @notice Unstake all _token staked\n    /// @param _token The address of the token\n    function unstakeTokens(address _token) external {\n        //check token to unstake\n        uint256 balance = stakingBalance[_token][msg.sender];\n        require(balance > 0, \"StakingContract: Staking balance already 0!\");\n        //update token to claim\n        _updateOneTokenToClaim(msg.sender, _token);\n        // update contract data\n        stakingBalance[_token][msg.sender] = 0;\n        uniqueTokensStaked[msg.sender] = uniqueTokensStaked[msg.sender] - 1;\n        if (uniqueTokensStaked[msg.sender] == 0) {\n            for (uint256 i = 0; i < stakers.length; i++) {\n                if (stakers[i] == msg.sender) {\n                    stakers[i] = stakers[stakers.length - 1];\n                    stakers.pop();\n                    break;\n                }\n            }\n        }\n\n        //withdraw from lending protocol and send to user\n        //and send tokens to user\n        require(\n            lendingProtocol.withdraw(_token, balance, msg.sender) > 0,\n            \"StakingContract: withdraw error\"\n        );\n        emit TokenUnstaked(_token, msg.sender, balance);\n    }\n\n    /// @notice Send Earned \"ProjectToken\" to user\n    function claimToken() external {\n        //Todo update yield per token in stake/unstake and here do it for each token\n        _updateTokenToClaim(msg.sender);\n        uint256 amount = tokenToClaim[msg.sender];\n        tokenToClaim[msg.sender] = 0;\n        require(\n            projectToken.transfer(msg.sender, amount),\n            \"StakingContract: transfer failed\"\n        );\n    }\n\n    /// @notice Check wheter a token is stakable on this contract\n    /// @param _token The address of the token\n    /// @return bool Wheter the token is stakable or not\n    function tokenIsAllowed(address _token) public view returns (bool) {\n        for (uint256 i = 0; i < allowedTokens.length; i++) {\n            if (allowedTokens[i] == _token) {\n                return true;\n            }\n        }\n        return false;\n    }\n\n    /// @notice Get the total value (in USD) staked by _user\n    /// @param _user The address of the user\n    /// @return totalValue The total value  of the tokens staked on the contract by _user\n    function getUserTotalValue(address _user) public view returns (uint256) {\n        if (uniqueTokensStaked[_user] == 0) {\n            return 0;\n        }\n        uint256 totalValue = 0;\n        //for any stakable token\n        for (uint256 i = 0; i < allowedTokens.length; i++) {\n            totalValue += getUserSingleTokenValue(_user, allowedTokens[i]);\n        }\n        return totalValue;\n    }\n\n    /// @notice Get the value (in USD) of _token staked by _user\n    /// @param _user The address of the user\n    /// @param _token The address of the token\n    /// @return tokenValue The value of _token staked on the contract by _user\n    function getUserSingleTokenValue(address _user, address _token)\n        public\n        view\n        returns (uint256)\n    {\n        (uint256 price, uint256 decimals) = getTokenValue(_token);\n        //TODO\n        uint256 tokenValue = ((stakingBalance[_token][_user] * price) /\n            (10**decimals));\n        return tokenValue;\n        //          amt staked                  * price  / 10**8\n        // E.G.     10 WETH                      * 3'000(usd/weth)/ 100_000_000\n    }\n\n    /// @notice Get the value (in USD) of a _token and its decimals()\n    /// @param _token The address of the token\n    /// @return price The value of _token\n    /// @return decimals The number of decimals of the _token\n    function getTokenValue(address _token)\n        public\n        view\n        returns (uint256, uint256)\n    {\n        address priceFeedAddress = tokenPriceFeedMapping[_token];\n        AggregatorV3Interface priceFeed = AggregatorV3Interface(\n            priceFeedAddress\n        );\n        (, int256 price, , , ) = priceFeed.latestRoundData();\n        uint256 decimals = uint256(priceFeed.decimals());\n        return (uint256(price), decimals);\n    }\n\n    // ONLYOWNER\n\n    /// @notice Set the price feed address for an ERC20 token\n    /// @dev Gets call automatically when adding new token\n    /// @param _token The address of the token\n    /// @param _priceFeed The address of the pricefeed\n    function setPriceFeedContract(address _token, address _priceFeed)\n        public\n        onlyOwner\n    {\n        tokenPriceFeedMapping[_token] = _priceFeed;\n    }\n\n    /// @notice Add a new _token to the list of stakable token\n    /// @param _token The address of the token\n    /// @param _pricefeed The address for the price feed of _token\n    function addAllowedTokens(\n        address _token,\n        address _pricefeed,\n        uint256 _yield\n    ) external onlyOwner {\n        allowedTokens.push(_token);\n        require(\n            IERC20(_token).approve(address(lendingProtocol), type(uint256).max),\n            \"StakingContract: approve() failed\"\n        );\n        setPriceFeedContract(_token, _pricefeed);\n        updateYieldRate(_token, _yield);\n        emit TokenAdded(_token);\n    }\n\n    // @notice Update the yield rate for _token\n    /// @param _token The address of the token\n    /// @param _newYieldRate The new yield rate\n    function updateYieldRate(address _token, uint256 _newYieldRate)\n        public\n        onlyOwner\n    {\n        //for all staker who have _token staked, we calculate the amount they can claim with the previous yield\n        //before updating the yield\n        for (uint256 i = 0; i < stakers.length; i++) {\n            if (stakingBalance[_token][stakers[i]] > 0) {\n                _updateOneTokenToClaim(stakers[i], _token);\n            }\n        }\n        //update yield\n        tokenToYieldRate[_token] = _newYieldRate;\n        emit YieldRateChange(_token, _newYieldRate);\n    }\n\n    /// @notice Change the lending protocol\n    /// @param _newLendingProtocol The address of the new lending protocol contract\n    function changeLendingProtocol(address _newLendingProtocol)\n        external\n        onlyOwner\n    {\n        address oldProtocol = address(lendingProtocol);\n        lendingProtocol = ILendingProtocol(_newLendingProtocol);\n        for (uint256 i = 0; i < allowedTokens.length; i++) {\n            require(\n                IERC20(allowedTokens[i]).approve(\n                    _newLendingProtocol,\n                    type(uint256).max\n                ),\n                \"StakingContract: approve() failed\"\n            );\n        }\n        //withdraw and redeposit\n        for (uint256 i = 0; i < allowedTokens.length; i++) {\n            address token = allowedTokens[i];\n            uint256 totalStaked = 0;\n            for (uint256 j = 0; j < stakers.length; j++) {\n                address staker = stakers[j];\n                totalStaked += stakingBalance[token][staker]; //TODO\n            }\n            ILendingProtocol(oldProtocol).withdraw(\n                token,\n                totalStaked,\n                address(this)\n            );\n            lendingProtocol.deposit(token, totalStaked, address(this));\n        }\n        emit LendingProtocolChanged(_newLendingProtocol, oldProtocol);\n    }\n\n    //  INTERNAL FUNCTION\n\n    /// @notice Update the tokenToClaim variable of _user for all token staked\n    /// @param _user The address of the user\n    function _updateTokenToClaim(address _user) internal {\n        //loop through all token\n        for (uint256 i = 0; i < allowedTokens.length; i++) {\n            if (stakingBalance[allowedTokens[i]][_user] > 0) {\n                _updateOneTokenToClaim(_user, allowedTokens[i]);\n            }\n        }\n    }\n\n    /// @notice Update the tokenToClaim variable of _user for _token\n    /// @param _user The address of the user\n    /// @param _token The address of the token\n    function _updateOneTokenToClaim(address _user, address _token) internal {\n        uint256 unrealisedYieldTime = userToTokenToUnrealisedYieldTime[_user][\n            _token\n        ];\n        userToTokenToUnrealisedYieldTime[_user][_token] = block.timestamp;\n\n        uint256 valueStaked = getUserSingleTokenValue(_user, _token);\n        uint256 time = block.timestamp - unrealisedYieldTime;\n        uint256 day = 1 days;\n        uint256 tokenYieldRate = tokenToYieldRate[_token];\n        uint256 additionalYield = ((valueStaked * time * tokenYieldRate) /\n            1000) / day;\n\n        tokenToClaim[_user] += additionalYield;\n    }\n}\n",
  "sourcePath": "contracts/StakingContract.sol",
  "type": "contract"
}